{
  "_format": "hh-sol-artifact-1",
  "contractName": "GovernorAlpha",
  "sourceName": "contracts/Governance/GovernorAlpha.sol",
  "abi": [
    {
      "inputs": [
        {
          "internalType": "address",
          "name": "timelock_",
          "type": "address"
        },
        {
          "internalType": "address",
          "name": "comp_",
          "type": "address"
        },
        {
          "internalType": "address",
          "name": "guardian_",
          "type": "address"
        }
      ],
      "payable": false,
      "stateMutability": "nonpayable",
      "type": "constructor"
    },
    {
      "anonymous": false,
      "inputs": [
        {
          "indexed": false,
          "internalType": "uint256",
          "name": "id",
          "type": "uint256"
        }
      ],
      "name": "ProposalCanceled",
      "type": "event"
    },
    {
      "anonymous": false,
      "inputs": [
        {
          "indexed": false,
          "internalType": "uint256",
          "name": "id",
          "type": "uint256"
        },
        {
          "indexed": false,
          "internalType": "address",
          "name": "proposer",
          "type": "address"
        },
        {
          "indexed": false,
          "internalType": "address[]",
          "name": "targets",
          "type": "address[]"
        },
        {
          "indexed": false,
          "internalType": "uint256[]",
          "name": "values",
          "type": "uint256[]"
        },
        {
          "indexed": false,
          "internalType": "string[]",
          "name": "signatures",
          "type": "string[]"
        },
        {
          "indexed": false,
          "internalType": "bytes[]",
          "name": "calldatas",
          "type": "bytes[]"
        },
        {
          "indexed": false,
          "internalType": "uint256",
          "name": "startBlock",
          "type": "uint256"
        },
        {
          "indexed": false,
          "internalType": "uint256",
          "name": "endBlock",
          "type": "uint256"
        },
        {
          "indexed": false,
          "internalType": "string",
          "name": "description",
          "type": "string"
        }
      ],
      "name": "ProposalCreated",
      "type": "event"
    },
    {
      "anonymous": false,
      "inputs": [
        {
          "indexed": false,
          "internalType": "uint256",
          "name": "id",
          "type": "uint256"
        }
      ],
      "name": "ProposalExecuted",
      "type": "event"
    },
    {
      "anonymous": false,
      "inputs": [
        {
          "indexed": false,
          "internalType": "uint256",
          "name": "id",
          "type": "uint256"
        },
        {
          "indexed": false,
          "internalType": "uint256",
          "name": "eta",
          "type": "uint256"
        }
      ],
      "name": "ProposalQueued",
      "type": "event"
    },
    {
      "anonymous": false,
      "inputs": [
        {
          "indexed": false,
          "internalType": "address",
          "name": "voter",
          "type": "address"
        },
        {
          "indexed": false,
          "internalType": "uint256",
          "name": "proposalId",
          "type": "uint256"
        },
        {
          "indexed": false,
          "internalType": "bool",
          "name": "support",
          "type": "bool"
        },
        {
          "indexed": false,
          "internalType": "uint256",
          "name": "votes",
          "type": "uint256"
        }
      ],
      "name": "VoteCast",
      "type": "event"
    },
    {
      "constant": true,
      "inputs": [],
      "name": "BALLOT_TYPEHASH",
      "outputs": [
        {
          "internalType": "bytes32",
          "name": "",
          "type": "bytes32"
        }
      ],
      "payable": false,
      "stateMutability": "view",
      "type": "function"
    },
    {
      "constant": true,
      "inputs": [],
      "name": "DOMAIN_TYPEHASH",
      "outputs": [
        {
          "internalType": "bytes32",
          "name": "",
          "type": "bytes32"
        }
      ],
      "payable": false,
      "stateMutability": "view",
      "type": "function"
    },
    {
      "constant": false,
      "inputs": [],
      "name": "__abdicate",
      "outputs": [],
      "payable": false,
      "stateMutability": "nonpayable",
      "type": "function"
    },
    {
      "constant": false,
      "inputs": [],
      "name": "__acceptAdmin",
      "outputs": [],
      "payable": false,
      "stateMutability": "nonpayable",
      "type": "function"
    },
    {
      "constant": false,
      "inputs": [
        {
          "internalType": "address",
          "name": "newPendingAdmin",
          "type": "address"
        },
        {
          "internalType": "uint256",
          "name": "eta",
          "type": "uint256"
        }
      ],
      "name": "__executeSetTimelockPendingAdmin",
      "outputs": [],
      "payable": false,
      "stateMutability": "nonpayable",
      "type": "function"
    },
    {
      "constant": false,
      "inputs": [
        {
          "internalType": "address",
          "name": "newPendingAdmin",
          "type": "address"
        },
        {
          "internalType": "uint256",
          "name": "eta",
          "type": "uint256"
        }
      ],
      "name": "__queueSetTimelockPendingAdmin",
      "outputs": [],
      "payable": false,
      "stateMutability": "nonpayable",
      "type": "function"
    },
    {
      "constant": false,
      "inputs": [
        {
          "internalType": "uint256",
          "name": "proposalId",
          "type": "uint256"
        }
      ],
      "name": "cancel",
      "outputs": [],
      "payable": false,
      "stateMutability": "nonpayable",
      "type": "function"
    },
    {
      "constant": false,
      "inputs": [
        {
          "internalType": "uint256",
          "name": "proposalId",
          "type": "uint256"
        },
        {
          "internalType": "bool",
          "name": "support",
          "type": "bool"
        }
      ],
      "name": "castVote",
      "outputs": [],
      "payable": false,
      "stateMutability": "nonpayable",
      "type": "function"
    },
    {
      "constant": false,
      "inputs": [
        {
          "internalType": "uint256",
          "name": "proposalId",
          "type": "uint256"
        },
        {
          "internalType": "bool",
          "name": "support",
          "type": "bool"
        },
        {
          "internalType": "uint8",
          "name": "v",
          "type": "uint8"
        },
        {
          "internalType": "bytes32",
          "name": "r",
          "type": "bytes32"
        },
        {
          "internalType": "bytes32",
          "name": "s",
          "type": "bytes32"
        }
      ],
      "name": "castVoteBySig",
      "outputs": [],
      "payable": false,
      "stateMutability": "nonpayable",
      "type": "function"
    },
    {
      "constant": true,
      "inputs": [],
      "name": "comp",
      "outputs": [
        {
          "internalType": "contract CompInterface",
          "name": "",
          "type": "address"
        }
      ],
      "payable": false,
      "stateMutability": "view",
      "type": "function"
    },
    {
      "constant": false,
      "inputs": [
        {
          "internalType": "uint256",
          "name": "proposalId",
          "type": "uint256"
        }
      ],
      "name": "execute",
      "outputs": [],
      "payable": true,
      "stateMutability": "payable",
      "type": "function"
    },
    {
      "constant": true,
      "inputs": [
        {
          "internalType": "uint256",
          "name": "proposalId",
          "type": "uint256"
        }
      ],
      "name": "getActions",
      "outputs": [
        {
          "internalType": "address[]",
          "name": "targets",
          "type": "address[]"
        },
        {
          "internalType": "uint256[]",
          "name": "values",
          "type": "uint256[]"
        },
        {
          "internalType": "string[]",
          "name": "signatures",
          "type": "string[]"
        },
        {
          "internalType": "bytes[]",
          "name": "calldatas",
          "type": "bytes[]"
        }
      ],
      "payable": false,
      "stateMutability": "view",
      "type": "function"
    },
    {
      "constant": true,
      "inputs": [
        {
          "internalType": "uint256",
          "name": "proposalId",
          "type": "uint256"
        },
        {
          "internalType": "address",
          "name": "voter",
          "type": "address"
        }
      ],
      "name": "getReceipt",
      "outputs": [
        {
          "components": [
            {
              "internalType": "bool",
              "name": "hasVoted",
              "type": "bool"
            },
            {
              "internalType": "bool",
              "name": "support",
              "type": "bool"
            },
            {
              "internalType": "uint96",
              "name": "votes",
              "type": "uint96"
            }
          ],
          "internalType": "struct GovernorAlpha.Receipt",
          "name": "",
          "type": "tuple"
        }
      ],
      "payable": false,
      "stateMutability": "view",
      "type": "function"
    },
    {
      "constant": true,
      "inputs": [],
      "name": "guardian",
      "outputs": [
        {
          "internalType": "address",
          "name": "",
          "type": "address"
        }
      ],
      "payable": false,
      "stateMutability": "view",
      "type": "function"
    },
    {
      "constant": true,
      "inputs": [
        {
          "internalType": "address",
          "name": "",
          "type": "address"
        }
      ],
      "name": "latestProposalIds",
      "outputs": [
        {
          "internalType": "uint256",
          "name": "",
          "type": "uint256"
        }
      ],
      "payable": false,
      "stateMutability": "view",
      "type": "function"
    },
    {
      "constant": true,
      "inputs": [],
      "name": "name",
      "outputs": [
        {
          "internalType": "string",
          "name": "",
          "type": "string"
        }
      ],
      "payable": false,
      "stateMutability": "view",
      "type": "function"
    },
    {
      "constant": true,
      "inputs": [],
      "name": "proposalCount",
      "outputs": [
        {
          "internalType": "uint256",
          "name": "",
          "type": "uint256"
        }
      ],
      "payable": false,
      "stateMutability": "view",
      "type": "function"
    },
    {
      "constant": true,
      "inputs": [],
      "name": "proposalMaxOperations",
      "outputs": [
        {
          "internalType": "uint256",
          "name": "",
          "type": "uint256"
        }
      ],
      "payable": false,
      "stateMutability": "pure",
      "type": "function"
    },
    {
      "constant": true,
      "inputs": [],
      "name": "proposalThreshold",
      "outputs": [
        {
          "internalType": "uint256",
          "name": "",
          "type": "uint256"
        }
      ],
      "payable": false,
      "stateMutability": "pure",
      "type": "function"
    },
    {
      "constant": true,
      "inputs": [
        {
          "internalType": "uint256",
          "name": "",
          "type": "uint256"
        }
      ],
      "name": "proposals",
      "outputs": [
        {
          "internalType": "uint256",
          "name": "id",
          "type": "uint256"
        },
        {
          "internalType": "address",
          "name": "proposer",
          "type": "address"
        },
        {
          "internalType": "uint256",
          "name": "eta",
          "type": "uint256"
        },
        {
          "internalType": "uint256",
          "name": "startBlock",
          "type": "uint256"
        },
        {
          "internalType": "uint256",
          "name": "endBlock",
          "type": "uint256"
        },
        {
          "internalType": "uint256",
          "name": "forVotes",
          "type": "uint256"
        },
        {
          "internalType": "uint256",
          "name": "againstVotes",
          "type": "uint256"
        },
        {
          "internalType": "bool",
          "name": "canceled",
          "type": "bool"
        },
        {
          "internalType": "bool",
          "name": "executed",
          "type": "bool"
        }
      ],
      "payable": false,
      "stateMutability": "view",
      "type": "function"
    },
    {
      "constant": false,
      "inputs": [
        {
          "internalType": "address[]",
          "name": "targets",
          "type": "address[]"
        },
        {
          "internalType": "uint256[]",
          "name": "values",
          "type": "uint256[]"
        },
        {
          "internalType": "string[]",
          "name": "signatures",
          "type": "string[]"
        },
        {
          "internalType": "bytes[]",
          "name": "calldatas",
          "type": "bytes[]"
        },
        {
          "internalType": "string",
          "name": "description",
          "type": "string"
        }
      ],
      "name": "propose",
      "outputs": [
        {
          "internalType": "uint256",
          "name": "",
          "type": "uint256"
        }
      ],
      "payable": false,
      "stateMutability": "nonpayable",
      "type": "function"
    },
    {
      "constant": false,
      "inputs": [
        {
          "internalType": "uint256",
          "name": "proposalId",
          "type": "uint256"
        }
      ],
      "name": "queue",
      "outputs": [],
      "payable": false,
      "stateMutability": "nonpayable",
      "type": "function"
    },
    {
      "constant": true,
      "inputs": [],
      "name": "quorumVotes",
      "outputs": [
        {
          "internalType": "uint256",
          "name": "",
          "type": "uint256"
        }
      ],
      "payable": false,
      "stateMutability": "pure",
      "type": "function"
    },
    {
      "constant": true,
      "inputs": [
        {
          "internalType": "uint256",
          "name": "proposalId",
          "type": "uint256"
        }
      ],
      "name": "state",
      "outputs": [
        {
          "internalType": "enum GovernorAlpha.ProposalState",
          "name": "",
          "type": "uint8"
        }
      ],
      "payable": false,
      "stateMutability": "view",
      "type": "function"
    },
    {
      "constant": true,
      "inputs": [],
      "name": "timelock",
      "outputs": [
        {
          "internalType": "contract TimelockInterface",
          "name": "",
          "type": "address"
        }
      ],
      "payable": false,
      "stateMutability": "view",
      "type": "function"
    },
    {
      "constant": true,
      "inputs": [],
      "name": "votingDelay",
      "outputs": [
        {
          "internalType": "uint256",
          "name": "",
          "type": "uint256"
        }
      ],
      "payable": false,
      "stateMutability": "pure",
      "type": "function"
    },
    {
      "constant": true,
      "inputs": [],
      "name": "votingPeriod",
      "outputs": [
        {
          "internalType": "uint256",
          "name": "",
          "type": "uint256"
        }
      ],
      "payable": false,
      "stateMutability": "pure",
      "type": "function"
    }
  ],
  "bytecode": "0x60806040523480156200001157600080fd5b50604051620039093803806200390983398101604081905262000034916200008a565b600080546001600160a01b039485166001600160a01b0319918216179091556001805493851693821693909317909255600280549190931691161790556200010a565b80516200008481620000f0565b92915050565b600080600060608486031215620000a057600080fd5b6000620000ae868662000077565b9350506020620000c18682870162000077565b9250506040620000d48682870162000077565b9150509250925092565b60006001600160a01b03821662000084565b620000fb81620000de565b81146200010757600080fd5b50565b6137ef806200011a6000396000f3fe60806040526004361061019c5760003560e01c8063452a9320116100ec578063d33219b41161008a578063ddf0b00911610064578063ddf0b0091461044e578063deaaa7cc1461046e578063e23a9a5214610483578063fe0d94c1146104b05761019c565b8063d33219b414610404578063da35c66414610419578063da95691a1461042e5761019c565b80637bdbe4d0116100c65780637bdbe4d0146101df57806391500671146103ba578063b58131b0146103da578063b9a61961146103ef5761019c565b8063452a9320146103635780634634c61f14610385578063760fbc13146103a55761019c565b806320606b7011610159578063328dd98211610133578063328dd982146102d15780633932abb1146103015780633e4f49e61461031657806340e58ee5146103435761019c565b806320606b701461028757806321f43e421461029c57806324bc1a64146102bc5761019c565b8063013cf08b146101a157806302a251a3146101df57806306fdde0314610201578063109d0af81461022357806315373e3d1461024557806317977c6114610267575b600080fd5b3480156101ad57600080fd5b506101c16101bc366004612435565b6104c3565b6040516101d69998979695949392919061359a565b60405180910390f35b3480156101eb57600080fd5b506101f461051c565b6040516101d691906132c7565b34801561020d57600080fd5b50610216610522565b6040516101d69190613383565b34801561022f57600080fd5b50610238610555565b6040516101d69190613367565b34801561025157600080fd5b50610265610260366004612483565b610564565b005b34801561027357600080fd5b506101f4610282366004612278565b610573565b34801561029357600080fd5b506101f4610585565b3480156102a857600080fd5b506102656102b736600461229e565b61059c565b3480156102c857600080fd5b506101f4610683565b3480156102dd57600080fd5b506102f16102ec366004612435565b610691565b6040516101d6949392919061327a565b34801561030d57600080fd5b506101f4610920565b34801561032257600080fd5b50610336610331366004612435565b610925565b6040516101d69190613375565b34801561034f57600080fd5b5061026561035e366004612435565b610aa7565b34801561036f57600080fd5b50610378610d10565b6040516101d69190613124565b34801561039157600080fd5b506102656103a03660046124b3565b610d1f565b3480156103b157600080fd5b50610265610eb6565b3480156103c657600080fd5b506102656103d536600461229e565b610ef2565b3480156103e657600080fd5b506101f4610fc7565b3480156103fb57600080fd5b50610265610fd5565b34801561041057600080fd5b5061023861105a565b34801561042557600080fd5b506101f4611069565b34801561043a57600080fd5b506101f46104493660046122d8565b61106f565b34801561045a57600080fd5b50610265610469366004612435565b611498565b34801561047a57600080fd5b506101f4611702565b34801561048f57600080fd5b506104a361049e366004612453565b61170e565b6040516101d691906134e4565b6102656104be366004612435565b61177d565b6004602052600090815260409020805460018201546002830154600784015460088501546009860154600a870154600b9097015495966001600160a01b0390951695939492939192909160ff8082169161010090041689565b600a5b90565b60405180604001604052806017815260200176436f6d706f756e6420476f7665726e6f7220416c70686160481b81525081565b6001546001600160a01b031681565b61056f338383611942565b5050565b60056020526000908152604090205481565b6040516105919061310e565b604051809103902081565b6002546001600160a01b031633146105cf5760405162461bcd60e51b81526004016105c6906133c4565b60405180910390fd5b600080546040516001600160a01b0390911691630825f38f918391906105f9908790602001613124565b604051602081830303815290604052856040518563ffffffff1660e01b8152600401610628949392919061314d565b600060405180830381600087803b15801561064257600080fd5b505af1158015610656573d6000803e3d6000fd5b505050506040513d6000823e601f3d908101601f1916820160405261067e9190810190612400565b505050565b6954b40b1f852bda00000090565b6060806060806000600460008781526020019081526020016000209050806003018160040182600501836006018380548060200260200160405190810160405280929190818152602001828054801561071357602002820191906000526020600020905b81546001600160a01b031681526001909101906020018083116106f5575b505050505093508280548060200260200160405190810160405280929190818152602001828054801561076557602002820191906000526020600020905b815481526020019060010190808311610751575b5050505050925081805480602002602001604051908101604052809291908181526020016000905b828210156108385760008481526020908190208301805460408051601f60026000196101006001871615020190941693909304928301859004850281018501909152818152928301828280156108245780601f106107f957610100808354040283529160200191610824565b820191906000526020600020905b81548152906001019060200180831161080757829003601f168201915b50505050508152602001906001019061078d565b50505050915080805480602002602001604051908101604052809291908181526020016000905b8282101561090a5760008481526020908190208301805460408051601f60026000196101006001871615020190941693909304928301859004850281018501909152818152928301828280156108f65780601f106108cb576101008083540402835291602001916108f6565b820191906000526020600020905b8154815290600101906020018083116108d957829003601f168201915b50505050508152602001906001019061085f565b5050505090509450945094509450509193509193565b600190565b600081600354101580156109395750600082115b6109555760405162461bcd60e51b81526004016105c6906133d4565b6000828152600460205260409020600b81015460ff161561097a576002915050610aa2565b8060070154431161098f576000915050610aa2565b806008015443116109a4576001915050610aa2565b80600a015481600901541115806109c557506109be610683565b8160090154105b156109d4576003915050610aa2565b60028101546109e7576004915050610aa2565b600b810154610100900460ff1615610a03576007915050610aa2565b6002810154600054604080516360d143f160e11b81529051610a8c93926001600160a01b03169163c1a287e2916004808301926020929190829003018186803b158015610a4f57600080fd5b505afa158015610a63573d6000803e3d6000fd5b505050506040513d601f19601f82011682018060405250610a8791908101906123e2565b611b0b565b4210610a9c576006915050610aa2565b60059150505b919050565b6000610ab282610925565b90506007816007811115610ac257fe5b1415610ae05760405162461bcd60e51b81526004016105c6906134a4565b60008281526004602052604090206002546001600160a01b0316331480610bab5750610b0a610fc7565b60018054838201546001600160a01b039182169263782d6fe19290911690610b33904390611b37565b6040518363ffffffff1660e01b8152600401610b5092919061319c565b60206040518083038186803b158015610b6857600080fd5b505afa158015610b7c573d6000803e3d6000fd5b505050506040513d601f19601f82011682018060405250610ba0919081019061251b565b6001600160601b0316105b610bc75760405162461bcd60e51b81526004016105c690613444565b600b8101805460ff1916600117905560005b6003820154811015610cd3576000546003830180546001600160a01b039092169163591fcdfe919084908110610c0b57fe5b6000918252602090912001546004850180546001600160a01b039092169185908110610c3357fe5b9060005260206000200154856005018581548110610c4d57fe5b90600052602060002001866006018681548110610c6657fe5b9060005260206000200187600201546040518663ffffffff1660e01b8152600401610c95959493929190613239565b600060405180830381600087803b158015610caf57600080fd5b505af1158015610cc3573d6000803e3d6000fd5b505060019092019150610bd99050565b507f789cf55be980739dad1d0699b93b58e806b51c9d96619bfa8fe0a28abaa7b30c83604051610d0391906132c7565b60405180910390a1505050565b6002546001600160a01b031681565b6000604051610d2d9061310e565b604080519182900382208282019091526017825276436f6d706f756e6420476f7665726e6f7220416c70686160481b6020909201919091527ff5eb22c2e7100465020c98b00537528808db4fec6eb24c550685a92742247bc5610d8e611b5f565b30604051602001610da294939291906132d5565b6040516020818303038152906040528051906020012090506000604051610dc890613119565b604051908190038120610de1918990899060200161330a565b60405160208183030381529060405280519060200120905060008282604051602001610e0e9291906130dd565b604051602081830303815290604052805190602001209050600060018288888860405160008152602001604052604051610e4b9493929190613332565b6020604051602081039080840390855afa158015610e6d573d6000803e3d6000fd5b5050604051601f1901519150506001600160a01b038116610ea05760405162461bcd60e51b81526004016105c690613484565b610eab818a8a611942565b505050505050505050565b6002546001600160a01b03163314610ee05760405162461bcd60e51b81526004016105c6906134d4565b600280546001600160a01b0319169055565b6002546001600160a01b03163314610f1c5760405162461bcd60e51b81526004016105c690613404565b600080546040516001600160a01b0390911691633a66f90191839190610f46908790602001613124565b604051602081830303815290604052856040518563ffffffff1660e01b8152600401610f75949392919061314d565b602060405180830381600087803b158015610f8f57600080fd5b505af1158015610fa3573d6000803e3d6000fd5b505050506040513d601f19601f8201168201806040525061067e91908101906123e2565b69152d02c7e14af680000090565b6002546001600160a01b03163314610fff5760405162461bcd60e51b81526004016105c690613394565b6000805460408051630e18b68160e01b815290516001600160a01b0390921692630e18b6819260048084019382900301818387803b15801561104057600080fd5b505af1158015611054573d6000803e3d6000fd5b50505050565b6000546001600160a01b031681565b60035481565b6001805460009182916001600160a01b03169063782d6fe1903390611095904390611b37565b6040518363ffffffff1660e01b81526004016110b2929190613132565b60206040518083038186803b1580156110ca57600080fd5b505afa1580156110de573d6000803e3d6000fd5b505050506040513d601f19601f82011682018060405250611102919081019061251b565b905061110c610fc7565b816001600160601b0316116111335760405162461bcd60e51b81526004016105c690613474565b85518751148015611145575084518751145b8015611152575083518751145b61116e5760405162461bcd60e51b81526004016105c690613434565b865161118c5760405162461bcd60e51b81526004016105c690613464565b61119461051c565b875111156111b45760405162461bcd60e51b81526004016105c690613414565b3360009081526005602052604090205480156112315760006111d582610925565b905060018160078111156111e557fe5b14156112035760405162461bcd60e51b81526004016105c690613494565b600081600781111561121157fe5b141561122f5760405162461bcd60e51b81526004016105c6906133f4565b505b600061123f43610a87610920565b9050600061124f82610a8761051c565b6003805460010190559050611262611cc2565b604051806101a001604052806003548152602001336001600160a01b03168152602001600081526020018c81526020018b81526020018a815260200189815260200184815260200183815260200160008152602001600081526020016000151581526020016000151581525090508060046000836000015181526020019081526020016000206000820151816000015560208201518160010160006101000a8154816001600160a01b0302191690836001600160a01b03160217905550604082015181600201556060820151816003019080519060200190611345929190611d37565b5060808201518051611361916004840191602090910190611d9c565b5060a0820151805161137d916005840191602090910190611de3565b5060c08201518051611399916006840191602090910190611e3c565b5060e082015181600701556101008201518160080155610120820151816009015561014082015181600a015561016082015181600b0160006101000a81548160ff02191690831515021790555061018082015181600b0160016101000a81548160ff02191690831515021790555090505080600001516005600083602001516001600160a01b03166001600160a01b03168152602001908152602001600020819055507f7d84a6263ae0d98d3329bd7b46bb4e8d6f98cd35a7adb45c274c8b7fd5ebd5e08160000151338d8d8d8d89898f60405161147f999897969594939291906134f2565b60405180910390a1519450505050505b95945050505050565b60046114a382610925565b60078111156114ae57fe5b146114cb5760405162461bcd60e51b81526004016105c6906133a4565b600081815260046020818152604080842084548251630d48571f60e31b815292519195946115209442946001600160a01b0390931693636a42b8f8938084019390829003018186803b158015610a4f57600080fd5b905060005b60038301548110156116c8576116c083600301828154811061154357fe5b6000918252602090912001546004850180546001600160a01b03909216918490811061156b57fe5b906000526020600020015485600501848154811061158557fe5b600091825260209182902001805460408051601f60026000196101006001871615020190941693909304928301859004850281018501909152818152928301828280156116135780601f106115e857610100808354040283529160200191611613565b820191906000526020600020905b8154815290600101906020018083116115f657829003601f168201915b505050505086600601858154811061162757fe5b600091825260209182902001805460408051601f60026000196101006001871615020190941693909304928301859004850281018501909152818152928301828280156116b55780601f1061168a576101008083540402835291602001916116b5565b820191906000526020600020905b81548152906001019060200180831161169857829003601f168201915b505050505086611b63565b600101611525565b50600282018190556040517f9a2e42fd6722813d69113e7d0079d3d940171428df7373df9c7f7617cfda289290610d039085908490613620565b60405161059190613119565b611716611e95565b5060008281526004602090815260408083206001600160a01b0385168452600c018252918290208251606081018452905460ff80821615158352610100820416151592820192909252620100009091046001600160601b0316918101919091525b92915050565b600561178882610925565b600781111561179357fe5b146117b05760405162461bcd60e51b81526004016105c6906133b4565b6000818152600460205260408120600b8101805461ff001916610100179055905b6003820154811015611906576000546004830180546001600160a01b0390921691630825f38f91908490811061180357fe5b906000526020600020015484600301848154811061181d57fe5b6000918252602090912001546004860180546001600160a01b03909216918690811061184557fe5b906000526020600020015486600501868154811061185f57fe5b9060005260206000200187600601878154811061187857fe5b9060005260206000200188600201546040518763ffffffff1660e01b81526004016118a7959493929190613239565b6000604051808303818588803b1580156118c057600080fd5b505af11580156118d4573d6000803e3d6000fd5b50505050506040513d6000823e601f3d908101601f191682016040526118fd9190810190612400565b506001016117d1565b507f712ae1383f79ac853f8d882153778e0260ef8f03b504e2866e0593e04d2b291f8260405161193691906132c7565b60405180910390a15050565b600161194d83610925565b600781111561195857fe5b146119755760405162461bcd60e51b81526004016105c6906134b4565b60008281526004602090815260408083206001600160a01b0387168452600c8101909252909120805460ff16156119be5760405162461bcd60e51b81526004016105c6906133e4565b600154600783015460405163782d6fe160e01b81526000926001600160a01b03169163782d6fe1916119f4918a9160040161319c565b60206040518083038186803b158015611a0c57600080fd5b505afa158015611a20573d6000803e3d6000fd5b505050506040513d601f19601f82011682018060405250611a44919081019061251b565b90508315611a6d57611a638360090154826001600160601b0316611b0b565b6009840155611a8a565b611a8483600a0154826001600160601b0316611b0b565b600a8401555b8154600160ff199091161761ff00191661010085151502176dffffffffffffffffffffffff00001916620100006001600160601b038316021782556040517f877856338e13f63d0c36822ff0ef736b80934cd90574a3a5bc9262c39d217c4690611afb9088908890889086906131aa565b60405180910390a1505050505050565b600082820183811015611b305760405162461bcd60e51b81526004016105c690613424565b9392505050565b600082821115611b595760405162461bcd60e51b81526004016105c6906134c4565b50900390565b4690565b6000546040516001600160a01b039091169063f2b0653790611b9190889088908890889088906020016131df565b604051602081830303815290604052805190602001206040518263ffffffff1660e01b8152600401611bc391906132c7565b60206040518083038186803b158015611bdb57600080fd5b505afa158015611bef573d6000803e3d6000fd5b505050506040513d601f19601f82011682018060405250611c1391908101906123c4565b15611c305760405162461bcd60e51b81526004016105c690613454565b600054604051633a66f90160e01b81526001600160a01b0390911690633a66f90190611c6890889088908890889088906004016131df565b602060405180830381600087803b158015611c8257600080fd5b505af1158015611c96573d6000803e3d6000fd5b505050506040513d601f19601f82011682018060405250611cba91908101906123e2565b505050505050565b604051806101a001604052806000815260200160006001600160a01b031681526020016000815260200160608152602001606081526020016060815260200160608152602001600081526020016000815260200160008152602001600081526020016000151581526020016000151581525090565b828054828255906000526020600020908101928215611d8c579160200282015b82811115611d8c57825182546001600160a01b0319166001600160a01b03909116178255602090920191600190910190611d57565b50611d98929150611eb5565b5090565b828054828255906000526020600020908101928215611dd7579160200282015b82811115611dd7578251825591602001919060010190611dbc565b50611d98929150611ed9565b828054828255906000526020600020908101928215611e30579160200282015b82811115611e305782518051611e20918491602090910190611ef3565b5091602001919060010190611e03565b50611d98929150611f60565b828054828255906000526020600020908101928215611e89579160200282015b82811115611e895782518051611e79918491602090910190611ef3565b5091602001919060010190611e5c565b50611d98929150611f83565b604080516060810182526000808252602082018190529181019190915290565b61051f91905b80821115611d985780546001600160a01b0319168155600101611ebb565b61051f91905b80821115611d985760008155600101611edf565b828054600181600116156101000203166002900490600052602060002090601f016020900481019282601f10611f3457805160ff1916838001178555611dd7565b82800160010185558215611dd75791820182811115611dd7578251825591602001919060010190611dbc565b61051f91905b80821115611d98576000611f7a8282611fa6565b50600101611f66565b61051f91905b80821115611d98576000611f9d8282611fa6565b50600101611f89565b50805460018160011615610100020316600290046000825580601f10611fcc5750611fea565b601f016020900490600052602060002090810190611fea9190611ed9565b50565b803561177781613774565b600082601f83011261200957600080fd5b813561201c61201782613655565b61362e565b9150818183526020840193506020810190508385602084028201111561204157600080fd5b60005b8381101561206d57816120578882611fed565b8452506020928301929190910190600101612044565b5050505092915050565b600082601f83011261208857600080fd5b813561209661201782613655565b81815260209384019390925082018360005b8381101561206d57813586016120be88826121cd565b84525060209283019291909101906001016120a8565b600082601f8301126120e557600080fd5b81356120f361201782613655565b81815260209384019390925082018360005b8381101561206d578135860161211b88826121cd565b8452506020928301929190910190600101612105565b600082601f83011261214257600080fd5b813561215061201782613655565b9150818183526020840193506020810190508385602084028201111561217557600080fd5b60005b8381101561206d578161218b88826121b7565b8452506020928301929190910190600101612178565b803561177781613788565b805161177781613788565b803561177781613791565b805161177781613791565b600082601f8301126121de57600080fd5b81356121ec61201782613676565b9150808252602083016020830185838301111561220857600080fd5b612213838284613728565b50505092915050565b600082601f83011261222d57600080fd5b815161223b61201782613676565b9150808252602083016020830185838301111561225757600080fd5b612213838284613734565b80356117778161379a565b8051611777816137a3565b60006020828403121561228a57600080fd5b60006122968484611fed565b949350505050565b600080604083850312156122b157600080fd5b60006122bd8585611fed565b92505060206122ce858286016121b7565b9150509250929050565b600080600080600060a086880312156122f057600080fd5b853567ffffffffffffffff81111561230757600080fd5b61231388828901611ff8565b955050602086013567ffffffffffffffff81111561233057600080fd5b61233c88828901612131565b945050604086013567ffffffffffffffff81111561235957600080fd5b612365888289016120d4565b935050606086013567ffffffffffffffff81111561238257600080fd5b61238e88828901612077565b925050608086013567ffffffffffffffff8111156123ab57600080fd5b6123b7888289016121cd565b9150509295509295909350565b6000602082840312156123d657600080fd5b600061229684846121ac565b6000602082840312156123f457600080fd5b600061229684846121c2565b60006020828403121561241257600080fd5b815167ffffffffffffffff81111561242957600080fd5b6122968482850161221c565b60006020828403121561244757600080fd5b600061229684846121b7565b6000806040838503121561246657600080fd5b600061247285856121b7565b92505060206122ce85828601611fed565b6000806040838503121561249657600080fd5b60006124a285856121b7565b92505060206122ce858286016121a1565b600080600080600060a086880312156124cb57600080fd5b60006124d788886121b7565b95505060206124e8888289016121a1565b94505060406124f988828901612262565b935050606061250a888289016121b7565b92505060806123b7888289016121b7565b60006020828403121561252d57600080fd5b6000612296848461226d565b60006125458383612574565b505060200190565b6000611b308383612716565b600061254583836126fc565b61256e816136f5565b82525050565b61256e816136bd565b6000612588826136b0565b61259281856136b4565b935061259d8361369e565b8060005b838110156125cb5781516125b58882612539565b97506125c08361369e565b9250506001016125a1565b509495945050505050565b60006125e1826136b0565b6125eb81856136b4565b9350836020820285016125fd8561369e565b8060005b85811015612637578484038952815161261a858261254d565b94506126258361369e565b60209a909a0199925050600101612601565b5091979650505050505050565b600061264f826136b0565b61265981856136b4565b93508360208202850161266b8561369e565b8060005b858110156126375784840389528151612688858261254d565b94506126938361369e565b60209a909a019992505060010161266f565b60006126b0826136b0565b6126ba81856136b4565b93506126c58361369e565b8060005b838110156125cb5781516126dd8882612559565b97506126e88361369e565b9250506001016126c9565b61256e816136c8565b61256e8161051f565b61256e6127118261051f565b61051f565b6000612721826136b0565b61272b81856136b4565b935061273b818560208601613734565b61274481613760565b9093019392505050565b60008154600181166000811461276b5760018114612791576127d0565b607f600283041661277c81876136b4565b60ff19841681529550506020850192506127d0565b6002820461279f81876136b4565b95506127aa856136a4565b60005b828110156127c9578154888201526001909101906020016127ad565b8701945050505b505092915050565b61256e816136fc565b61256e81613707565b61256e81613712565b60006128006039836136b4565b7f476f7665726e6f72416c7068613a3a5f5f61636365707441646d696e3a20736581527f6e646572206d75737420626520676f7620677561726469616e00000000000000602082015260400192915050565b600061285f6044836136b4565b7f476f7665726e6f72416c7068613a3a71756575653a2070726f706f73616c206381527f616e206f6e6c79206265207175657565642069662069742069732073756363656020820152631959195960e21b604082015260600192915050565b60006128cb6045836136b4565b7f476f7665726e6f72416c7068613a3a657865637574653a2070726f706f73616c81527f2063616e206f6e6c7920626520657865637574656420696620697420697320716020820152641d595d595960da1b604082015260600192915050565b6000612938600283610aa2565b61190160f01b815260020192915050565b6000612956604c836136b4565b7f476f7665726e6f72416c7068613a3a5f5f6578656375746553657454696d656c81527f6f636b50656e64696e6741646d696e3a2073656e646572206d7573742062652060208201526b33b7bb1033bab0b93234b0b760a11b604082015260600192915050565b60006129ca6018836136b4565b7f73657450656e64696e6741646d696e2861646472657373290000000000000000815260200192915050565b6000612a036029836136b4565b7f476f7665726e6f72416c7068613a3a73746174653a20696e76616c69642070728152681bdc1bdcd85b081a5960ba1b602082015260400192915050565b6000612a4e602d836136b4565b7f476f7665726e6f72416c7068613a3a5f63617374566f74653a20766f7465722081526c185b1c9958591e481d9bdd1959609a1b602082015260400192915050565b6000612a9d6059836136b4565b7f476f7665726e6f72416c7068613a3a70726f706f73653a206f6e65206c69766581527f2070726f706f73616c207065722070726f706f7365722c20666f756e6420616e60208201527f20616c72656164792070656e64696e672070726f706f73616c00000000000000604082015260600192915050565b6000612b22604a836136b4565b7f476f7665726e6f72416c7068613a3a5f5f717565756553657454696d656c6f6381527f6b50656e64696e6741646d696e3a2073656e646572206d75737420626520676f6020820152693b1033bab0b93234b0b760b11b604082015260600192915050565b6000612b946028836136b4565b7f476f7665726e6f72416c7068613a3a70726f706f73653a20746f6f206d616e7981526720616374696f6e7360c01b602082015260400192915050565b6000612bde6011836136b4565b706164646974696f6e206f766572666c6f7760781b815260200192915050565b6000612c0b604383610aa2565b7f454950373132446f6d61696e28737472696e67206e616d652c75696e7432353681527f20636861696e49642c6164647265737320766572696679696e67436f6e74726160208201526263742960e81b604082015260430192915050565b6000612c76602783610aa2565b7f42616c6c6f742875696e743235362070726f706f73616c49642c626f6f6c20738152667570706f72742960c81b602082015260270192915050565b6000612cbf6044836136b4565b7f476f7665726e6f72416c7068613a3a70726f706f73653a2070726f706f73616c81527f2066756e6374696f6e20696e666f726d6174696f6e206172697479206d69736d6020820152630c2e8c6d60e31b604082015260600192915050565b6000612d2b602f836136b4565b7f476f7665726e6f72416c7068613a3a63616e63656c3a2070726f706f7365722081526e18589bdd99481d1a1c995cda1bdb19608a1b602082015260400192915050565b6000612d7c6044836136b4565b7f476f7665726e6f72416c7068613a3a5f71756575654f725265766572743a207081527f726f706f73616c20616374696f6e20616c7265616479207175657565642061746020820152632065746160e01b604082015260600192915050565b6000612de8602c836136b4565b7f476f7665726e6f72416c7068613a3a70726f706f73653a206d7573742070726f81526b7669646520616374696f6e7360a01b602082015260400192915050565b6000612e36603f836136b4565b7f476f7665726e6f72416c7068613a3a70726f706f73653a2070726f706f73657281527f20766f7465732062656c6f772070726f706f73616c207468726573686f6c6400602082015260400192915050565b6000612e95602f836136b4565b7f476f7665726e6f72416c7068613a3a63617374566f746542795369673a20696e81526e76616c6964207369676e617475726560881b602082015260400192915050565b6000612ee66058836136b4565b7f476f7665726e6f72416c7068613a3a70726f706f73653a206f6e65206c69766581527f2070726f706f73616c207065722070726f706f7365722c20666f756e6420616e60208201527f20616c7265616479206163746976652070726f706f73616c0000000000000000604082015260600192915050565b6000612f6b6036836136b4565b7f476f7665726e6f72416c7068613a3a63616e63656c3a2063616e6e6f742063618152751b98d95b08195e1958dd5d1959081c1c9bdc1bdcd85b60521b602082015260400192915050565b6000612fc3602a836136b4565b7f476f7665726e6f72416c7068613a3a5f63617374566f74653a20766f74696e67815269081a5cc818db1bdcd95960b21b602082015260400192915050565b600061300f6015836136b4565b747375627472616374696f6e20756e646572666c6f7760581b815260200192915050565b60006130406036836136b4565b7f476f7665726e6f72416c7068613a3a5f5f61626469636174653a2073656e6465815275391036bab9ba1031329033b7bb1033bab0b93234b0b760511b602082015260400192915050565b8051606083019061309c84826126f3565b5060208201516130af60208501826126f3565b50604082015161105460408501826130d4565b61256e816136e3565b61256e8161371d565b61256e816136e9565b60006130e88261292b565b91506130f48285612705565b6020820191506131048284612705565b5060200192915050565b600061177782612bfe565b600061177782612c69565b602081016117778284612574565b604081016131408285612565565b611b3060208301846126fc565b60a0810161315b8287612574565b61316860208301866127ea565b8181036040830152613179816129bd565b9050818103606083015261318d8185612716565b905061148f60808301846126fc565b604081016131408285612574565b608081016131b88287612574565b6131c560208301866126fc565b6131d260408301856126f3565b61148f60608301846130cb565b60a081016131ed8288612574565b6131fa60208301876126fc565b818103604083015261320c8186612716565b905081810360608301526132208185612716565b905061322f60808301846126fc565b9695505050505050565b60a081016132478288612574565b61325460208301876126fc565b8181036040830152613266818661274e565b90508181036060830152613220818561274e565b6080808252810161328b818761257d565b9050818103602083015261329f81866126a5565b905081810360408301526132b38185612644565b9050818103606083015261322f81846125d6565b6020810161177782846126fc565b608081016132e382876126fc565b6132f060208301866126fc565b6132fd60408301856126fc565b61148f6060830184612574565b6060810161331882866126fc565b61332560208301856126fc565b61229660408301846126f3565b6080810161334082876126fc565b61334d60208301866130c2565b61335a60408301856126fc565b61148f60608301846126fc565b6020810161177782846127d8565b6020810161177782846127e1565b60208082528101611b308184612716565b60208082528101611777816127f3565b6020808252810161177781612852565b60208082528101611777816128be565b6020808252810161177781612949565b60208082528101611777816129f6565b6020808252810161177781612a41565b6020808252810161177781612a90565b6020808252810161177781612b15565b6020808252810161177781612b87565b6020808252810161177781612bd1565b6020808252810161177781612cb2565b6020808252810161177781612d1e565b6020808252810161177781612d6f565b6020808252810161177781612ddb565b6020808252810161177781612e29565b6020808252810161177781612e88565b6020808252810161177781612ed9565b6020808252810161177781612f5e565b6020808252810161177781612fb6565b6020808252810161177781613002565b6020808252810161177781613033565b60608101611777828461308b565b6101208101613501828c6126fc565b61350e602083018b612565565b8181036040830152613520818a61257d565b9050818103606083015261353481896126a5565b905081810360808301526135488188612644565b905081810360a083015261355c81876125d6565b905061356b60c08301866126fc565b61357860e08301856126fc565b81810361010083015261358b8184612716565b9b9a5050505050505050505050565b61012081016135a9828c6126fc565b6135b6602083018b612574565b6135c3604083018a6126fc565b6135d060608301896126fc565b6135dd60808301886126fc565b6135ea60a08301876126fc565b6135f760c08301866126fc565b61360460e08301856126f3565b6136126101008301846126f3565b9a9950505050505050505050565b6040810161314082856126fc565b60405181810167ffffffffffffffff8111828210171561364d57600080fd5b604052919050565b600067ffffffffffffffff82111561366c57600080fd5b5060209081020190565b600067ffffffffffffffff82111561368d57600080fd5b506020601f91909101601f19160190565b60200190565b60009081526020902090565b5190565b90815260200190565b6000611777826136d7565b151590565b80610aa28161376a565b6001600160a01b031690565b60ff1690565b6001600160601b031690565b6000611777825b6000611777826136bd565b6000611777826136cd565b60006117778261051f565b6000611777826136e9565b82818337506000910152565b60005b8381101561374f578181015183820152602001613737565b838111156110545750506000910152565b601f01601f191690565b60088110611fea57fe5b61377d816136bd565b8114611fea57600080fd5b61377d816136c8565b61377d8161051f565b61377d816136e3565b61377d816136e956fea365627a7a723158203b0927a8b9a76f36ccb79f9e576bbee9cdcc9622922d6531576c3804f230e98b6c6578706572696d656e74616cf564736f6c63430005100040",
  "linkReferences": {},
  "deployedLinkReferences": {}
}