{
  "_format": "hh-sol-artifact-1",
  "contractName": "Mock",
  "sourceName": "contracts/Mock.sol",
  "abi": [
    {
      "inputs": [],
      "stateMutability": "nonpayable",
      "type": "constructor"
    },
    {
      "inputs": [],
      "name": "checkInteraction",
      "outputs": [
        {
          "internalType": "bool",
          "name": "",
          "type": "bool"
        }
      ],
      "stateMutability": "view",
      "type": "function"
    },
    {
      "inputs": [
        {
          "internalType": "string",
          "name": "_key",
          "type": "string"
        }
      ],
      "name": "checkKey",
      "outputs": [
        {
          "internalType": "bool",
          "name": "",
          "type": "bool"
        }
      ],
      "stateMutability": "view",
      "type": "function"
    },
    {
      "inputs": [
        {
          "internalType": "string",
          "name": "_proof",
          "type": "string"
        }
      ],
      "name": "checkProof",
      "outputs": [
        {
          "internalType": "bool",
          "name": "",
          "type": "bool"
        }
      ],
      "stateMutability": "pure",
      "type": "function"
    },
    {
      "inputs": [
        {
          "internalType": "string",
          "name": "_proof",
          "type": "string"
        }
      ],
      "name": "claim",
      "outputs": [],
      "stateMutability": "nonpayable",
      "type": "function"
    },
    {
      "inputs": [
        {
          "internalType": "string",
          "name": "_proof",
          "type": "string"
        },
        {
          "internalType": "string",
          "name": "_key",
          "type": "string"
        },
        {
          "internalType": "address",
          "name": "_delegatee",
          "type": "address"
        }
      ],
      "name": "claimV2",
      "outputs": [],
      "stateMutability": "nonpayable",
      "type": "function"
    },
    {
      "inputs": [],
      "name": "delegatee",
      "outputs": [
        {
          "internalType": "address",
          "name": "",
          "type": "address"
        }
      ],
      "stateMutability": "view",
      "type": "function"
    },
    {
      "inputs": [
        {
          "internalType": "string",
          "name": "",
          "type": "string"
        }
      ],
      "name": "githubKeys",
      "outputs": [
        {
          "internalType": "bool",
          "name": "",
          "type": "bool"
        }
      ],
      "stateMutability": "view",
      "type": "function"
    },
    {
      "inputs": [
        {
          "internalType": "address",
          "name": "",
          "type": "address"
        }
      ],
      "name": "interactions",
      "outputs": [
        {
          "internalType": "bool",
          "name": "",
          "type": "bool"
        }
      ],
      "stateMutability": "view",
      "type": "function"
    },
    {
      "inputs": [],
      "name": "key",
      "outputs": [
        {
          "internalType": "string",
          "name": "",
          "type": "string"
        }
      ],
      "stateMutability": "view",
      "type": "function"
    },
    {
      "inputs": [],
      "name": "proof",
      "outputs": [
        {
          "internalType": "string",
          "name": "",
          "type": "string"
        }
      ],
      "stateMutability": "view",
      "type": "function"
    },
    {
      "inputs": [],
      "name": "setInteraction",
      "outputs": [],
      "stateMutability": "nonpayable",
      "type": "function"
    },
    {
      "inputs": [
        {
          "internalType": "string",
          "name": "_key",
          "type": "string"
        }
      ],
      "name": "setKey",
      "outputs": [],
      "stateMutability": "nonpayable",
      "type": "function"
    }
  ],
  "bytecode": "0x60806040523480156200001157600080fd5b506200005d6040518060400160405280600e81526020017f4465706c6f79696e67204d6f636b0000000000000000000000000000000000008152506200009a60201b6200068b1760201c565b600160006040516200006f90620001ce565b908152602001604051809103902060006101000a81548160ff021916908315150217905550620002a0565b6200013a81604051602401620000b19190620001e5565b6040516020818303038152906040527f41304fac000000000000000000000000000000000000000000000000000000007bffffffffffffffffffffffffffffffffffffffffffffffffffffffff19166020820180517bffffffffffffffffffffffffffffffffffffffffffffffffffffffff83818316178352505050506200013d60201b60201c565b50565b60008151905060006a636f6e736f6c652e6c6f679050602083016000808483855afa5050505050565b6000620001738262000209565b6200017f818562000214565b93506200019181856020860162000230565b6200019c8162000266565b840191505092915050565b6000620001b660048362000225565b9150620001c38262000277565b600482019050919050565b6000620001db82620001a7565b9150819050919050565b6000602082019050818103600083015262000201818462000166565b905092915050565b600081519050919050565b600082825260208201905092915050565b600081905092915050565b60005b838110156200025057808201518184015260208101905062000233565b8381111562000260576000848401525b50505050565b6000601f19601f8301169050919050565b7f7465737400000000000000000000000000000000000000000000000000000000600082015250565b610cc280620002b06000396000f3fe608060405234801561001057600080fd5b50600436106100b45760003560e01c806382fb48771161007157806382fb4877146101a3578063af42d106146101ad578063da7d6b4a146101c9578063e4c9473e146101f9578063f3fe12c914610215578063faf924cf14610231576100b4565b806308a6f252146100b95780631e31d053146100e95780632287f46d146101075780633943380c146101375780634923100e146101555780637c815aab14610185575b600080fd5b6100d360048036038101906100ce91906108c6565b61024f565b6040516100e09190610a69565b60405180910390f35b6100f161026f565b6040516100fe9190610a4e565b60405180910390f35b610121600480360381019061011c91906108ef565b610295565b60405161012e9190610a69565b60405180910390f35b61013f6102cb565b60405161014c9190610a84565b60405180910390f35b61016f600480360381019061016a91906108ef565b610359565b60405161017c9190610a69565b60405180910390f35b61018d61038d565b60405161019a9190610a69565b60405180910390f35b6101ab6103e1565b005b6101c760048036038101906101c291906108ef565b61043a565b005b6101e360048036038101906101de91906108ef565b610474565b6040516101f09190610a69565b60405180910390f35b610213600480360381019061020e9190610930565b6104c1565b005b61022f600480360381019061022a91906108ef565b61058c565b005b6102396105fd565b6040516102469190610a84565b60405180910390f35b60016020528060005260406000206000915054906101000a900460ff1681565b600460009054906101000a900473ffffffffffffffffffffffffffffffffffffffff1681565b6000818051602081018201805184825260208301602085012081835280955050505050506000915054906101000a900460ff1681565b600380546102d890610ba3565b80601f016020809104026020016040519081016040528092919081815260200182805461030490610ba3565b80156103515780601f1061032657610100808354040283529160200191610351565b820191906000526020600020905b81548152906001019060200180831161033457829003601f168201915b505050505081565b6000808260405161036a9190610a37565b908152602001604051809103902060009054906101000a900460ff169050919050565b6000600160003373ffffffffffffffffffffffffffffffffffffffff1673ffffffffffffffffffffffffffffffffffffffff16815260200190815260200160002060009054906101000a900460ff16905090565b60018060003373ffffffffffffffffffffffffffffffffffffffff1673ffffffffffffffffffffffffffffffffffffffff16815260200190815260200160002060006101000a81548160ff021916908315150217905550565b600160008260405161044c9190610a37565b908152602001604051809103902060006101000a81548160ff02191690831515021790555050565b6000806104b6836040518060400160405280600581526020017f70726f6f66000000000000000000000000000000000000000000000000000000815250610724565b905080915050919050565b82600290805190602001906104d79291906107a6565b5081600390805190602001906104ee9291906107a6565b5080600460006101000a81548173ffffffffffffffffffffffffffffffffffffffff021916908373ffffffffffffffffffffffffffffffffffffffff16021790555060018060003373ffffffffffffffffffffffffffffffffffffffff1673ffffffffffffffffffffffffffffffffffffffff16815260200190815260200160002060006101000a81548160ff021916908315150217905550505050565b80600290805190602001906105a29291906107a6565b5060018060003373ffffffffffffffffffffffffffffffffffffffff1673ffffffffffffffffffffffffffffffffffffffff16815260200190815260200160002060006101000a81548160ff02191690831515021790555050565b6002805461060a90610ba3565b80601f016020809104026020016040519081016040528092919081815260200182805461063690610ba3565b80156106835780601f1061065857610100808354040283529160200191610683565b820191906000526020600020905b81548152906001019060200180831161066657829003601f168201915b505050505081565b6107218160405160240161069f9190610a84565b6040516020818303038152906040527f41304fac000000000000000000000000000000000000000000000000000000007bffffffffffffffffffffffffffffffffffffffffffffffffffffffff19166020820180517bffffffffffffffffffffffffffffffffffffffffffffffffffffffff838183161783525050505061077d565b50565b6000816040516020016107379190610a37565b604051602081830303815290604052805190602001208360405160200161075e9190610a37565b6040516020818303038152906040528051906020012014905092915050565b60008151905060006a636f6e736f6c652e6c6f679050602083016000808483855afa5050505050565b8280546107b290610ba3565b90600052602060002090601f0160209004810192826107d4576000855561081b565b82601f106107ed57805160ff191683800117855561081b565b8280016001018555821561081b579182015b8281111561081a5782518255916020019190600101906107ff565b5b509050610828919061082c565b5090565b5b8082111561084557600081600090555060010161082d565b5090565b600061085c61085784610acb565b610aa6565b90508281526020810184848401111561087457600080fd5b61087f848285610b61565b509392505050565b60008135905061089681610c75565b92915050565b600082601f8301126108ad57600080fd5b81356108bd848260208601610849565b91505092915050565b6000602082840312156108d857600080fd5b60006108e684828501610887565b91505092915050565b60006020828403121561090157600080fd5b600082013567ffffffffffffffff81111561091b57600080fd5b6109278482850161089c565b91505092915050565b60008060006060848603121561094557600080fd5b600084013567ffffffffffffffff81111561095f57600080fd5b61096b8682870161089c565b935050602084013567ffffffffffffffff81111561098857600080fd5b6109948682870161089c565b92505060406109a586828701610887565b9150509250925092565b6109b881610b23565b82525050565b6109c781610b35565b82525050565b60006109d882610afc565b6109e28185610b07565b93506109f2818560208601610b70565b6109fb81610c64565b840191505092915050565b6000610a1182610afc565b610a1b8185610b18565b9350610a2b818560208601610b70565b80840191505092915050565b6000610a438284610a06565b915081905092915050565b6000602082019050610a6360008301846109af565b92915050565b6000602082019050610a7e60008301846109be565b92915050565b60006020820190508181036000830152610a9e81846109cd565b905092915050565b6000610ab0610ac1565b9050610abc8282610bd5565b919050565b6000604051905090565b600067ffffffffffffffff821115610ae657610ae5610c35565b5b610aef82610c64565b9050602081019050919050565b600081519050919050565b600082825260208201905092915050565b600081905092915050565b6000610b2e82610b41565b9050919050565b60008115159050919050565b600073ffffffffffffffffffffffffffffffffffffffff82169050919050565b82818337600083830152505050565b60005b83811015610b8e578082015181840152602081019050610b73565b83811115610b9d576000848401525b50505050565b60006002820490506001821680610bbb57607f821691505b60208210811415610bcf57610bce610c06565b5b50919050565b610bde82610c64565b810181811067ffffffffffffffff82111715610bfd57610bfc610c35565b5b80604052505050565b7f4e487b7100000000000000000000000000000000000000000000000000000000600052602260045260246000fd5b7f4e487b7100000000000000000000000000000000000000000000000000000000600052604160045260246000fd5b6000601f19601f8301169050919050565b610c7e81610b23565b8114610c8957600080fd5b5056fea264697066735822122020faab7f43ff45b688ea136c0782f76b6e4465bd8def1ee61287adf3ba76993d64736f6c63430008040033",
  "linkReferences": {},
  "deployedLinkReferences": {}
}