{
  "address": "0x1AF58fA239960B10d1200793C641c2a0105ee8Ad",
  "abi": [
    {
      "inputs": [],
      "stateMutability": "nonpayable",
      "type": "constructor"
    },
    {
      "inputs": [
        {
          "internalType": "address",
          "name": "target",
          "type": "address"
        }
      ],
      "name": "AddressEmptyCode",
      "type": "error"
    },
    {
      "inputs": [],
      "name": "CheckpointUnorderedInsertion",
      "type": "error"
    },
    {
      "inputs": [],
      "name": "ECDSAInvalidSignature",
      "type": "error"
    },
    {
      "inputs": [
        {
          "internalType": "uint256",
          "name": "length",
          "type": "uint256"
        }
      ],
      "name": "ECDSAInvalidSignatureLength",
      "type": "error"
    },
    {
      "inputs": [
        {
          "internalType": "bytes32",
          "name": "s",
          "type": "bytes32"
        }
      ],
      "name": "ECDSAInvalidSignatureS",
      "type": "error"
    },
    {
      "inputs": [
        {
          "internalType": "address",
          "name": "implementation",
          "type": "address"
        }
      ],
      "name": "ERC1967InvalidImplementation",
      "type": "error"
    },
    {
      "inputs": [],
      "name": "ERC1967NonPayable",
      "type": "error"
    },
    {
      "inputs": [
        {
          "internalType": "uint256",
          "name": "increasedSupply",
          "type": "uint256"
        },
        {
          "internalType": "uint256",
          "name": "cap",
          "type": "uint256"
        }
      ],
      "name": "ERC20ExceededSafeSupply",
      "type": "error"
    },
    {
      "inputs": [
        {
          "internalType": "address",
          "name": "spender",
          "type": "address"
        },
        {
          "internalType": "uint256",
          "name": "allowance",
          "type": "uint256"
        },
        {
          "internalType": "uint256",
          "name": "needed",
          "type": "uint256"
        }
      ],
      "name": "ERC20InsufficientAllowance",
      "type": "error"
    },
    {
      "inputs": [
        {
          "internalType": "address",
          "name": "sender",
          "type": "address"
        },
        {
          "internalType": "uint256",
          "name": "balance",
          "type": "uint256"
        },
        {
          "internalType": "uint256",
          "name": "needed",
          "type": "uint256"
        }
      ],
      "name": "ERC20InsufficientBalance",
      "type": "error"
    },
    {
      "inputs": [
        {
          "internalType": "address",
          "name": "approver",
          "type": "address"
        }
      ],
      "name": "ERC20InvalidApprover",
      "type": "error"
    },
    {
      "inputs": [
        {
          "internalType": "address",
          "name": "receiver",
          "type": "address"
        }
      ],
      "name": "ERC20InvalidReceiver",
      "type": "error"
    },
    {
      "inputs": [
        {
          "internalType": "address",
          "name": "sender",
          "type": "address"
        }
      ],
      "name": "ERC20InvalidSender",
      "type": "error"
    },
    {
      "inputs": [
        {
          "internalType": "address",
          "name": "spender",
          "type": "address"
        }
      ],
      "name": "ERC20InvalidSpender",
      "type": "error"
    },
    {
      "inputs": [
        {
          "internalType": "uint256",
          "name": "deadline",
          "type": "uint256"
        }
      ],
      "name": "ERC2612ExpiredSignature",
      "type": "error"
    },
    {
      "inputs": [
        {
          "internalType": "address",
          "name": "signer",
          "type": "address"
        },
        {
          "internalType": "address",
          "name": "owner",
          "type": "address"
        }
      ],
      "name": "ERC2612InvalidSigner",
      "type": "error"
    },
    {
      "inputs": [
        {
          "internalType": "uint256",
          "name": "timepoint",
          "type": "uint256"
        },
        {
          "internalType": "uint48",
          "name": "clock",
          "type": "uint48"
        }
      ],
      "name": "ERC5805FutureLookup",
      "type": "error"
    },
    {
      "inputs": [],
      "name": "ERC6372InconsistentClock",
      "type": "error"
    },
    {
      "inputs": [],
      "name": "FailedInnerCall",
      "type": "error"
    },
    {
      "inputs": [
        {
          "internalType": "address",
          "name": "account",
          "type": "address"
        },
        {
          "internalType": "uint256",
          "name": "currentNonce",
          "type": "uint256"
        }
      ],
      "name": "InvalidAccountNonce",
      "type": "error"
    },
    {
      "inputs": [],
      "name": "InvalidInitialization",
      "type": "error"
    },
    {
      "inputs": [],
      "name": "NotInitializing",
      "type": "error"
    },
    {
      "inputs": [
        {
          "internalType": "address",
          "name": "owner",
          "type": "address"
        }
      ],
      "name": "OwnableInvalidOwner",
      "type": "error"
    },
    {
      "inputs": [
        {
          "internalType": "address",
          "name": "account",
          "type": "address"
        }
      ],
      "name": "OwnableUnauthorizedAccount",
      "type": "error"
    },
    {
      "inputs": [
        {
          "internalType": "uint8",
          "name": "bits",
          "type": "uint8"
        },
        {
          "internalType": "uint256",
          "name": "value",
          "type": "uint256"
        }
      ],
      "name": "SafeCastOverflowedUintDowncast",
      "type": "error"
    },
    {
      "inputs": [],
      "name": "UUPSUnauthorizedCallContext",
      "type": "error"
    },
    {
      "inputs": [
        {
          "internalType": "bytes32",
          "name": "slot",
          "type": "bytes32"
        }
      ],
      "name": "UUPSUnsupportedProxiableUUID",
      "type": "error"
    },
    {
      "inputs": [
        {
          "internalType": "uint256",
          "name": "expiry",
          "type": "uint256"
        }
      ],
      "name": "VotesExpiredSignature",
      "type": "error"
    },
    {
      "anonymous": false,
      "inputs": [
        {
          "indexed": true,
          "internalType": "address",
          "name": "owner",
          "type": "address"
        },
        {
          "indexed": true,
          "internalType": "address",
          "name": "spender",
          "type": "address"
        },
        {
          "indexed": false,
          "internalType": "uint256",
          "name": "value",
          "type": "uint256"
        }
      ],
      "name": "Approval",
      "type": "event"
    },
    {
      "anonymous": false,
      "inputs": [
        {
          "indexed": true,
          "internalType": "address",
          "name": "delegator",
          "type": "address"
        },
        {
          "indexed": true,
          "internalType": "address",
          "name": "fromDelegate",
          "type": "address"
        },
        {
          "indexed": true,
          "internalType": "address",
          "name": "toDelegate",
          "type": "address"
        }
      ],
      "name": "DelegateChanged",
      "type": "event"
    },
    {
      "anonymous": false,
      "inputs": [
        {
          "indexed": true,
          "internalType": "address",
          "name": "delegate",
          "type": "address"
        },
        {
          "indexed": false,
          "internalType": "uint256",
          "name": "previousVotes",
          "type": "uint256"
        },
        {
          "indexed": false,
          "internalType": "uint256",
          "name": "newVotes",
          "type": "uint256"
        }
      ],
      "name": "DelegateVotesChanged",
      "type": "event"
    },
    {
      "anonymous": false,
      "inputs": [],
      "name": "EIP712DomainChanged",
      "type": "event"
    },
    {
      "anonymous": false,
      "inputs": [
        {
          "indexed": false,
          "internalType": "uint64",
          "name": "version",
          "type": "uint64"
        }
      ],
      "name": "Initialized",
      "type": "event"
    },
    {
      "anonymous": false,
      "inputs": [
        {
          "indexed": true,
          "internalType": "address",
          "name": "previousOwner",
          "type": "address"
        },
        {
          "indexed": true,
          "internalType": "address",
          "name": "newOwner",
          "type": "address"
        }
      ],
      "name": "OwnershipTransferred",
      "type": "event"
    },
    {
      "anonymous": false,
      "inputs": [
        {
          "indexed": true,
          "internalType": "address",
          "name": "from",
          "type": "address"
        },
        {
          "indexed": true,
          "internalType": "address",
          "name": "to",
          "type": "address"
        },
        {
          "indexed": false,
          "internalType": "uint256",
          "name": "value",
          "type": "uint256"
        }
      ],
      "name": "Transfer",
      "type": "event"
    },
    {
      "anonymous": false,
      "inputs": [
        {
          "indexed": true,
          "internalType": "address",
          "name": "implementation",
          "type": "address"
        }
      ],
      "name": "Upgraded",
      "type": "event"
    },
    {
      "inputs": [],
      "name": "CLOCK_MODE",
      "outputs": [
        {
          "internalType": "string",
          "name": "",
          "type": "string"
        }
      ],
      "stateMutability": "view",
      "type": "function"
    },
    {
      "inputs": [],
      "name": "DOMAIN_SEPARATOR",
      "outputs": [
        {
          "internalType": "bytes32",
          "name": "",
          "type": "bytes32"
        }
      ],
      "stateMutability": "view",
      "type": "function"
    },
    {
      "inputs": [],
      "name": "UPGRADE_INTERFACE_VERSION",
      "outputs": [
        {
          "internalType": "string",
          "name": "",
          "type": "string"
        }
      ],
      "stateMutability": "view",
      "type": "function"
    },
    {
      "inputs": [
        {
          "internalType": "address",
          "name": "owner",
          "type": "address"
        },
        {
          "internalType": "address",
          "name": "spender",
          "type": "address"
        }
      ],
      "name": "allowance",
      "outputs": [
        {
          "internalType": "uint256",
          "name": "",
          "type": "uint256"
        }
      ],
      "stateMutability": "view",
      "type": "function"
    },
    {
      "inputs": [
        {
          "internalType": "address",
          "name": "spender",
          "type": "address"
        },
        {
          "internalType": "uint256",
          "name": "value",
          "type": "uint256"
        }
      ],
      "name": "approve",
      "outputs": [
        {
          "internalType": "bool",
          "name": "",
          "type": "bool"
        }
      ],
      "stateMutability": "nonpayable",
      "type": "function"
    },
    {
      "inputs": [
        {
          "internalType": "address",
          "name": "account",
          "type": "address"
        }
      ],
      "name": "balanceOf",
      "outputs": [
        {
          "internalType": "uint256",
          "name": "",
          "type": "uint256"
        }
      ],
      "stateMutability": "view",
      "type": "function"
    },
    {
      "inputs": [
        {
          "internalType": "address",
          "name": "account",
          "type": "address"
        },
        {
          "internalType": "uint32",
          "name": "pos",
          "type": "uint32"
        }
      ],
      "name": "checkpoints",
      "outputs": [
        {
          "components": [
            {
              "internalType": "uint48",
              "name": "_key",
              "type": "uint48"
            },
            {
              "internalType": "uint208",
              "name": "_value",
              "type": "uint208"
            }
          ],
          "internalType": "struct Checkpoints.Checkpoint208",
          "name": "",
          "type": "tuple"
        }
      ],
      "stateMutability": "view",
      "type": "function"
    },
    {
      "inputs": [],
      "name": "clock",
      "outputs": [
        {
          "internalType": "uint48",
          "name": "",
          "type": "uint48"
        }
      ],
      "stateMutability": "view",
      "type": "function"
    },
    {
      "inputs": [],
      "name": "decimals",
      "outputs": [
        {
          "internalType": "uint8",
          "name": "",
          "type": "uint8"
        }
      ],
      "stateMutability": "view",
      "type": "function"
    },
    {
      "inputs": [
        {
          "internalType": "address",
          "name": "delegatee",
          "type": "address"
        }
      ],
      "name": "delegate",
      "outputs": [],
      "stateMutability": "nonpayable",
      "type": "function"
    },
    {
      "inputs": [
        {
          "internalType": "address",
          "name": "delegatee",
          "type": "address"
        },
        {
          "internalType": "uint256",
          "name": "nonce",
          "type": "uint256"
        },
        {
          "internalType": "uint256",
          "name": "expiry",
          "type": "uint256"
        },
        {
          "internalType": "uint8",
          "name": "v",
          "type": "uint8"
        },
        {
          "internalType": "bytes32",
          "name": "r",
          "type": "bytes32"
        },
        {
          "internalType": "bytes32",
          "name": "s",
          "type": "bytes32"
        }
      ],
      "name": "delegateBySig",
      "outputs": [],
      "stateMutability": "nonpayable",
      "type": "function"
    },
    {
      "inputs": [
        {
          "internalType": "address",
          "name": "account",
          "type": "address"
        }
      ],
      "name": "delegates",
      "outputs": [
        {
          "internalType": "address",
          "name": "",
          "type": "address"
        }
      ],
      "stateMutability": "view",
      "type": "function"
    },
    {
      "inputs": [],
      "name": "eip712Domain",
      "outputs": [
        {
          "internalType": "bytes1",
          "name": "fields",
          "type": "bytes1"
        },
        {
          "internalType": "string",
          "name": "name",
          "type": "string"
        },
        {
          "internalType": "string",
          "name": "version",
          "type": "string"
        },
        {
          "internalType": "uint256",
          "name": "chainId",
          "type": "uint256"
        },
        {
          "internalType": "address",
          "name": "verifyingContract",
          "type": "address"
        },
        {
          "internalType": "bytes32",
          "name": "salt",
          "type": "bytes32"
        },
        {
          "internalType": "uint256[]",
          "name": "extensions",
          "type": "uint256[]"
        }
      ],
      "stateMutability": "view",
      "type": "function"
    },
    {
      "inputs": [
        {
          "internalType": "uint256",
          "name": "timepoint",
          "type": "uint256"
        }
      ],
      "name": "getPastTotalSupply",
      "outputs": [
        {
          "internalType": "uint256",
          "name": "",
          "type": "uint256"
        }
      ],
      "stateMutability": "view",
      "type": "function"
    },
    {
      "inputs": [
        {
          "internalType": "address",
          "name": "account",
          "type": "address"
        },
        {
          "internalType": "uint256",
          "name": "timepoint",
          "type": "uint256"
        }
      ],
      "name": "getPastVotes",
      "outputs": [
        {
          "internalType": "uint256",
          "name": "",
          "type": "uint256"
        }
      ],
      "stateMutability": "view",
      "type": "function"
    },
    {
      "inputs": [
        {
          "internalType": "address",
          "name": "account",
          "type": "address"
        }
      ],
      "name": "getVotes",
      "outputs": [
        {
          "internalType": "uint256",
          "name": "",
          "type": "uint256"
        }
      ],
      "stateMutability": "view",
      "type": "function"
    },
    {
      "inputs": [
        {
          "internalType": "string",
          "name": "name_",
          "type": "string"
        },
        {
          "internalType": "string",
          "name": "symbol_",
          "type": "string"
        },
        {
          "internalType": "uint256",
          "name": "totalSupply_",
          "type": "uint256"
        }
      ],
      "name": "initialize",
      "outputs": [],
      "stateMutability": "nonpayable",
      "type": "function"
    },
    {
      "inputs": [],
      "name": "name",
      "outputs": [
        {
          "internalType": "string",
          "name": "",
          "type": "string"
        }
      ],
      "stateMutability": "view",
      "type": "function"
    },
    {
      "inputs": [
        {
          "internalType": "address",
          "name": "owner",
          "type": "address"
        }
      ],
      "name": "nonces",
      "outputs": [
        {
          "internalType": "uint256",
          "name": "",
          "type": "uint256"
        }
      ],
      "stateMutability": "view",
      "type": "function"
    },
    {
      "inputs": [
        {
          "internalType": "address",
          "name": "account",
          "type": "address"
        }
      ],
      "name": "numCheckpoints",
      "outputs": [
        {
          "internalType": "uint32",
          "name": "",
          "type": "uint32"
        }
      ],
      "stateMutability": "view",
      "type": "function"
    },
    {
      "inputs": [],
      "name": "owner",
      "outputs": [
        {
          "internalType": "address",
          "name": "",
          "type": "address"
        }
      ],
      "stateMutability": "view",
      "type": "function"
    },
    {
      "inputs": [
        {
          "internalType": "address",
          "name": "owner",
          "type": "address"
        },
        {
          "internalType": "address",
          "name": "spender",
          "type": "address"
        },
        {
          "internalType": "uint256",
          "name": "value",
          "type": "uint256"
        },
        {
          "internalType": "uint256",
          "name": "deadline",
          "type": "uint256"
        },
        {
          "internalType": "uint8",
          "name": "v",
          "type": "uint8"
        },
        {
          "internalType": "bytes32",
          "name": "r",
          "type": "bytes32"
        },
        {
          "internalType": "bytes32",
          "name": "s",
          "type": "bytes32"
        }
      ],
      "name": "permit",
      "outputs": [],
      "stateMutability": "nonpayable",
      "type": "function"
    },
    {
      "inputs": [],
      "name": "proxiableUUID",
      "outputs": [
        {
          "internalType": "bytes32",
          "name": "",
          "type": "bytes32"
        }
      ],
      "stateMutability": "view",
      "type": "function"
    },
    {
      "inputs": [],
      "name": "renounceOwnership",
      "outputs": [],
      "stateMutability": "nonpayable",
      "type": "function"
    },
    {
      "inputs": [],
      "name": "symbol",
      "outputs": [
        {
          "internalType": "string",
          "name": "",
          "type": "string"
        }
      ],
      "stateMutability": "view",
      "type": "function"
    },
    {
      "inputs": [],
      "name": "totalSupply",
      "outputs": [
        {
          "internalType": "uint256",
          "name": "",
          "type": "uint256"
        }
      ],
      "stateMutability": "view",
      "type": "function"
    },
    {
      "inputs": [
        {
          "internalType": "address",
          "name": "to",
          "type": "address"
        },
        {
          "internalType": "uint256",
          "name": "value",
          "type": "uint256"
        }
      ],
      "name": "transfer",
      "outputs": [
        {
          "internalType": "bool",
          "name": "",
          "type": "bool"
        }
      ],
      "stateMutability": "nonpayable",
      "type": "function"
    },
    {
      "inputs": [
        {
          "internalType": "address",
          "name": "from",
          "type": "address"
        },
        {
          "internalType": "address",
          "name": "to",
          "type": "address"
        },
        {
          "internalType": "uint256",
          "name": "value",
          "type": "uint256"
        }
      ],
      "name": "transferFrom",
      "outputs": [
        {
          "internalType": "bool",
          "name": "",
          "type": "bool"
        }
      ],
      "stateMutability": "nonpayable",
      "type": "function"
    },
    {
      "inputs": [
        {
          "internalType": "address",
          "name": "newOwner",
          "type": "address"
        }
      ],
      "name": "transferOwnership",
      "outputs": [],
      "stateMutability": "nonpayable",
      "type": "function"
    },
    {
      "inputs": [
        {
          "internalType": "address",
          "name": "newImplementation",
          "type": "address"
        },
        {
          "internalType": "bytes",
          "name": "data",
          "type": "bytes"
        }
      ],
      "name": "upgradeToAndCall",
      "outputs": [],
      "stateMutability": "payable",
      "type": "function"
    }
  ],
  "transactionHash": "0xab1898717bf7a09af36256c949b39cdfc2b417c2dd24ba8aff3dd4fcc1ea1813",
  "args": [],
  "numDeployments": 1,
  "solcInputHash": "afd876ea72dd1aaea62f5b4add5e8f97",
  "bytecode": "0x60a0604052306080523480156200001557600080fd5b506200002062000026565b620000da565b7ff0c57e16840df040f15088dc2f81fe391c3923bec73e23a9662efc9c229c6a00805468010000000000000000900460ff1615620000775760405163f92ee8a960e01b815260040160405180910390fd5b80546001600160401b0390811614620000d75780546001600160401b0319166001600160401b0390811782556040519081527fc7f505b2f371ae2175ee4913f4499e1f2633a7b5936321eed1cdaeb6115181d29060200160405180910390a15b50565b60805161317762000104600039600081816112710152818161129a015261141801526131776000f3fe6080604052600436106101cd5760003560e01c80637ecebe00116100f7578063a9059cbb11610095578063d505accf11610064578063d505accf146105b2578063dd62ed3e146105d2578063f1127ed814610637578063f2fde38b1461068357600080fd5b8063a9059cbb14610509578063ad3cb1cc14610529578063b119490e14610572578063c3cda5201461059257600080fd5b80638e539e8c116100d15780638e539e8c1461048857806391ddadf4146104a857806395d89b41146104d45780639ab24eb0146104e957600080fd5b80637ecebe001461040357806384b0196e146104235780638da5cb5b1461044b57600080fd5b80634bf5d7e91161016f5780635c19a95c1161013e5780635c19a95c146103795780636fcfff451461039957806370a08231146103ce578063715018a6146103ee57600080fd5b80634bf5d7e9146102dc5780634f1ef286146102f157806352d1902d14610306578063587cde1e1461031b57600080fd5b806323b872dd116101ab57806323b872dd1461026b578063313ce5671461028b5780633644e515146102a75780633a46b1a8146102bc57600080fd5b806306fdde03146101d2578063095ea7b3146101fd57806318160ddd1461022d575b600080fd5b3480156101de57600080fd5b506101e76106a3565b6040516101f49190612a81565b60405180910390f35b34801561020957600080fd5b5061021d610218366004612ab0565b61075e565b60405190151581526020016101f4565b34801561023957600080fd5b507f52c63247e1f47db19d5ce0460030c497f067ca4cebf71ba98eeadabe20bace02545b6040519081526020016101f4565b34801561027757600080fd5b5061021d610286366004612ada565b610778565b34801561029757600080fd5b50604051601281526020016101f4565b3480156102b357600080fd5b5061025d61079e565b3480156102c857600080fd5b5061025d6102d7366004612ab0565b6107ad565b3480156102e857600080fd5b506101e7610845565b6103046102ff366004612ba2565b6108d6565b005b34801561031257600080fd5b5061025d6108f5565b34801561032757600080fd5b50610361610336366004612c04565b6001600160a01b03908116600090815260008051602061312283398151915260205260409020541690565b6040516001600160a01b0390911681526020016101f4565b34801561038557600080fd5b50610304610394366004612c04565b610924565b3480156103a557600080fd5b506103b96103b4366004612c04565b61092f565b60405163ffffffff90911681526020016101f4565b3480156103da57600080fd5b5061025d6103e9366004612c04565b61093a565b3480156103fa57600080fd5b5061030461097f565b34801561040f57600080fd5b5061025d61041e366004612c04565b610993565b34801561042f57600080fd5b5061043861099e565b6040516101f49796959493929190612c1f565b34801561045757600080fd5b507f9016d09d72d40fdae2fd8ceac6b6234c7706214fd39c1cd1e609a0528c199300546001600160a01b0316610361565b34801561049457600080fd5b5061025d6104a3366004612cd1565b610a9a565b3480156104b457600080fd5b506104bd610b16565b60405165ffffffffffff90911681526020016101f4565b3480156104e057600080fd5b506101e7610b20565b3480156104f557600080fd5b5061025d610504366004612c04565b610b71565b34801561051557600080fd5b5061021d610524366004612ab0565b610bd1565b34801561053557600080fd5b506101e76040518060400160405280600581526020017f352e302e3000000000000000000000000000000000000000000000000000000081525081565b34801561057e57600080fd5b5061030461058d366004612d0a565b610bdf565b34801561059e57600080fd5b506103046105ad366004612d88565b610d4b565b3480156105be57600080fd5b506103046105cd366004612de0565b610e21565b3480156105de57600080fd5b5061025d6105ed366004612e4a565b6001600160a01b0391821660009081527f52c63247e1f47db19d5ce0460030c497f067ca4cebf71ba98eeadabe20bace016020908152604080832093909416825291909152205490565b34801561064357600080fd5b50610657610652366004612e7d565b610fac565b60408051825165ffffffffffff1681526020928301516001600160d01b031692810192909252016101f4565b34801561068f57600080fd5b5061030461069e366004612c04565b610fca565b606060007f52c63247e1f47db19d5ce0460030c497f067ca4cebf71ba98eeadabe20bace005b90508060030180546106da90612ebd565b80601f016020809104026020016040519081016040528092919081815260200182805461070690612ebd565b80156107535780601f1061072857610100808354040283529160200191610753565b820191906000526020600020905b81548152906001019060200180831161073657829003601f168201915b505050505091505090565b60003361076c818585611021565b60019150505b92915050565b600033610786858285611033565b6107918585856110e9565b60019150505b9392505050565b60006107a8611161565b905090565b6000600080516020613122833981519152816107c7610b16565b90508065ffffffffffff16841061080757604051637669fc0f60e11b81526004810185905265ffffffffffff821660248201526044015b60405180910390fd5b6108336108138561116b565b6001600160a01b03871660009081526001850160205260409020906111a2565b6001600160d01b031695945050505050565b606061084f61125b565b65ffffffffffff1661085f610b16565b65ffffffffffff161461089e576040517f6ff0714000000000000000000000000000000000000000000000000000000000815260040160405180910390fd5b5060408051808201909152601d81527f6d6f64653d626c6f636b6e756d6265722666726f6d3d64656661756c74000000602082015290565b6108de611266565b6108e78261131d565b6108f18282611325565b5050565b60006108ff61140d565b507f360894a13ba1a3210667c828492db98dca3e2076cc3735a920a3ca505d382bbc90565b336108f18183611456565b600061077282611513565b6000807f52c63247e1f47db19d5ce0460030c497f067ca4cebf71ba98eeadabe20bace005b6001600160a01b0390931660009081526020939093525050604090205490565b610987611564565b61099160006115d8565b565b600061077282611656565b600060608082808083817fa16a46d94261c7517cc8ff89f61c0ce93598e3c849801011dee649a6a557d10080549091501580156109dd57506001810154155b610a43576040517f08c379a000000000000000000000000000000000000000000000000000000000815260206004820152601560248201527f4549503731323a20556e696e697469616c697a6564000000000000000000000060448201526064016107fe565b610a4b611661565b610a536116b2565b604080516000808252602082019092527f0f000000000000000000000000000000000000000000000000000000000000009c939b5091995046985030975095509350915050565b600060008051602061312283398151915281610ab4610b16565b90508065ffffffffffff168410610aef57604051637669fc0f60e11b81526004810185905265ffffffffffff821660248201526044016107fe565b610b05610afb8561116b565b60028401906111a2565b6001600160d01b0316949350505050565b60006107a861125b565b7f52c63247e1f47db19d5ce0460030c497f067ca4cebf71ba98eeadabe20bace0480546060917f52c63247e1f47db19d5ce0460030c497f067ca4cebf71ba98eeadabe20bace00916106da90612ebd565b6001600160a01b03811660009081527fe8b26c30fad74198956032a3533d903385d56dd795af560196f9c78d4af40d016020526040812060008051602061312283398151915290610bc1906116dc565b6001600160d01b03169392505050565b60003361076c8185856110e9565b7ff0c57e16840df040f15088dc2f81fe391c3923bec73e23a9662efc9c229c6a00805468010000000000000000810460ff16159067ffffffffffffffff16600081158015610c2a5750825b905060008267ffffffffffffffff166001148015610c475750303b155b905081158015610c55575080155b15610c8c576040517ff92ee8a900000000000000000000000000000000000000000000000000000000815260040160405180910390fd5b845467ffffffffffffffff191660011785558315610cc057845468ff00000000000000001916680100000000000000001785555b610cca8888611718565b610cd38861172a565b610cdb611771565b610ce433611779565b610cec611771565b610cf6338761178a565b8315610d4157845468ff000000000000000019168555604051600181527fc7f505b2f371ae2175ee4913f4499e1f2633a7b5936321eed1cdaeb6115181d29060200160405180910390a15b5050505050505050565b83421115610d88576040517f4683af0e000000000000000000000000000000000000000000000000000000008152600481018590526024016107fe565b604080517fe48329057bfd03d55e49b547132e39cffd9c1820ad7b9d4c5307691425d15adf60208201526001600160a01b038816918101919091526060810186905260808101859052600090610e0290610dfa9060a001604051602081830303815290604052805190602001206117c0565b858585611808565b9050610e0e8187611836565b610e188188611456565b50505050505050565b83421115610e5e576040517f62791302000000000000000000000000000000000000000000000000000000008152600481018590526024016107fe565b60007f6e71edae12b1b97f4d1f60370fef10105fa2faae0126114a169c64845d6126c9888888610eca8c6001600160a01b031660009081527f5ab42ced628888259c08ac98db1eb0cf702fc1501344311d8b100cd1bfe4bb006020526040902080546001810190915590565b6040805160208101969096526001600160a01b0394851690860152929091166060840152608083015260a082015260c0810186905260e0016040516020818303038152906040528051906020012090506000610f25826117c0565b90506000610f3582878787611808565b9050896001600160a01b0316816001600160a01b031614610f95576040517f4b800e460000000000000000000000000000000000000000000000000000000081526001600160a01b0380831660048301528b1660248201526044016107fe565b610fa08a8a8a611021565b50505050505050505050565b604080518082019091526000808252602082015261079783836118c1565b610fd2611564565b6001600160a01b038116611015576040517f1e4fbdf7000000000000000000000000000000000000000000000000000000008152600060048201526024016107fe565b61101e816115d8565b50565b61102e838383600161192c565b505050565b6001600160a01b0383811660009081527f52c63247e1f47db19d5ce0460030c497f067ca4cebf71ba98eeadabe20bace01602090815260408083209386168352929052205460001981146110e357818110156110d4576040517ffb8f41b20000000000000000000000000000000000000000000000000000000081526001600160a01b038416600482015260248101829052604481018390526064016107fe565b6110e38484848403600061192c565b50505050565b6001600160a01b03831661112c576040517f96c6fd1e000000000000000000000000000000000000000000000000000000008152600060048201526024016107fe565b6001600160a01b0382166111565760405163ec442f0560e01b8152600060048201526024016107fe565b61102e838383611a58565b60006107a8611a63565b600065ffffffffffff82111561119e576040516306dfcc6560e41b815260306004820152602481018390526044016107fe565b5090565b8154600090818160058111156112015760006111bd84611ad7565b6111c79085612f0d565b60008881526020902090915081015465ffffffffffff90811690871610156111f1578091506111ff565b6111fc816001612f20565b92505b505b600061120f87878585611bbf565b9050801561124d5761123487611226600184612f0d565b600091825260209091200190565b54660100000000000090046001600160d01b0316611250565b60005b979650505050505050565b60006107a84361116b565b306001600160a01b037f00000000000000000000000000000000000000000000000000000000000000001614806112ff57507f00000000000000000000000000000000000000000000000000000000000000006001600160a01b03166112f37f360894a13ba1a3210667c828492db98dca3e2076cc3735a920a3ca505d382bbc546001600160a01b031690565b6001600160a01b031614155b156109915760405163703e46dd60e11b815260040160405180910390fd5b61101e611564565b816001600160a01b03166352d1902d6040518163ffffffff1660e01b8152600401602060405180830381865afa92505050801561137f575060408051601f3d908101601f1916820190925261137c91810190612f33565b60015b6113a757604051634c9c8ce360e01b81526001600160a01b03831660048201526024016107fe565b7f360894a13ba1a3210667c828492db98dca3e2076cc3735a920a3ca505d382bbc8114611403576040517faa1d49a4000000000000000000000000000000000000000000000000000000008152600481018290526024016107fe565b61102e8383611c21565b306001600160a01b037f000000000000000000000000000000000000000000000000000000000000000016146109915760405163703e46dd60e11b815260040160405180910390fd5b6000805160206131228339815191526000611496846001600160a01b03908116600090815260008051602061312283398151915260205260409020541690565b6001600160a01b03858116600081815260208690526040808220805473ffffffffffffffffffffffffffffffffffffffff1916898616908117909155905194955093928516927f3134e8a2e6d97e929a7e54011ea5485d7d196dd5f0ba4d4ef95803e8e3fc257f9190a46110e3818461150e87611c77565b611c82565b6001600160a01b03811660009081527fe8b26c30fad74198956032a3533d903385d56dd795af560196f9c78d4af40d0160205260408120546000805160206131228339815191529061079790611dfc565b336115967f9016d09d72d40fdae2fd8ceac6b6234c7706214fd39c1cd1e609a0528c199300546001600160a01b031690565b6001600160a01b031614610991576040517f118cdaa70000000000000000000000000000000000000000000000000000000081523360048201526024016107fe565b7f9016d09d72d40fdae2fd8ceac6b6234c7706214fd39c1cd1e609a0528c199300805473ffffffffffffffffffffffffffffffffffffffff1981166001600160a01b03848116918217845560405192169182907f8be0079c531659141344cd1fd0a4f28419497f9722a3daafe3b4186f6b6457e090600090a3505050565b600061077282611e2d565b7fa16a46d94261c7517cc8ff89f61c0ce93598e3c849801011dee649a6a557d10280546060917fa16a46d94261c7517cc8ff89f61c0ce93598e3c849801011dee649a6a557d100916106da90612ebd565b606060007fa16a46d94261c7517cc8ff89f61c0ce93598e3c849801011dee649a6a557d1006106c9565b8054600090801561170f576116f683611226600184612f0d565b54660100000000000090046001600160d01b0316610797565b60009392505050565b611720611e56565b6108f18282611ebd565b611732611e56565b61101e816040518060400160405280600181526020017f3100000000000000000000000000000000000000000000000000000000000000815250611f20565b610991611e56565b611781611e56565b61101e81611f93565b6001600160a01b0382166117b45760405163ec442f0560e01b8152600060048201526024016107fe565b6108f160008383611a58565b60006107726117cd611161565b836040517f19010000000000000000000000000000000000000000000000000000000000008152600281019290925260228201526042902090565b60008060008061181a88888888611f9b565b92509250925061182a828261206a565b50909695505050505050565b6001600160a01b03821660009081527f5ab42ced628888259c08ac98db1eb0cf702fc1501344311d8b100cd1bfe4bb006020526040902080546001810190915581811461102e576040517f752d88c00000000000000000000000000000000000000000000000000000000081526001600160a01b0384166004820152602481018290526044016107fe565b604080518082018252600080825260208083018290526001600160a01b03861682527fe8b26c30fad74198956032a3533d903385d56dd795af560196f9c78d4af40d0190529190912060008051602061312283398151915290611924908461216e565b949350505050565b7f52c63247e1f47db19d5ce0460030c497f067ca4cebf71ba98eeadabe20bace006001600160a01b038516611990576040517fe602df05000000000000000000000000000000000000000000000000000000008152600060048201526024016107fe565b6001600160a01b0384166119d3576040517f94280d62000000000000000000000000000000000000000000000000000000008152600060048201526024016107fe565b6001600160a01b03808616600090815260018301602090815260408083209388168352929052208390558115611a5157836001600160a01b0316856001600160a01b03167f8c5be1e5ebec7d5bd14f71427d1e84f3dd0314c0f7b2291e5b200ac8c7c3b92585604051611a4891815260200190565b60405180910390a35b5050505050565b61102e8383836121e1565b60007f8b73c3c69bb8fe3d512ecc4cf759cc79239f7b179b0ffacaa9a75d522b39400f611a8e612280565b611a966122fc565b60408051602081019490945283019190915260608201524660808201523060a082015260c00160405160208183030381529060405280519060200120905090565b600081600003611ae957506000919050565b60006001611af684612352565b901c6001901b90506001818481611b0f57611b0f612f4c565b048201901c90506001818481611b2757611b27612f4c565b048201901c90506001818481611b3f57611b3f612f4c565b048201901c90506001818481611b5757611b57612f4c565b048201901c90506001818481611b6f57611b6f612f4c565b048201901c90506001818481611b8757611b87612f4c565b048201901c90506001818481611b9f57611b9f612f4c565b048201901c905061079781828581611bb957611bb9612f4c565b046123e6565b60005b81831015611c19576000611bd684846123fc565b60008781526020902090915065ffffffffffff86169082015465ffffffffffff161115611c0557809250611c13565b611c10816001612f20565b93505b50611bc2565b509392505050565b611c2a82612417565b6040516001600160a01b038316907fbc7cd75a20ee27fd9adebab32041f755214dbc6bffa90cc0225b39da2e5c2d3b90600090a2805115611c6f5761102e828261249b565b6108f1612511565b60006107728261093a565b6000805160206131228339815191526001600160a01b0384811690841614801590611cad5750600082115b156110e3576001600160a01b03841615611d57576001600160a01b038416600090815260018201602052604081208190611cf290612549611ced87612555565b612589565b6001600160d01b031691506001600160d01b03169150856001600160a01b03167fdec2bacdd2f05b59de34da9b523dff8be42e5e38e818c82fdb0bae774387a7248383604051611d4c929190918252602082015260400190565b60405180910390a250505b6001600160a01b038316156110e3576001600160a01b038316600090815260018201602052604081208190611d92906125c2611ced87612555565b6001600160d01b031691506001600160d01b03169150846001600160a01b03167fdec2bacdd2f05b59de34da9b523dff8be42e5e38e818c82fdb0bae774387a7248383604051611dec929190918252602082015260400190565b60405180910390a2505050505050565b600063ffffffff82111561119e576040516306dfcc6560e41b815260206004820152602481018390526044016107fe565b6000807f5ab42ced628888259c08ac98db1eb0cf702fc1501344311d8b100cd1bfe4bb0061095f565b7ff0c57e16840df040f15088dc2f81fe391c3923bec73e23a9662efc9c229c6a005468010000000000000000900460ff16610991576040517fd7e6bcf800000000000000000000000000000000000000000000000000000000815260040160405180910390fd5b611ec5611e56565b7f52c63247e1f47db19d5ce0460030c497f067ca4cebf71ba98eeadabe20bace007f52c63247e1f47db19d5ce0460030c497f067ca4cebf71ba98eeadabe20bace03611f118482612fb0565b50600481016110e38382612fb0565b611f28611e56565b7fa16a46d94261c7517cc8ff89f61c0ce93598e3c849801011dee649a6a557d1007fa16a46d94261c7517cc8ff89f61c0ce93598e3c849801011dee649a6a557d102611f748482612fb0565b5060038101611f838382612fb0565b5060008082556001909101555050565b610fd2611e56565b600080807f7fffffffffffffffffffffffffffffff5d576e7357a4501ddfe92f46681b20a0841115611fd65750600091506003905082612060565b604080516000808252602082018084528a905260ff891692820192909252606081018790526080810186905260019060a0016020604051602081039080840390855afa15801561202a573d6000803e3d6000fd5b5050604051601f1901519150506001600160a01b03811661205657506000925060019150829050612060565b9250600091508190505b9450945094915050565b600082600381111561207e5761207e613070565b03612087575050565b600182600381111561209b5761209b613070565b036120d2576040517ff645eedf00000000000000000000000000000000000000000000000000000000815260040160405180910390fd5b60028260038111156120e6576120e6613070565b03612120576040517ffce698f7000000000000000000000000000000000000000000000000000000008152600481018290526024016107fe565b600382600381111561213457612134613070565b036108f1576040517fd78bce0c000000000000000000000000000000000000000000000000000000008152600481018290526024016107fe565b6040805180820190915260008082526020820152826000018263ffffffff168154811061219d5761219d613086565b60009182526020918290206040805180820190915291015465ffffffffffff81168252660100000000000090046001600160d01b0316918101919091529392505050565b6121ec8383836125ce565b6001600160a01b0383166122755760006122247f52c63247e1f47db19d5ce0460030c497f067ca4cebf71ba98eeadabe20bace025490565b90506001600160d01b0380821115612272576040517f1cb15d2600000000000000000000000000000000000000000000000000000000815260048101839052602481018290526044016107fe565b50505b61102e838383612737565b60007fa16a46d94261c7517cc8ff89f61c0ce93598e3c849801011dee649a6a557d100816122ac611661565b8051909150156122c457805160209091012092915050565b815480156122d3579392505050565b7fc5d2460186f7233c927e7db2dcc703c0e500b653ca82273b7bfad8045d85a470935050505090565b60007fa16a46d94261c7517cc8ff89f61c0ce93598e3c849801011dee649a6a557d100816123286116b2565b80519091501561234057805160209091012092915050565b600182015480156122d3579392505050565b600080608083901c1561236757608092831c92015b604083901c1561237957604092831c92015b602083901c1561238b57602092831c92015b601083901c1561239d57601092831c92015b600883901c156123af57600892831c92015b600483901c156123c157600492831c92015b600283901c156123d357600292831c92015b600183901c156107725760010192915050565b60008183106123f55781610797565b5090919050565b600061240b600284841861309c565b61079790848416612f20565b806001600160a01b03163b60000361244d57604051634c9c8ce360e01b81526001600160a01b03821660048201526024016107fe565b7f360894a13ba1a3210667c828492db98dca3e2076cc3735a920a3ca505d382bbc805473ffffffffffffffffffffffffffffffffffffffff19166001600160a01b0392909216919091179055565b6060600080846001600160a01b0316846040516124b891906130be565b600060405180830381855af49150503d80600081146124f3576040519150601f19603f3d011682016040523d82523d6000602084013e6124f8565b606091505b50915091506125088583836127cd565b95945050505050565b3415610991576040517fb398979f00000000000000000000000000000000000000000000000000000000815260040160405180910390fd5b600061079782846130da565b60006001600160d01b0382111561119e576040516306dfcc6560e41b815260d06004820152602481018390526044016107fe565b6000806125b5612597610b16565b6125ad6125a3886116dc565b868863ffffffff16565b879190612842565b915091505b935093915050565b60006107978284613101565b7f52c63247e1f47db19d5ce0460030c497f067ca4cebf71ba98eeadabe20bace006001600160a01b03841661261c57818160020160008282546126119190612f20565b909155506126a79050565b6001600160a01b03841660009081526020829052604090205482811015612688576040517fe450d38c0000000000000000000000000000000000000000000000000000000081526001600160a01b038616600482015260248101829052604481018490526064016107fe565b6001600160a01b03851660009081526020839052604090209083900390555b6001600160a01b0383166126c55760028101805483900390556126e4565b6001600160a01b03831660009081526020829052604090208054830190555b826001600160a01b0316846001600160a01b03167fddf252ad1be2c89b69c2b068fc378daa952ba7f163c4a11628f55a4df523b3ef8460405161272991815260200190565b60405180910390a350505050565b6000805160206131228339815191526001600160a01b03841661276a57612767816002016125c2611ced85612555565b50505b6001600160a01b03831661278e5761278b81600201612549611ced85612555565b50505b6001600160a01b03848116600090815260008051602061312283398151915260205260408082205486841683529120546110e392918216911684611c82565b6060826127e2576127dd82612850565b610797565b81511580156127f957506001600160a01b0384163b155b1561283b576040517f9996b3150000000000000000000000000000000000000000000000000000000081526001600160a01b03851660048201526024016107fe565b5080610797565b6000806125b5858585612892565b8051156128605780518082602001fd5b6040517f1425ea4200000000000000000000000000000000000000000000000000000000815260040160405180910390fd5b8254600090819080156129d35760006128b087611226600185612f0d565b60408051808201909152905465ffffffffffff80821680845266010000000000009092046001600160d01b031660208401529192509087161015612920576040517f2520601d00000000000000000000000000000000000000000000000000000000815260040160405180910390fd5b805165ffffffffffff80881691160361296f578461294388611226600186612f0d565b80546001600160d01b039290921666010000000000000265ffffffffffff9092169190911790556129c3565b6040805180820190915265ffffffffffff80881682526001600160d01b0380881660208085019182528b54600181018d5560008d815291909120945191519092166601000000000000029216919091179101555b6020015192508391506125ba9050565b50506040805180820190915265ffffffffffff80851682526001600160d01b0380851660208085019182528854600181018a5560008a81529182209551925190931666010000000000000291909316179201919091559050816125ba565b60005b83811015612a4c578181015183820152602001612a34565b50506000910152565b60008151808452612a6d816020860160208601612a31565b601f01601f19169290920160200192915050565b6020815260006107976020830184612a55565b80356001600160a01b0381168114612aab57600080fd5b919050565b60008060408385031215612ac357600080fd5b612acc83612a94565b946020939093013593505050565b600080600060608486031215612aef57600080fd5b612af884612a94565b9250612b0660208501612a94565b9150604084013590509250925092565b634e487b7160e01b600052604160045260246000fd5b600067ffffffffffffffff80841115612b4757612b47612b16565b604051601f8501601f19908116603f01168101908282118183101715612b6f57612b6f612b16565b81604052809350858152868686011115612b8857600080fd5b858560208301376000602087830101525050509392505050565b60008060408385031215612bb557600080fd5b612bbe83612a94565b9150602083013567ffffffffffffffff811115612bda57600080fd5b8301601f81018513612beb57600080fd5b612bfa85823560208401612b2c565b9150509250929050565b600060208284031215612c1657600080fd5b61079782612a94565b7fff00000000000000000000000000000000000000000000000000000000000000881681526000602060e081840152612c5b60e084018a612a55565b8381036040850152612c6d818a612a55565b606085018990526001600160a01b038816608086015260a0850187905284810360c0860152855180825283870192509083019060005b81811015612cbf57835183529284019291840191600101612ca3565b50909c9b505050505050505050505050565b600060208284031215612ce357600080fd5b5035919050565b600082601f830112612cfb57600080fd5b61079783833560208501612b2c565b600080600060608486031215612d1f57600080fd5b833567ffffffffffffffff80821115612d3757600080fd5b612d4387838801612cea565b94506020860135915080821115612d5957600080fd5b50612d6686828701612cea565b925050604084013590509250925092565b803560ff81168114612aab57600080fd5b60008060008060008060c08789031215612da157600080fd5b612daa87612a94565b95506020870135945060408701359350612dc660608801612d77565b92506080870135915060a087013590509295509295509295565b600080600080600080600060e0888a031215612dfb57600080fd5b612e0488612a94565b9650612e1260208901612a94565b95506040880135945060608801359350612e2e60808901612d77565b925060a0880135915060c0880135905092959891949750929550565b60008060408385031215612e5d57600080fd5b612e6683612a94565b9150612e7460208401612a94565b90509250929050565b60008060408385031215612e9057600080fd5b612e9983612a94565b9150602083013563ffffffff81168114612eb257600080fd5b809150509250929050565b600181811c90821680612ed157607f821691505b602082108103612ef157634e487b7160e01b600052602260045260246000fd5b50919050565b634e487b7160e01b600052601160045260246000fd5b8181038181111561077257610772612ef7565b8082018082111561077257610772612ef7565b600060208284031215612f4557600080fd5b5051919050565b634e487b7160e01b600052601260045260246000fd5b601f82111561102e57600081815260208120601f850160051c81016020861015612f895750805b601f850160051c820191505b81811015612fa857828155600101612f95565b505050505050565b815167ffffffffffffffff811115612fca57612fca612b16565b612fde81612fd88454612ebd565b84612f62565b602080601f8311600181146130135760008415612ffb5750858301515b600019600386901b1c1916600185901b178555612fa8565b600085815260208120601f198616915b8281101561304257888601518255948401946001909101908401613023565b50858210156130605787850151600019600388901b60f8161c191681555b5050505050600190811b01905550565b634e487b7160e01b600052602160045260246000fd5b634e487b7160e01b600052603260045260246000fd5b6000826130b957634e487b7160e01b600052601260045260246000fd5b500490565b600082516130d0818460208701612a31565b9190910192915050565b6001600160d01b038281168282160390808211156130fa576130fa612ef7565b5092915050565b6001600160d01b038181168382160190808211156130fa576130fa612ef756fee8b26c30fad74198956032a3533d903385d56dd795af560196f9c78d4af40d00a2646970667358221220c2a4c7c504a36ab9781f5fb312d81d27f781047ab9f97621c7f031a185ecb78864736f6c63430008140033",
  "devdoc": {
    "errors": {
      "AddressEmptyCode(address)": [
        {
          "details": "There's no code at `target` (it is not a contract)."
        }
      ],
      "CheckpointUnorderedInsertion()": [
        {
          "details": "A value was attempted to be inserted on a past checkpoint."
        }
      ],
      "ECDSAInvalidSignature()": [
        {
          "details": "The signature derives the `address(0)`."
        }
      ],
      "ECDSAInvalidSignatureLength(uint256)": [
        {
          "details": "The signature has an invalid length."
        }
      ],
      "ECDSAInvalidSignatureS(bytes32)": [
        {
          "details": "The signature has an S value that is in the upper half order."
        }
      ],
      "ERC1967InvalidImplementation(address)": [
        {
          "details": "The `implementation` of the proxy is invalid."
        }
      ],
      "ERC1967NonPayable()": [
        {
          "details": "An upgrade function sees `msg.value > 0` that may be lost."
        }
      ],
      "ERC20ExceededSafeSupply(uint256,uint256)": [
        {
          "details": "Total supply cap has been exceeded, introducing a risk of votes overflowing."
        }
      ],
      "ERC20InsufficientAllowance(address,uint256,uint256)": [
        {
          "details": "Indicates a failure with the `spender`s `allowance`. Used in transfers.",
          "params": {
            "allowance": "Amount of tokens a `spender` is allowed to operate with.",
            "needed": "Minimum amount required to perform a transfer.",
            "spender": "Address that may be allowed to operate on tokens without being their owner."
          }
        }
      ],
      "ERC20InsufficientBalance(address,uint256,uint256)": [
        {
          "details": "Indicates an error related to the current `balance` of a `sender`. Used in transfers.",
          "params": {
            "balance": "Current balance for the interacting account.",
            "needed": "Minimum amount required to perform a transfer.",
            "sender": "Address whose tokens are being transferred."
          }
        }
      ],
      "ERC20InvalidApprover(address)": [
        {
          "details": "Indicates a failure with the `approver` of a token to be approved. Used in approvals.",
          "params": {
            "approver": "Address initiating an approval operation."
          }
        }
      ],
      "ERC20InvalidReceiver(address)": [
        {
          "details": "Indicates a failure with the token `receiver`. Used in transfers.",
          "params": {
            "receiver": "Address to which tokens are being transferred."
          }
        }
      ],
      "ERC20InvalidSender(address)": [
        {
          "details": "Indicates a failure with the token `sender`. Used in transfers.",
          "params": {
            "sender": "Address whose tokens are being transferred."
          }
        }
      ],
      "ERC20InvalidSpender(address)": [
        {
          "details": "Indicates a failure with the `spender` to be approved. Used in approvals.",
          "params": {
            "spender": "Address that may be allowed to operate on tokens without being their owner."
          }
        }
      ],
      "ERC2612ExpiredSignature(uint256)": [
        {
          "details": "Permit deadline has expired."
        }
      ],
      "ERC2612InvalidSigner(address,address)": [
        {
          "details": "Mismatched signature."
        }
      ],
      "ERC5805FutureLookup(uint256,uint48)": [
        {
          "details": "Lookup to future votes is not available."
        }
      ],
      "ERC6372InconsistentClock()": [
        {
          "details": "The clock was incorrectly modified."
        }
      ],
      "FailedInnerCall()": [
        {
          "details": "A call to an address target failed. The target may have reverted."
        }
      ],
      "InvalidAccountNonce(address,uint256)": [
        {
          "details": "The nonce used for an `account` is not the expected current nonce."
        }
      ],
      "InvalidInitialization()": [
        {
          "details": "The contract is already initialized."
        }
      ],
      "NotInitializing()": [
        {
          "details": "The contract is not initializing."
        }
      ],
      "OwnableInvalidOwner(address)": [
        {
          "details": "The owner is not a valid owner account. (eg. `address(0)`)"
        }
      ],
      "OwnableUnauthorizedAccount(address)": [
        {
          "details": "The caller account is not authorized to perform an operation."
        }
      ],
      "SafeCastOverflowedUintDowncast(uint8,uint256)": [
        {
          "details": "Value doesn't fit in an uint of `bits` size."
        }
      ],
      "UUPSUnauthorizedCallContext()": [
        {
          "details": "The call is from an unauthorized context."
        }
      ],
      "UUPSUnsupportedProxiableUUID(bytes32)": [
        {
          "details": "The storage `slot` is unsupported as a UUID."
        }
      ],
      "VotesExpiredSignature(uint256)": [
        {
          "details": "The signature used has expired."
        }
      ]
    },
    "events": {
      "Approval(address,address,uint256)": {
        "details": "Emitted when the allowance of a `spender` for an `owner` is set by a call to {approve}. `value` is the new allowance."
      },
      "DelegateChanged(address,address,address)": {
        "details": "Emitted when an account changes their delegate."
      },
      "DelegateVotesChanged(address,uint256,uint256)": {
        "details": "Emitted when a token transfer or delegate change results in changes to a delegate's number of voting units."
      },
      "EIP712DomainChanged()": {
        "details": "MAY be emitted to signal that the domain could have changed."
      },
      "Initialized(uint64)": {
        "details": "Triggered when the contract has been initialized or reinitialized."
      },
      "Transfer(address,address,uint256)": {
        "details": "Emitted when `value` tokens are moved from one account (`from`) to another (`to`). Note that `value` may be zero."
      },
      "Upgraded(address)": {
        "details": "Emitted when the implementation is upgraded."
      }
    },
    "kind": "dev",
    "methods": {
      "CLOCK_MODE()": {
        "details": "Machine-readable description of the clock as specified in EIP-6372."
      },
      "DOMAIN_SEPARATOR()": {
        "details": "Returns the domain separator used in the encoding of the signature for {permit}, as defined by {EIP712}."
      },
      "allowance(address,address)": {
        "details": "See {IERC20-allowance}."
      },
      "approve(address,uint256)": {
        "details": "See {IERC20-approve}. NOTE: If `value` is the maximum `uint256`, the allowance is not updated on `transferFrom`. This is semantically equivalent to an infinite approval. Requirements: - `spender` cannot be the zero address."
      },
      "balanceOf(address)": {
        "details": "See {IERC20-balanceOf}."
      },
      "checkpoints(address,uint32)": {
        "details": "Get the `pos`-th checkpoint for `account`."
      },
      "clock()": {
        "details": "Clock used for flagging checkpoints. Can be overridden to implement timestamp based checkpoints (and voting), in which case {CLOCK_MODE} should be overridden as well to match."
      },
      "constructor": {
        "custom:oz-upgrades-unsafe-allow": "constructor"
      },
      "decimals()": {
        "details": "Returns the number of decimals used to get its user representation. For example, if `decimals` equals `2`, a balance of `505` tokens should be displayed to a user as `5.05` (`505 / 10 ** 2`). Tokens usually opt for a value of 18, imitating the relationship between Ether and Wei. This is the default value returned by this function, unless it's overridden. NOTE: This information is only used for _display_ purposes: it in no way affects any of the arithmetic of the contract, including {IERC20-balanceOf} and {IERC20-transfer}."
      },
      "delegate(address)": {
        "details": "Delegates votes from the sender to `delegatee`."
      },
      "delegateBySig(address,uint256,uint256,uint8,bytes32,bytes32)": {
        "details": "Delegates votes from signer to `delegatee`."
      },
      "delegates(address)": {
        "details": "Returns the delegate that `account` has chosen."
      },
      "eip712Domain()": {
        "details": "See {IERC-5267}."
      },
      "getPastTotalSupply(uint256)": {
        "details": "Returns the total supply of votes available at a specific moment in the past. If the `clock()` is configured to use block numbers, this will return the value at the end of the corresponding block. NOTE: This value is the sum of all available votes, which is not necessarily the sum of all delegated votes. Votes that have not been delegated are still part of total supply, even though they would not participate in a vote. Requirements: - `timepoint` must be in the past. If operating using block numbers, the block must be already mined."
      },
      "getPastVotes(address,uint256)": {
        "details": "Returns the amount of votes that `account` had at a specific moment in the past. If the `clock()` is configured to use block numbers, this will return the value at the end of the corresponding block. Requirements: - `timepoint` must be in the past. If operating using block numbers, the block must be already mined."
      },
      "getVotes(address)": {
        "details": "Returns the current amount of votes that `account` has."
      },
      "name()": {
        "details": "Returns the name of the token."
      },
      "numCheckpoints(address)": {
        "details": "Get number of checkpoints for `account`."
      },
      "owner()": {
        "details": "Returns the address of the current owner."
      },
      "permit(address,address,uint256,uint256,uint8,bytes32,bytes32)": {
        "details": "Sets `value` as the allowance of `spender` over ``owner``'s tokens, given ``owner``'s signed approval. IMPORTANT: The same issues {IERC20-approve} has related to transaction ordering also apply here. Emits an {Approval} event. Requirements: - `spender` cannot be the zero address. - `deadline` must be a timestamp in the future. - `v`, `r` and `s` must be a valid `secp256k1` signature from `owner` over the EIP712-formatted function arguments. - the signature must use ``owner``'s current nonce (see {nonces}). For more information on the signature format, see the https://eips.ethereum.org/EIPS/eip-2612#specification[relevant EIP section]. CAUTION: See Security Considerations above."
      },
      "proxiableUUID()": {
        "details": "Implementation of the ERC1822 {proxiableUUID} function. This returns the storage slot used by the implementation. It is used to validate the implementation's compatibility when performing an upgrade. IMPORTANT: A proxy pointing at a proxiable contract should not be considered proxiable itself, because this risks bricking a proxy that upgrades to it, by delegating to itself until out of gas. Thus it is critical that this function revert if invoked through a proxy. This is guaranteed by the `notDelegated` modifier."
      },
      "renounceOwnership()": {
        "details": "Leaves the contract without owner. It will not be possible to call `onlyOwner` functions. Can only be called by the current owner. NOTE: Renouncing ownership will leave the contract without an owner, thereby disabling any functionality that is only available to the owner."
      },
      "symbol()": {
        "details": "Returns the symbol of the token, usually a shorter version of the name."
      },
      "totalSupply()": {
        "details": "See {IERC20-totalSupply}."
      },
      "transfer(address,uint256)": {
        "details": "See {IERC20-transfer}. Requirements: - `to` cannot be the zero address. - the caller must have a balance of at least `value`."
      },
      "transferFrom(address,address,uint256)": {
        "details": "See {IERC20-transferFrom}. Emits an {Approval} event indicating the updated allowance. This is not required by the EIP. See the note at the beginning of {ERC20}. NOTE: Does not update the allowance if the current allowance is the maximum `uint256`. Requirements: - `from` and `to` cannot be the zero address. - `from` must have a balance of at least `value`. - the caller must have allowance for ``from``'s tokens of at least `value`."
      },
      "transferOwnership(address)": {
        "details": "Transfers ownership of the contract to a new account (`newOwner`). Can only be called by the current owner."
      },
      "upgradeToAndCall(address,bytes)": {
        "custom:oz-upgrades-unsafe-allow-reachable": "delegatecall",
        "details": "Upgrade the implementation of the proxy to `newImplementation`, and subsequently execute the function call encoded in `data`. Calls {_authorizeUpgrade}. Emits an {Upgraded} event."
      }
    },
    "version": 1
  },
  "userdoc": {
    "kind": "user",
    "methods": {},
    "version": 1
  },
  "storageLayout": {
    "storage": [],
    "types": null
  }
}