{
  "address": "0xD12CC19a45CB8a69FEB062d2acC9C65816B3159f",
  "abi": [
    {
      "inputs": [
        {
          "internalType": "contract FluenceToken",
          "name": "_token",
          "type": "address"
        },
        {
          "internalType": "contract Executor",
          "name": "_executor",
          "type": "address"
        },
        {
          "internalType": "bytes32",
          "name": "_merkleRoot",
          "type": "bytes32"
        },
        {
          "internalType": "uint256",
          "name": "_halvePeriod",
          "type": "uint256"
        },
        {
          "internalType": "uint256",
          "name": "_initialReward",
          "type": "uint256"
        },
        {
          "internalType": "uint256",
          "name": "_claimingPeriod",
          "type": "uint256"
        }
      ],
      "stateMutability": "nonpayable",
      "type": "constructor"
    },
    {
      "anonymous": false,
      "inputs": [
        {
          "indexed": false,
          "internalType": "uint256",
          "name": "userId",
          "type": "uint256"
        },
        {
          "indexed": false,
          "internalType": "address",
          "name": "account",
          "type": "address"
        },
        {
          "indexed": false,
          "internalType": "uint256",
          "name": "amount",
          "type": "uint256"
        },
        {
          "indexed": false,
          "internalType": "bytes32",
          "name": "leaf",
          "type": "bytes32"
        }
      ],
      "name": "Claimed",
      "type": "event"
    },
    {
      "anonymous": false,
      "inputs": [
        {
          "indexed": false,
          "internalType": "uint256",
          "name": "amount",
          "type": "uint256"
        }
      ],
      "name": "TransferUnclaimed",
      "type": "event"
    },
    {
      "inputs": [
        {
          "internalType": "uint32",
          "name": "userId",
          "type": "uint32"
        },
        {
          "internalType": "bytes32[]",
          "name": "merkleProof",
          "type": "bytes32[]"
        },
        {
          "internalType": "address",
          "name": "temporaryAddress",
          "type": "address"
        },
        {
          "internalType": "bytes",
          "name": "signature",
          "type": "bytes"
        }
      ],
      "name": "claimTokens",
      "outputs": [],
      "stateMutability": "nonpayable",
      "type": "function"
    },
    {
      "inputs": [],
      "name": "claimingPeriod",
      "outputs": [
        {
          "internalType": "uint256",
          "name": "",
          "type": "uint256"
        }
      ],
      "stateMutability": "view",
      "type": "function"
    },
    {
      "inputs": [],
      "name": "currentReward",
      "outputs": [
        {
          "internalType": "uint256",
          "name": "",
          "type": "uint256"
        }
      ],
      "stateMutability": "view",
      "type": "function"
    },
    {
      "inputs": [],
      "name": "deployTime",
      "outputs": [
        {
          "internalType": "uint256",
          "name": "",
          "type": "uint256"
        }
      ],
      "stateMutability": "view",
      "type": "function"
    },
    {
      "inputs": [],
      "name": "executor",
      "outputs": [
        {
          "internalType": "contract Executor",
          "name": "",
          "type": "address"
        }
      ],
      "stateMutability": "view",
      "type": "function"
    },
    {
      "inputs": [],
      "name": "halvePeriod",
      "outputs": [
        {
          "internalType": "uint256",
          "name": "",
          "type": "uint256"
        }
      ],
      "stateMutability": "view",
      "type": "function"
    },
    {
      "inputs": [],
      "name": "initialReward",
      "outputs": [
        {
          "internalType": "uint256",
          "name": "",
          "type": "uint256"
        }
      ],
      "stateMutability": "view",
      "type": "function"
    },
    {
      "inputs": [
        {
          "internalType": "uint256",
          "name": "index",
          "type": "uint256"
        }
      ],
      "name": "isClaimed",
      "outputs": [
        {
          "internalType": "bool",
          "name": "",
          "type": "bool"
        }
      ],
      "stateMutability": "view",
      "type": "function"
    },
    {
      "inputs": [],
      "name": "isClaimingActive",
      "outputs": [
        {
          "internalType": "bool",
          "name": "",
          "type": "bool"
        }
      ],
      "stateMutability": "view",
      "type": "function"
    },
    {
      "inputs": [],
      "name": "merkleRoot",
      "outputs": [
        {
          "internalType": "bytes32",
          "name": "",
          "type": "bytes32"
        }
      ],
      "stateMutability": "view",
      "type": "function"
    },
    {
      "inputs": [],
      "name": "token",
      "outputs": [
        {
          "internalType": "contract FluenceToken",
          "name": "",
          "type": "address"
        }
      ],
      "stateMutability": "view",
      "type": "function"
    },
    {
      "inputs": [],
      "name": "transferUnclaimed",
      "outputs": [],
      "stateMutability": "nonpayable",
      "type": "function"
    }
  ],
  "transactionHash": "0x946bd947809bc81d43c622ebefd05e0ed3c76598afd5667acecdef09f02f5dce",
  "args": [
    "0x04f5aF6de189C63EC010d4D80287cc2bbC8e0b39",
    "0x2b206074701A08752732c3BF358113d939658530",
    "0x72f0c8259dc732f01dca1b0e0525e71a44fb0ce58429355391fb2f0941549c6d",
    2592000,
    "1000000000000000000",
    2592000
  ],
  "numDeployments": 1,
  "solcInputHash": "79f6b4c9dbcdc8511342d44763c258c7",
  "bytecode": "0x61016060405234801561001157600080fd5b5060405162001878380380620018788339810160408190526100329161007d565b6001600160a01b039586166080529390941660a05260e0919091526101005261012091909152610140524260c0526100db565b6001600160a01b038116811461007a57600080fd5b50565b60008060008060008060c0878903121561009657600080fd5b86516100a181610065565b60208801519096506100b281610065565b6040880151606089015160808a015160a0909a0151989b929a5090989097909650945092505050565b60805160a05160c05160e0516101005161012051610140516116fd6200017b6000396000818161013801526103260152600081816101a301526102f4015260008181610229015261028a01526000818160f901526106e2015260008181610169015281816102ae01526103470152600081816101ca01526104da0152600081816102500152818161041c015281816104b801526108f301526116fd6000f3fe608060405234801561001057600080fd5b50600436106100d45760003560e01c80639e34070f11610081578063e30462341161005b578063e304623414610211578063ec43277214610224578063fc0c546a1461024b57600080fd5b80639e34070f1461018b578063abee967c1461019e578063c34c08e5146101c557600080fd5b80634dbcb4c4116100b25780634dbcb4c41461013357806352e88c841461015a5780637a40624b1461016457600080fd5b806307621eca146100d95780632eb4a7ab146100f45780633732ad1c1461011b575b600080fd5b6100e1610272565b6040519081526020015b60405180910390f35b6100e17f000000000000000000000000000000000000000000000000000000000000000081565b61012361031f565b60405190151581526020016100eb565b6100e17f000000000000000000000000000000000000000000000000000000000000000081565b610162610372565b005b6100e17f000000000000000000000000000000000000000000000000000000000000000081565b610123610199366004611229565b610536565b6100e17f000000000000000000000000000000000000000000000000000000000000000081565b6101ec7f000000000000000000000000000000000000000000000000000000000000000081565b60405173ffffffffffffffffffffffffffffffffffffffff90911681526020016100eb565b61016261021f3660046112ad565b610577565b6100e17f000000000000000000000000000000000000000000000000000000000000000081565b6101ec7f000000000000000000000000000000000000000000000000000000000000000081565b600061027c61031f565b6102865750600090565b60007f00000000000000000000000000000000000000000000000000000000000000006102d37f0000000000000000000000000000000000000000000000000000000000000000426113a7565b6102dd91906113ed565b905060006102ec826002611521565b9050610318817f00000000000000000000000000000000000000000000000000000000000000006113ed565b9250505090565b600061036b7f00000000000000000000000000000000000000000000000000000000000000007f000000000000000000000000000000000000000000000000000000000000000061152d565b4210905090565b60008061037d61031f565b1515146103eb576040517f08c379a000000000000000000000000000000000000000000000000000000000815260206004820152601f60248201527f436c61696d696e6720737461747573206e6f742061732065787065637465640060448201526064015b60405180910390fd5b6040517f70a082310000000000000000000000000000000000000000000000000000000081523060048201526000907f000000000000000000000000000000000000000000000000000000000000000073ffffffffffffffffffffffffffffffffffffffff16906370a0823190602401602060405180830381865afa158015610478573d6000803e3d6000fd5b505050506040513d601f19601f8201168201806040525081019061049c9190611545565b90506104ff73ffffffffffffffffffffffffffffffffffffffff7f0000000000000000000000000000000000000000000000000000000000000000167f000000000000000000000000000000000000000000000000000000000000000083610974565b6040518181527f0ddb3ab0ee452a393437c5d8f69f476f1dce0fae03bf5942b36a4e23c3d378369060200160405180910390a15050565b600080610545610100846113ed565b905060006105556101008561155e565b60009283526020839052604090922054600190921b9182169091149392505050565b60018061058261031f565b1515146105eb576040517f08c379a000000000000000000000000000000000000000000000000000000000815260206004820152601f60248201527f436c61696d696e6720737461747573206e6f742061732065787065637465640060448201526064016103e2565b6105fa8763ffffffff16610536565b15610661576040517f08c379a000000000000000000000000000000000000000000000000000000000815260206004820152601660248201527f546f6b656e7320616c726561647920636c61696d65640000000000000000000060448201526064016103e2565b6040805163ffffffff8916602082015273ffffffffffffffffffffffffffffffffffffffff86169181019190915260009060600160405160208183030381529060405280519060200120905061070d8787808060200260200160405190810160405280939291908181526020018383602002808284376000920191909152507f00000000000000000000000000000000000000000000000000000000000000009250859150610a069050565b610773576040517f08c379a000000000000000000000000000000000000000000000000000000000815260206004820152601460248201527f56616c69642070726f6f6620726571756972656400000000000000000000000060448201526064016103e2565b6040517f19457468657265756d205369676e6564204d6573736167653a0a32300000000060208201527fffffffffffffffffffffffffffffffffffffffff0000000000000000000000003360601b16603c82015260009060500160405160208183030381529060405280519060200120905060006108278287878080601f016020809104026020016040519081016040528093929190818152602001838380828437600092019190915250610a1e92505050565b90508673ffffffffffffffffffffffffffffffffffffffff168173ffffffffffffffffffffffffffffffffffffffff16146108be576040517f08c379a000000000000000000000000000000000000000000000000000000000815260206004820152601160248201527f496e76616c6964207369676e617475726500000000000000000000000000000060448201526064016103e2565b6108cd8a63ffffffff16610a44565b60006108d7610272565b905061091a73ffffffffffffffffffffffffffffffffffffffff7f0000000000000000000000000000000000000000000000000000000000000000163383610974565b6040805163ffffffff8d168152336020820152908101829052606081018590527f04672052dcb6b5b19a9cc2ec1b8f447f1f5e47b5e24cfa5e4ffb640d63ca2be79060800160405180910390a15050505050505050505050565b6040805173ffffffffffffffffffffffffffffffffffffffff8416602482015260448082018490528251808303909101815260649091019091526020810180517bffffffffffffffffffffffffffffffffffffffffffffffffffffffff167fa9059cbb00000000000000000000000000000000000000000000000000000000179052610a01908490610a82565b505050565b600082610a138584610b8e565b1490505b9392505050565b6000806000610a2d8585610bfa565b91509150610a3a81610c68565b5090505b92915050565b6000610a52610100836113ed565b90506000610a626101008461155e565b6000928352602083905260409092208054600190931b9092179091555050565b6000610ae4826040518060400160405280602081526020017f5361666545524332303a206c6f772d6c6576656c2063616c6c206661696c65648152508573ffffffffffffffffffffffffffffffffffffffff16610ebf9092919063ffffffff16565b805190915015610a015780806020019051810190610b029190611572565b610a01576040517f08c379a000000000000000000000000000000000000000000000000000000000815260206004820152602a60248201527f5361666545524332303a204552433230206f7065726174696f6e20646964206e60448201527f6f7420737563636565640000000000000000000000000000000000000000000060648201526084016103e2565b600081815b8451811015610a3a576000858281518110610bb057610bb0611594565b60200260200101519050808311610bd65760008381526020829052604090209250610be7565b600081815260208490526040902092505b5080610bf2816115c3565b915050610b93565b6000808251604103610c305760208301516040840151606085015160001a610c2487828585610ed6565b94509450505050610c61565b8251604003610c595760208301516040840151610c4e868383610fee565b935093505050610c61565b506000905060025b9250929050565b6000816004811115610c7c57610c7c6115fb565b03610c845750565b6001816004811115610c9857610c986115fb565b03610cff576040517f08c379a000000000000000000000000000000000000000000000000000000000815260206004820152601860248201527f45434453413a20696e76616c6964207369676e6174757265000000000000000060448201526064016103e2565b6002816004811115610d1357610d136115fb565b03610d7a576040517f08c379a000000000000000000000000000000000000000000000000000000000815260206004820152601f60248201527f45434453413a20696e76616c6964207369676e6174757265206c656e6774680060448201526064016103e2565b6003816004811115610d8e57610d8e6115fb565b03610e1b576040517f08c379a000000000000000000000000000000000000000000000000000000000815260206004820152602260248201527f45434453413a20696e76616c6964207369676e6174757265202773272076616c60448201527f756500000000000000000000000000000000000000000000000000000000000060648201526084016103e2565b6004816004811115610e2f57610e2f6115fb565b03610ebc576040517f08c379a000000000000000000000000000000000000000000000000000000000815260206004820152602260248201527f45434453413a20696e76616c6964207369676e6174757265202776272076616c60448201527f756500000000000000000000000000000000000000000000000000000000000060648201526084016103e2565b50565b6060610ece8484600085611040565b949350505050565b6000807f7fffffffffffffffffffffffffffffff5d576e7357a4501ddfe92f46681b20a0831115610f0d5750600090506003610fe5565b8460ff16601b14158015610f2557508460ff16601c14155b15610f365750600090506004610fe5565b6040805160008082526020820180845289905260ff881692820192909252606081018690526080810185905260019060a0016020604051602081039080840390855afa158015610f8a573d6000803e3d6000fd5b50506040517fffffffffffffffffffffffffffffffffffffffffffffffffffffffffffffffe0015191505073ffffffffffffffffffffffffffffffffffffffff8116610fde57600060019250925050610fe5565b9150600090505b94509492505050565b6000807f7fffffffffffffffffffffffffffffffffffffffffffffffffffffffffffffff83168161102460ff86901c601b61152d565b905061103287828885610ed6565b935093505050935093915050565b6060824710156110d2576040517f08c379a000000000000000000000000000000000000000000000000000000000815260206004820152602660248201527f416464726573733a20696e73756666696369656e742062616c616e636520666f60448201527f722063616c6c000000000000000000000000000000000000000000000000000060648201526084016103e2565b73ffffffffffffffffffffffffffffffffffffffff85163b611150576040517f08c379a000000000000000000000000000000000000000000000000000000000815260206004820152601d60248201527f416464726573733a2063616c6c20746f206e6f6e2d636f6e747261637400000060448201526064016103e2565b6000808673ffffffffffffffffffffffffffffffffffffffff168587604051611179919061165a565b60006040518083038185875af1925050503d80600081146111b6576040519150601f19603f3d011682016040523d82523d6000602084013e6111bb565b606091505b50915091506111cb8282866111d6565b979650505050505050565b606083156111e5575081610a17565b8251156111f55782518084602001fd5b816040517f08c379a00000000000000000000000000000000000000000000000000000000081526004016103e29190611676565b60006020828403121561123b57600080fd5b5035919050565b803573ffffffffffffffffffffffffffffffffffffffff8116811461126657600080fd5b919050565b60008083601f84011261127d57600080fd5b50813567ffffffffffffffff81111561129557600080fd5b602083019150836020828501011115610c6157600080fd5b600080600080600080608087890312156112c657600080fd5b863563ffffffff811681146112da57600080fd5b9550602087013567ffffffffffffffff808211156112f757600080fd5b818901915089601f83011261130b57600080fd5b81358181111561131a57600080fd5b8a60208260051b850101111561132f57600080fd5b602083019750955061134360408a01611242565b9450606089013591508082111561135957600080fd5b5061136689828a0161126b565b979a9699509497509295939492505050565b7f4e487b7100000000000000000000000000000000000000000000000000000000600052601160045260246000fd5b6000828210156113b9576113b9611378565b500390565b7f4e487b7100000000000000000000000000000000000000000000000000000000600052601260045260246000fd5b6000826113fc576113fc6113be565b500490565b600181815b8085111561145a57817fffffffffffffffffffffffffffffffffffffffffffffffffffffffffffffffff0482111561144057611440611378565b8085161561144d57918102915b93841c9390800290611406565b509250929050565b60008261147157506001610a3e565b8161147e57506000610a3e565b8160018114611494576002811461149e576114ba565b6001915050610a3e565b60ff8411156114af576114af611378565b50506001821b610a3e565b5060208310610133831016604e8410600b84101617156114dd575081810a610a3e565b6114e78383611401565b807fffffffffffffffffffffffffffffffffffffffffffffffffffffffffffffffff0482111561151957611519611378565b029392505050565b6000610a178383611462565b6000821982111561154057611540611378565b500190565b60006020828403121561155757600080fd5b5051919050565b60008261156d5761156d6113be565b500690565b60006020828403121561158457600080fd5b81518015158114610a1757600080fd5b7f4e487b7100000000000000000000000000000000000000000000000000000000600052603260045260246000fd5b60007fffffffffffffffffffffffffffffffffffffffffffffffffffffffffffffffff82036115f4576115f4611378565b5060010190565b7f4e487b7100000000000000000000000000000000000000000000000000000000600052602160045260246000fd5b60005b8381101561164557818101518382015260200161162d565b83811115611654576000848401525b50505050565b6000825161166c81846020870161162a565b9190910192915050565b602081526000825180602084015261169581604085016020870161162a565b601f017fffffffffffffffffffffffffffffffffffffffffffffffffffffffffffffffe016919091016040019291505056fea264697066735822122090e0ed4fa1a1ce28aef72a50c3e4c59a8d2481ae7a1e34b24c3775bb5cf0be4e64736f6c634300080f0033",
  "devdoc": {
    "kind": "dev",
    "methods": {
      "claimTokens(uint32,bytes32[],address,bytes)": {
        "params": {
          "merkleProof": "- proof hashes for leaf",
          "signature": "- signature of temporary Ethereum address*",
          "temporaryAddress": "- temporary Ethereum address that's used only for signing",
          "userId": "- serves as nonce - only one claim per user_id"
        }
      },
      "isClaimed(uint256)": {
        "details": "fork from uniswap merkle distributor, unmodified",
        "returns": {
          "_0": "- boolean*"
        }
      }
    },
    "version": 1
  },
  "userdoc": {
    "kind": "user",
    "methods": {
      "claimTokens(uint32,bytes32[],address,bytes)": {
        "notice": "process incoming token claims, must be signed by <signer>"
      },
      "currentReward()": {
        "notice": "Returns current size of the reward in tokens*"
      },
      "isClaimed(uint256)": {
        "notice": "checks claimedBitMap to see if if user_id is 0/1"
      },
      "isClaimingActive()": {
        "notice": "Returns true if this contract is active, false otherwise"
      },
      "transferUnclaimed()": {
        "notice": "used to move any remaining tokens out of the contract after expiration*"
      }
    },
    "version": 1
  },
  "storageLayout": {
    "storage": [
      {
        "astId": 12019,
        "contract": "contracts/DevRewardDistributor.sol:DevRewardDistributor",
        "label": "claimedBitMap",
        "offset": 0,
        "slot": "0",
        "type": "t_mapping(t_uint256,t_uint256)"
      }
    ],
    "types": {
      "t_mapping(t_uint256,t_uint256)": {
        "encoding": "mapping",
        "key": "t_uint256",
        "label": "mapping(uint256 => uint256)",
        "numberOfBytes": "32",
        "value": "t_uint256"
      },
      "t_uint256": {
        "encoding": "inplace",
        "label": "uint256",
        "numberOfBytes": "32"
      }
    }
  }
}