{
  "address": "0x217183bF6fc174F8E2e34E44a5848f14ebf03334",
  "abi": [
    {
      "inputs": [
        {
          "internalType": "contract ILiquidityBootstrappingPoolFactory",
          "name": "_balancerLBPFactory",
          "type": "address"
        },
        {
          "internalType": "contract IUniswapV3Factory",
          "name": "_uniswapFactory",
          "type": "address"
        },
        {
          "internalType": "contract IBalancerVault",
          "name": "_balancerVault",
          "type": "address"
        },
        {
          "internalType": "address",
          "name": "_executor",
          "type": "address"
        },
        {
          "internalType": "contract IERC20",
          "name": "token0_",
          "type": "address"
        },
        {
          "internalType": "contract IERC20",
          "name": "token1_",
          "type": "address"
        }
      ],
      "stateMutability": "nonpayable",
      "type": "constructor"
    },
    {
      "anonymous": false,
      "inputs": [
        {
          "indexed": false,
          "internalType": "int24",
          "name": "tickLower",
          "type": "int24"
        },
        {
          "indexed": false,
          "internalType": "int24",
          "name": "tickUpper",
          "type": "int24"
        },
        {
          "indexed": false,
          "internalType": "uint128",
          "name": "amount",
          "type": "uint128"
        }
      ],
      "name": "AddLiquidityToUniswapLP",
      "type": "event"
    },
    {
      "anonymous": false,
      "inputs": [
        {
          "indexed": false,
          "internalType": "contract ILiquidityBootstrappingPool",
          "name": "lbp",
          "type": "address"
        },
        {
          "indexed": false,
          "internalType": "uint256[]",
          "name": "weights",
          "type": "uint256[]"
        },
        {
          "indexed": false,
          "internalType": "uint256[]",
          "name": "endWeights",
          "type": "uint256[]"
        },
        {
          "indexed": false,
          "internalType": "uint256[]",
          "name": "initBalances",
          "type": "uint256[]"
        },
        {
          "indexed": false,
          "internalType": "uint256",
          "name": "lbpPoolDuration",
          "type": "uint256"
        },
        {
          "indexed": false,
          "internalType": "uint256",
          "name": "swapFeePercentage",
          "type": "uint256"
        }
      ],
      "name": "CreateBalancerLBP",
      "type": "event"
    },
    {
      "anonymous": false,
      "inputs": [
        {
          "indexed": false,
          "internalType": "contract IUniswapV3Pool",
          "name": "lp",
          "type": "address"
        }
      ],
      "name": "CreateUniswapLP",
      "type": "event"
    },
    {
      "anonymous": false,
      "inputs": [
        {
          "indexed": false,
          "internalType": "uint256",
          "name": "amount0",
          "type": "uint256"
        },
        {
          "indexed": false,
          "internalType": "uint256",
          "name": "amount1",
          "type": "uint256"
        }
      ],
      "name": "ExitFromBalancerLBP",
      "type": "event"
    },
    {
      "anonymous": false,
      "inputs": [
        {
          "indexed": true,
          "internalType": "address",
          "name": "previousOwner",
          "type": "address"
        },
        {
          "indexed": true,
          "internalType": "address",
          "name": "newOwner",
          "type": "address"
        }
      ],
      "name": "OwnershipTransferred",
      "type": "event"
    },
    {
      "anonymous": false,
      "inputs": [
        {
          "indexed": false,
          "internalType": "uint256",
          "name": "amount0Owed",
          "type": "uint256"
        },
        {
          "indexed": false,
          "internalType": "uint256",
          "name": "amount01wed",
          "type": "uint256"
        }
      ],
      "name": "UniswapCallback",
      "type": "event"
    },
    {
      "anonymous": false,
      "inputs": [
        {
          "indexed": false,
          "internalType": "contract IERC20",
          "name": "token",
          "type": "address"
        },
        {
          "indexed": false,
          "internalType": "uint256",
          "name": "amount",
          "type": "uint256"
        }
      ],
      "name": "Withdraw",
      "type": "event"
    },
    {
      "inputs": [],
      "name": "UNISWAP_FEE",
      "outputs": [
        {
          "internalType": "uint24",
          "name": "",
          "type": "uint24"
        }
      ],
      "stateMutability": "view",
      "type": "function"
    },
    {
      "inputs": [
        {
          "internalType": "int24",
          "name": "tickLower",
          "type": "int24"
        },
        {
          "internalType": "int24",
          "name": "tickUpper",
          "type": "int24"
        },
        {
          "internalType": "uint128",
          "name": "amount",
          "type": "uint128"
        }
      ],
      "name": "addLiquidityToUniswapLP",
      "outputs": [],
      "stateMutability": "nonpayable",
      "type": "function"
    },
    {
      "inputs": [],
      "name": "balancerLBPFactory",
      "outputs": [
        {
          "internalType": "contract ILiquidityBootstrappingPoolFactory",
          "name": "",
          "type": "address"
        }
      ],
      "stateMutability": "view",
      "type": "function"
    },
    {
      "inputs": [],
      "name": "balancerVault",
      "outputs": [
        {
          "internalType": "contract IBalancerVault",
          "name": "",
          "type": "address"
        }
      ],
      "stateMutability": "view",
      "type": "function"
    },
    {
      "inputs": [
        {
          "internalType": "uint256[]",
          "name": "weights",
          "type": "uint256[]"
        },
        {
          "internalType": "uint256[]",
          "name": "endWeights",
          "type": "uint256[]"
        },
        {
          "internalType": "uint256[]",
          "name": "initBalances",
          "type": "uint256[]"
        },
        {
          "internalType": "uint256",
          "name": "lbpPoolDuration",
          "type": "uint256"
        },
        {
          "internalType": "uint256",
          "name": "swapFeePercentage",
          "type": "uint256"
        }
      ],
      "name": "createBalancerLBP",
      "outputs": [],
      "stateMutability": "nonpayable",
      "type": "function"
    },
    {
      "inputs": [],
      "name": "createUniswapLP",
      "outputs": [],
      "stateMutability": "nonpayable",
      "type": "function"
    },
    {
      "inputs": [],
      "name": "executor",
      "outputs": [
        {
          "internalType": "address",
          "name": "",
          "type": "address"
        }
      ],
      "stateMutability": "view",
      "type": "function"
    },
    {
      "inputs": [],
      "name": "exitFromBalancerLBP",
      "outputs": [],
      "stateMutability": "nonpayable",
      "type": "function"
    },
    {
      "inputs": [],
      "name": "lbpPoolId",
      "outputs": [
        {
          "internalType": "bytes32",
          "name": "",
          "type": "bytes32"
        }
      ],
      "stateMutability": "view",
      "type": "function"
    },
    {
      "inputs": [],
      "name": "liquidityBootstrappingPool",
      "outputs": [
        {
          "internalType": "contract ILiquidityBootstrappingPool",
          "name": "",
          "type": "address"
        }
      ],
      "stateMutability": "view",
      "type": "function"
    },
    {
      "inputs": [],
      "name": "owner",
      "outputs": [
        {
          "internalType": "address",
          "name": "",
          "type": "address"
        }
      ],
      "stateMutability": "view",
      "type": "function"
    },
    {
      "inputs": [],
      "name": "renounceOwnership",
      "outputs": [],
      "stateMutability": "nonpayable",
      "type": "function"
    },
    {
      "inputs": [
        {
          "internalType": "bool",
          "name": "swapEnabled",
          "type": "bool"
        }
      ],
      "name": "setSwapEnabledInBalancerLBP",
      "outputs": [],
      "stateMutability": "nonpayable",
      "type": "function"
    },
    {
      "inputs": [],
      "name": "token0",
      "outputs": [
        {
          "internalType": "contract IERC20",
          "name": "",
          "type": "address"
        }
      ],
      "stateMutability": "view",
      "type": "function"
    },
    {
      "inputs": [],
      "name": "token1",
      "outputs": [
        {
          "internalType": "contract IERC20",
          "name": "",
          "type": "address"
        }
      ],
      "stateMutability": "view",
      "type": "function"
    },
    {
      "inputs": [
        {
          "internalType": "address",
          "name": "newOwner",
          "type": "address"
        }
      ],
      "name": "transferOwnership",
      "outputs": [],
      "stateMutability": "nonpayable",
      "type": "function"
    },
    {
      "inputs": [],
      "name": "uniswapFactory",
      "outputs": [
        {
          "internalType": "contract IUniswapV3Factory",
          "name": "",
          "type": "address"
        }
      ],
      "stateMutability": "view",
      "type": "function"
    },
    {
      "inputs": [],
      "name": "uniswapPool",
      "outputs": [
        {
          "internalType": "contract IUniswapV3Pool",
          "name": "",
          "type": "address"
        }
      ],
      "stateMutability": "view",
      "type": "function"
    },
    {
      "inputs": [
        {
          "internalType": "uint256",
          "name": "amount0Owed",
          "type": "uint256"
        },
        {
          "internalType": "uint256",
          "name": "amount1Owed",
          "type": "uint256"
        },
        {
          "internalType": "bytes",
          "name": "",
          "type": "bytes"
        }
      ],
      "name": "uniswapV3MintCallback",
      "outputs": [],
      "stateMutability": "nonpayable",
      "type": "function"
    },
    {
      "inputs": [
        {
          "internalType": "contract IERC20",
          "name": "token",
          "type": "address"
        },
        {
          "internalType": "uint256",
          "name": "amount",
          "type": "uint256"
        }
      ],
      "name": "withdraw",
      "outputs": [],
      "stateMutability": "nonpayable",
      "type": "function"
    }
  ],
  "transactionHash": "0xf744aaf11add3f94d76a7627ba79774aa6e5cde294ba60a7f160e985032914cb",
  "args": [
    "0x41B953164995c11C81DA73D212ED8Af25741b7Ac",
    "0x1F98431c8aD98523631AE4a59f267346ea31F984",
    "0xBA12222222228d8Ba445958a75a0704d566BF2C8",
    "0x2b206074701A08752732c3BF358113d939658530",
    "0x04f5aF6de189C63EC010d4D80287cc2bbC8e0b39",
    "0x2a559fD9Ac5356b3F8eCB4a7517cC54A365a1b21"
  ],
  "numDeployments": 1,
  "solcInputHash": "79f6b4c9dbcdc8511342d44763c258c7",
  "bytecode": "0x6101406040523480156200001257600080fd5b5060405162002d1e38038062002d1e833981016040819052620000359162000140565b6200004033620000d7565b6001600160a01b0380871660805285811660a05284811660c0528381166101205281811690831610620000b95760405162461bcd60e51b815260206004820152601f60248201527f546f6b656e30206d757374206265206c657373207468616e20746f6b656e3100604482015260640160405180910390fd5b6001600160a01b0391821660e052166101005250620001d492505050565b600080546001600160a01b038381166001600160a01b0319831681178455604051919092169283917f8be0079c531659141344cd1fd0a4f28419497f9722a3daafe3b4186f6b6457e09190a35050565b6001600160a01b03811681146200013d57600080fd5b50565b60008060008060008060c087890312156200015a57600080fd5b8651620001678162000127565b60208801519096506200017a8162000127565b60408801519095506200018d8162000127565b6060880151909450620001a08162000127565b6080880151909350620001b38162000127565b60a0880151909250620001c68162000127565b809150509295509295509295565b60805160a05160c05160e0516101005161012051612a6e620002b060003960008181610321015281816106c70152611c99015260008181610348015281816105a0015281816109ec01528181611078015281816115930152818161187501526119de015260008181610176015281816104a30152818161097e0152818161105001528181611525015281816117c601526119970152600081816101c701528181610c6b01528181610d2a01528181611484015261166201526000818161027001526110ab0152600081816102d20152610a6c0152612a6e6000f3fe608060405234801561001057600080fd5b506004361061016c5760003560e01c80638da5cb5b116100cd578063c34c08e511610081578063d348799711610066578063d34879971461036a578063f2fde38b1461037d578063f3fef3a31461039057600080fd5b8063c34c08e51461031c578063d21220a71461034357600080fd5b8063ad63cacc116100b2578063ad63cacc146102cd578063bdd3d825146102f4578063c005e6841461031457600080fd5b80638da5cb5b14610292578063a1677228146102b057600080fd5b80635322cab0116101245780636a29389c116101095780636a29389c14610250578063715018a6146102635780638bdb2afa1461026b57600080fd5b80635322cab01461023557806355f2e3da1461024857600080fd5b8063196eb5f311610155578063196eb5f3146101e957806319cde9c9146101fe5780631e7436681461021557600080fd5b80630dfe168114610171578063158274a5146101c2575b600080fd5b6101987f000000000000000000000000000000000000000000000000000000000000000081565b60405173ffffffffffffffffffffffffffffffffffffffff90911681526020015b60405180910390f35b6101987f000000000000000000000000000000000000000000000000000000000000000081565b6101fc6101f7366004612284565b6103a3565b005b61020760025481565b6040519081526020016101b9565b6001546101989073ffffffffffffffffffffffffffffffffffffffff1681565b6101fc6102433660046123bd565b61079b565b6101fc610f46565b6101fc61025e366004612465565b611196565b6101fc611285565b6101987f000000000000000000000000000000000000000000000000000000000000000081565b60005473ffffffffffffffffffffffffffffffffffffffff16610198565b6102b9610bb881565b60405162ffffff90911681526020016101b9565b6101987f000000000000000000000000000000000000000000000000000000000000000081565b6003546101989073ffffffffffffffffffffffffffffffffffffffff1681565b6101fc6112f8565b6101987f000000000000000000000000000000000000000000000000000000000000000081565b6101987f000000000000000000000000000000000000000000000000000000000000000081565b6101fc610378366004612482565b611912565b6101fc61038b366004612524565b611a3d565b6101fc61039e366004612541565b611b39565b60005473ffffffffffffffffffffffffffffffffffffffff16331461040f5760405162461bcd60e51b815260206004820181905260248201527f4f776e61626c653a2063616c6c6572206973206e6f7420746865206f776e657260448201526064015b60405180910390fd5b60035473ffffffffffffffffffffffffffffffffffffffff16806104755760405162461bcd60e51b815260206004820152601b60248201527f556e697377617020706f6f6c20616c72656164792065786973747300000000006044820152606401610406565b6040517f70a082310000000000000000000000000000000000000000000000000000000081523060048201527f000000000000000000000000000000000000000000000000000000000000000073ffffffffffffffffffffffffffffffffffffffff16906370a0823190602401602060405180830381865afa1580156104ff573d6000803e3d6000fd5b505050506040513d601f19601f82011682018060405250810190610523919061256d565b6000036105725760405162461bcd60e51b815260206004820152601960248201527f496e76616c69642062616c616e6365206f6620746f6b656e30000000000000006044820152606401610406565b6040517f70a082310000000000000000000000000000000000000000000000000000000081523060048201527f000000000000000000000000000000000000000000000000000000000000000073ffffffffffffffffffffffffffffffffffffffff16906370a0823190602401602060405180830381865afa1580156105fc573d6000803e3d6000fd5b505050506040513d601f19601f82011682018060405250810190610620919061256d565b60000361066f5760405162461bcd60e51b815260206004820152601960248201527f496e76616c69642062616c616e6365206f6620746f6b656e31000000000000006044820152606401610406565b604080516000815260208101918290527f3c8a7d8d0000000000000000000000000000000000000000000000000000000090915273ffffffffffffffffffffffffffffffffffffffff821690633c8a7d8d906106f6907f00000000000000000000000000000000000000000000000000000000000000009088908890889060248101612600565b60408051808303816000875af1158015610714573d6000803e3d6000fd5b505050506040513d601f19601f820116820180604052508101906107389190612659565b505060408051600286810b825285900b60208201526fffffffffffffffffffffffffffffffff8416918101919091527f5b9e7a76c64d31aa76917e2d5f41fbbd94544b7baa959a3f02c30adb3e4bd198906060015b60405180910390a150505050565b60005473ffffffffffffffffffffffffffffffffffffffff1633146108025760405162461bcd60e51b815260206004820181905260248201527f4f776e61626c653a2063616c6c6572206973206e6f7420746865206f776e65726044820152606401610406565b60015473ffffffffffffffffffffffffffffffffffffffff16156108685760405162461bcd60e51b815260206004820152601260248201527f4c425020616c72656164792065786973747300000000000000000000000000006044820152606401610406565b84516002146108b95760405162461bcd60e51b815260206004820152601560248201527f4c425020636f6e66696773206d757374206265203200000000000000000000006044820152606401610406565b835160021461090a5760405162461bcd60e51b815260206004820152601560248201527f4c425020636f6e66696773206d757374206265203200000000000000000000006044820152606401610406565b825160021461095b5760405162461bcd60e51b815260206004820152601560248201527f4c425020636f6e66696773206d757374206265203200000000000000000000006044820152606401610406565b6040805160028082526060820183526000926020830190803683370190505090507f0000000000000000000000000000000000000000000000000000000000000000816000815181106109b0576109b061267d565b602002602001019073ffffffffffffffffffffffffffffffffffffffff16908173ffffffffffffffffffffffffffffffffffffffff16815250507f000000000000000000000000000000000000000000000000000000000000000081600181518110610a1e57610a1e61267d565b73ffffffffffffffffffffffffffffffffffffffff92831660209182029290920101526040517f236797190000000000000000000000000000000000000000000000000000000081526000917f00000000000000000000000000000000000000000000000000000000000000001690632367971990610aa99085908b9088903090889060040161272d565b6020604051808303816000875af1158015610ac8573d6000803e3d6000fd5b505050506040513d601f19601f82011682018060405250810190610aec91906127f7565b905060008173ffffffffffffffffffffffffffffffffffffffff166338fff2d06040518163ffffffff1660e01b8152600401602060405180830381865afa158015610b3b573d6000803e3d6000fd5b505050506040513d601f19601f82011682018060405250810190610b5f919061256d565b835190915060005b81811015610cdd576000858281518110610b8357610b8361267d565b602002602001015190508073ffffffffffffffffffffffffffffffffffffffff166323b872dd33308c8681518110610bbd57610bbd61267d565b60209081029190910101516040517fffffffff0000000000000000000000000000000000000000000000000000000060e086901b16815273ffffffffffffffffffffffffffffffffffffffff938416600482015292909116602483015260448201526064016020604051808303816000875af1158015610c41573d6000803e3d6000fd5b505050506040513d601f19601f82011682018060405250810190610c659190612814565b50610cca7f00000000000000000000000000000000000000000000000000000000000000008a8481518110610c9c57610c9c61267d565b60200260200101518373ffffffffffffffffffffffffffffffffffffffff16611d119092919063ffffffff16565b5080610cd581612860565b915050610b67565b506000604051806080016040528086815260200189815260200160008a604051602001610d0b929190612898565b60405160208183030381529060405281526020016000151581525090507f000000000000000000000000000000000000000000000000000000000000000073ffffffffffffffffffffffffffffffffffffffff1663b95cac28843030856040518563ffffffff1660e01b8152600401610d879493929190612915565b600060405180830381600087803b158015610da157600080fd5b505af1158015610db5573d6000803e3d6000fd5b505050508373ffffffffffffffffffffffffffffffffffffffff16633e569205428942610de2919061295e565b8c6040518463ffffffff1660e01b8152600401610e0193929190612976565b600060405180830381600087803b158015610e1b57600080fd5b505af1158015610e2f573d6000803e3d6000fd5b50506040517fe01af92c0000000000000000000000000000000000000000000000000000000081526001600482015273ffffffffffffffffffffffffffffffffffffffff8716925063e01af92c9150602401600060405180830381600087803b158015610e9b57600080fd5b505af1158015610eaf573d6000803e3d6000fd5b505050600284905550600180547fffffffffffffffffffffffff00000000000000000000000000000000000000001673ffffffffffffffffffffffffffffffffffffffff86161790556040517f19c84daf1628b8ae1dd8f18e1292dbdfccc1704dd05e25e2bab1d9a05b31eae990610f329086908d908d908d908d908d9061299e565b60405180910390a150505050505050505050565b60005473ffffffffffffffffffffffffffffffffffffffff163314610fad5760405162461bcd60e51b815260206004820181905260248201527f4f776e61626c653a2063616c6c6572206973206e6f7420746865206f776e65726044820152606401610406565b60035473ffffffffffffffffffffffffffffffffffffffff16156110135760405162461bcd60e51b815260206004820152601b60248201527f556e697377617020706f6f6c20616c72656164792065786973747300000000006044820152606401610406565b6040517fa167129500000000000000000000000000000000000000000000000000000000815273ffffffffffffffffffffffffffffffffffffffff7f0000000000000000000000000000000000000000000000000000000000000000811660048301527f000000000000000000000000000000000000000000000000000000000000000081166024830152610bb860448301526000917f00000000000000000000000000000000000000000000000000000000000000009091169063a1671295906064016020604051808303816000875af11580156110f6573d6000803e3d6000fd5b505050506040513d601f19601f8201168201806040525081019061111a91906127f7565b600380547fffffffffffffffffffffffff00000000000000000000000000000000000000001673ffffffffffffffffffffffffffffffffffffffff83169081179091556040519081529091507fea2237902d9148e1ef34b77e98f54c6dc5eea2850ac38aacd2dba1237f04d1a69060200160405180910390a150565b60005473ffffffffffffffffffffffffffffffffffffffff1633146111fd5760405162461bcd60e51b815260206004820181905260248201527f4f776e61626c653a2063616c6c6572206973206e6f7420746865206f776e65726044820152606401610406565b6001546040517fe01af92c000000000000000000000000000000000000000000000000000000008152821515600482015273ffffffffffffffffffffffffffffffffffffffff9091169063e01af92c90602401600060405180830381600087803b15801561126a57600080fd5b505af115801561127e573d6000803e3d6000fd5b5050505050565b60005473ffffffffffffffffffffffffffffffffffffffff1633146112ec5760405162461bcd60e51b815260206004820181905260248201527f4f776e61626c653a2063616c6c6572206973206e6f7420746865206f776e65726044820152606401610406565b6112f66000611efc565b565b60005473ffffffffffffffffffffffffffffffffffffffff16331461135f5760405162461bcd60e51b815260206004820181905260248201527f4f776e61626c653a2063616c6c6572206973206e6f7420746865206f776e65726044820152606401610406565b6001546040517f70a0823100000000000000000000000000000000000000000000000000000000815230600482015260009173ffffffffffffffffffffffffffffffffffffffff16906370a0823190602401602060405180830381865afa1580156113ce573d6000803e3d6000fd5b505050506040513d601f19601f820116820180604052508101906113f2919061256d565b9050600081116114445760405162461bcd60e51b815260206004820152600e60248201527f4e6f204250542062616c616e63650000000000000000000000000000000000006044820152606401610406565b6001546040517f095ea7b300000000000000000000000000000000000000000000000000000000815273ffffffffffffffffffffffffffffffffffffffff7f000000000000000000000000000000000000000000000000000000000000000081166004830152602482018490529091169063095ea7b3906044016020604051808303816000875af11580156114dd573d6000803e3d6000fd5b505050506040513d601f19601f820116820180604052508101906115019190612814565b506040805160028082526060820183526000926020830190803683370190505090507f0000000000000000000000000000000000000000000000000000000000000000816000815181106115575761155761267d565b602002602001019073ffffffffffffffffffffffffffffffffffffffff16908173ffffffffffffffffffffffffffffffffffffffff16815250507f0000000000000000000000000000000000000000000000000000000000000000816001815181106115c5576115c561267d565b73ffffffffffffffffffffffffffffffffffffffff92909216602092830291909101820152604080516080810182528381528151600280825260608201845260009492938484019383019080368337019050508152604080516000602082810182905260029383019390935260608201526080810187905291019060a00160405160208183030381529060405281526020016000151581525090507f000000000000000000000000000000000000000000000000000000000000000073ffffffffffffffffffffffffffffffffffffffff16638bdb39136002543030856040518563ffffffff1660e01b81526004016116c19493929190612915565b600060405180830381600087803b1580156116db57600080fd5b505af11580156116ef573d6000803e3d6000fd5b50506001546040517fe01af92c0000000000000000000000000000000000000000000000000000000081526000600482015273ffffffffffffffffffffffffffffffffffffffff909116925063e01af92c9150602401600060405180830381600087803b15801561175f57600080fd5b505af1158015611773573d6000803e3d6000fd5b50506040517f70a082310000000000000000000000000000000000000000000000000000000081523060048201527f07eae9c04f85383b6925d3a4e7484092b37d6ad52dfe2500b0056daac86405cb92507f000000000000000000000000000000000000000000000000000000000000000073ffffffffffffffffffffffffffffffffffffffff1691506370a0823190602401602060405180830381865afa158015611823573d6000803e3d6000fd5b505050506040513d601f19601f82011682018060405250810190611847919061256d565b6040517f70a082310000000000000000000000000000000000000000000000000000000081523060048201527f000000000000000000000000000000000000000000000000000000000000000073ffffffffffffffffffffffffffffffffffffffff16906370a0823190602401602060405180830381865afa1580156118d1573d6000803e3d6000fd5b505050506040513d601f19601f820116820180604052508101906118f5919061256d565b6040805192835260208301919091520160405180910390a1505050565b60035473ffffffffffffffffffffffffffffffffffffffff1633146119795760405162461bcd60e51b815260206004820152601160248201527f4f6e6c7920666f722074686520706f6f6c0000000000000000000000000000006044820152606401610406565b6003546119c09073ffffffffffffffffffffffffffffffffffffffff7f00000000000000000000000000000000000000000000000000000000000000008116911686611f71565b600354611a079073ffffffffffffffffffffffffffffffffffffffff7f00000000000000000000000000000000000000000000000000000000000000008116911685611f71565b60408051858152602081018590527f129602e16ca19ea3e88e92e8dcdc2c92d1e2b886d4abba30b1a12ea710b6f853910161078d565b60005473ffffffffffffffffffffffffffffffffffffffff163314611aa45760405162461bcd60e51b815260206004820181905260248201527f4f776e61626c653a2063616c6c6572206973206e6f7420746865206f776e65726044820152606401610406565b73ffffffffffffffffffffffffffffffffffffffff8116611b2d5760405162461bcd60e51b815260206004820152602660248201527f4f776e61626c653a206e6577206f776e657220697320746865207a65726f206160448201527f64647265737300000000000000000000000000000000000000000000000000006064820152608401610406565b611b3681611efc565b50565b60005473ffffffffffffffffffffffffffffffffffffffff163314611ba05760405162461bcd60e51b815260206004820181905260248201527f4f776e61626c653a2063616c6c6572206973206e6f7420746865206f776e65726044820152606401610406565b6040517f70a0823100000000000000000000000000000000000000000000000000000000815230600482015273ffffffffffffffffffffffffffffffffffffffff8316906370a0823190602401602060405180830381865afa158015611c0a573d6000803e3d6000fd5b505050506040513d601f19601f82011682018060405250810190611c2e919061256d565b600003611c7d5760405162461bcd60e51b815260206004820152600f60248201527f496e76616c69642062616c616e636500000000000000000000000000000000006044820152606401610406565b611cbe73ffffffffffffffffffffffffffffffffffffffff83167f000000000000000000000000000000000000000000000000000000000000000083611f71565b6040805173ffffffffffffffffffffffffffffffffffffffff84168152602081018390527f884edad9ce6fa2440d8a54cc123490eb96d2768479d49ff9c7366125a9424364910160405180910390a15050565b801580611db157506040517fdd62ed3e00000000000000000000000000000000000000000000000000000000815230600482015273ffffffffffffffffffffffffffffffffffffffff838116602483015284169063dd62ed3e90604401602060405180830381865afa158015611d8b573d6000803e3d6000fd5b505050506040513d601f19601f82011682018060405250810190611daf919061256d565b155b611e235760405162461bcd60e51b815260206004820152603660248201527f5361666545524332303a20617070726f76652066726f6d206e6f6e2d7a65726f60448201527f20746f206e6f6e2d7a65726f20616c6c6f77616e6365000000000000000000006064820152608401610406565b60405173ffffffffffffffffffffffffffffffffffffffff8316602482015260448101829052611ef79084907f095ea7b300000000000000000000000000000000000000000000000000000000906064015b604080517fffffffffffffffffffffffffffffffffffffffffffffffffffffffffffffffe08184030181529190526020810180517bffffffffffffffffffffffffffffffffffffffffffffffffffffffff167fffffffff0000000000000000000000000000000000000000000000000000000090931692909217909152611fc7565b505050565b6000805473ffffffffffffffffffffffffffffffffffffffff8381167fffffffffffffffffffffffff0000000000000000000000000000000000000000831681178455604051919092169283917f8be0079c531659141344cd1fd0a4f28419497f9722a3daafe3b4186f6b6457e09190a35050565b60405173ffffffffffffffffffffffffffffffffffffffff8316602482015260448101829052611ef79084907fa9059cbb0000000000000000000000000000000000000000000000000000000090606401611e75565b6000612029826040518060400160405280602081526020017f5361666545524332303a206c6f772d6c6576656c2063616c6c206661696c65648152508573ffffffffffffffffffffffffffffffffffffffff166120b99092919063ffffffff16565b805190915015611ef757808060200190518101906120479190612814565b611ef75760405162461bcd60e51b815260206004820152602a60248201527f5361666545524332303a204552433230206f7065726174696f6e20646964206e60448201527f6f742073756363656564000000000000000000000000000000000000000000006064820152608401610406565b60606120c884846000856120d2565b90505b9392505050565b60608247101561214a5760405162461bcd60e51b815260206004820152602660248201527f416464726573733a20696e73756666696369656e742062616c616e636520666f60448201527f722063616c6c00000000000000000000000000000000000000000000000000006064820152608401610406565b73ffffffffffffffffffffffffffffffffffffffff85163b6121ae5760405162461bcd60e51b815260206004820152601d60248201527f416464726573733a2063616c6c20746f206e6f6e2d636f6e74726163740000006044820152606401610406565b6000808673ffffffffffffffffffffffffffffffffffffffff1685876040516121d79190612a09565b60006040518083038185875af1925050503d8060008114612214576040519150601f19603f3d011682016040523d82523d6000602084013e612219565b606091505b5091509150612229828286612234565b979650505050505050565b606083156122435750816120cb565b8251156122535782518084602001fd5b8160405162461bcd60e51b81526004016104069190612a25565b8035600281900b811461227f57600080fd5b919050565b60008060006060848603121561229957600080fd5b6122a28461226d565b92506122b06020850161226d565b915060408401356fffffffffffffffffffffffffffffffff811681146122d557600080fd5b809150509250925092565b7f4e487b7100000000000000000000000000000000000000000000000000000000600052604160045260246000fd5b600082601f83011261232057600080fd5b8135602067ffffffffffffffff8083111561233d5761233d6122e0565b8260051b6040517fffffffffffffffffffffffffffffffffffffffffffffffffffffffffffffffe0603f83011681018181108482111715612380576123806122e0565b60405293845285810183019383810192508785111561239e57600080fd5b83870191505b84821015612229578135835291830191908301906123a4565b600080600080600060a086880312156123d557600080fd5b853567ffffffffffffffff808211156123ed57600080fd5b6123f989838a0161230f565b9650602088013591508082111561240f57600080fd5b61241b89838a0161230f565b9550604088013591508082111561243157600080fd5b5061243e8882890161230f565b9598949750949560608101359550608001359392505050565b8015158114611b3657600080fd5b60006020828403121561247757600080fd5b81356120cb81612457565b6000806000806060858703121561249857600080fd5b8435935060208501359250604085013567ffffffffffffffff808211156124be57600080fd5b818701915087601f8301126124d257600080fd5b8135818111156124e157600080fd5b8860208285010111156124f357600080fd5b95989497505060200194505050565b73ffffffffffffffffffffffffffffffffffffffff81168114611b3657600080fd5b60006020828403121561253657600080fd5b81356120cb81612502565b6000806040838503121561255457600080fd5b823561255f81612502565b946020939093013593505050565b60006020828403121561257f57600080fd5b5051919050565b60005b838110156125a1578181015183820152602001612589565b838111156125b0576000848401525b50505050565b600081518084526125ce816020860160208601612586565b601f017fffffffffffffffffffffffffffffffffffffffffffffffffffffffffffffffe0169290920160200192915050565b73ffffffffffffffffffffffffffffffffffffffff861681528460020b60208201528360020b60408201526fffffffffffffffffffffffffffffffff8316606082015260a06080820152600061222960a08301846125b6565b6000806040838503121561266c57600080fd5b505080516020909101519092909150565b7f4e487b7100000000000000000000000000000000000000000000000000000000600052603260045260246000fd5b600081518084526020808501945080840160005b838110156126f257815173ffffffffffffffffffffffffffffffffffffffff16875295820195908201906001016126c0565b509495945050505050565b600081518084526020808501945080840160005b838110156126f257815187529582019590820190600101612711565b60e08152600b60e08201527f466c75656e6365204c42500000000000000000000000000000000000000000006101008201526000610120806020840152600681840152507f464c544c425000000000000000000000000000000000000000000000000000006101408301526101608060408401526127ad818401896126ac565b905082810360608401526127c181886126fd565b6080840196909652505073ffffffffffffffffffffffffffffffffffffffff9290921660a0830152151560c09091015292915050565b60006020828403121561280957600080fd5b81516120cb81612502565b60006020828403121561282657600080fd5b81516120cb81612457565b7f4e487b7100000000000000000000000000000000000000000000000000000000600052601160045260246000fd5b60007fffffffffffffffffffffffffffffffffffffffffffffffffffffffffffffffff820361289157612891612831565b5060010190565b60ff831681526040602082015260006120c860408301846126fd565b60008151608084526128c960808501826126ac565b9050602083015184820360208601526128e282826126fd565b915050604083015184820360408601526128fc82826125b6565b9150506060830151151560608501528091505092915050565b848152600073ffffffffffffffffffffffffffffffffffffffff80861660208401528085166040840152506080606083015261295460808301846128b4565b9695505050505050565b6000821982111561297157612971612831565b500190565b83815282602082015260606040820152600061299560608301846126fd565b95945050505050565b73ffffffffffffffffffffffffffffffffffffffff8716815260c0602082015260006129cd60c08301886126fd565b82810360408401526129df81886126fd565b905082810360608401526129f381876126fd565b6080840195909552505060a00152949350505050565b60008251612a1b818460208701612586565b9190910192915050565b6020815260006120cb60208301846125b656fea2646970667358221220f888ad80ee87ab188d0e38524ffc7e1ac79b1cc5b2a4879cc4b6fa4e09c05d3064736f6c634300080f0033",
  "devdoc": {
    "kind": "dev",
    "methods": {
      "owner()": {
        "details": "Returns the address of the current owner."
      },
      "renounceOwnership()": {
        "details": "Leaves the contract without owner. It will not be possible to call `onlyOwner` functions anymore. Can only be called by the current owner. NOTE: Renouncing ownership will leave the contract without an owner, thereby removing any functionality that is only available to the owner."
      },
      "transferOwnership(address)": {
        "details": "Transfers ownership of the contract to a new account (`newOwner`). Can only be called by the current owner."
      }
    },
    "version": 1
  },
  "userdoc": {
    "kind": "user",
    "methods": {},
    "version": 1
  },
  "storageLayout": {
    "storage": [
      {
        "astId": 7123,
        "contract": "contracts/LPController.sol:LPController",
        "label": "_owner",
        "offset": 0,
        "slot": "0",
        "type": "t_address"
      },
      {
        "astId": 12877,
        "contract": "contracts/LPController.sol:LPController",
        "label": "liquidityBootstrappingPool",
        "offset": 0,
        "slot": "1",
        "type": "t_contract(ILiquidityBootstrappingPool)11988"
      },
      {
        "astId": 12879,
        "contract": "contracts/LPController.sol:LPController",
        "label": "lbpPoolId",
        "offset": 0,
        "slot": "2",
        "type": "t_bytes32"
      },
      {
        "astId": 12882,
        "contract": "contracts/LPController.sol:LPController",
        "label": "uniswapPool",
        "offset": 0,
        "slot": "3",
        "type": "t_contract(IUniswapV3Pool)11393"
      }
    ],
    "types": {
      "t_address": {
        "encoding": "inplace",
        "label": "address",
        "numberOfBytes": "20"
      },
      "t_bytes32": {
        "encoding": "inplace",
        "label": "bytes32",
        "numberOfBytes": "32"
      },
      "t_contract(ILiquidityBootstrappingPool)11988": {
        "encoding": "inplace",
        "label": "contract ILiquidityBootstrappingPool",
        "numberOfBytes": "20"
      },
      "t_contract(IUniswapV3Pool)11393": {
        "encoding": "inplace",
        "label": "contract IUniswapV3Pool",
        "numberOfBytes": "20"
      }
    }
  }
}