{
  "address": "0x4Fc714C7D177a293C645207C668166C4Ef206588",
  "abi": [
    {
      "inputs": [
        {
          "internalType": "contract FluenceToken",
          "name": "token_",
          "type": "address"
        },
        {
          "internalType": "string",
          "name": "name_",
          "type": "string"
        },
        {
          "internalType": "string",
          "name": "symbol_",
          "type": "string"
        },
        {
          "internalType": "uint256",
          "name": "_cliffDurationMonths",
          "type": "uint256"
        },
        {
          "internalType": "uint256",
          "name": "_vestingDurationMonths",
          "type": "uint256"
        },
        {
          "internalType": "address[]",
          "name": "accounts",
          "type": "address[]"
        },
        {
          "internalType": "uint256[]",
          "name": "amounts",
          "type": "uint256[]"
        }
      ],
      "stateMutability": "nonpayable",
      "type": "constructor"
    },
    {
      "anonymous": false,
      "inputs": [
        {
          "indexed": true,
          "internalType": "address",
          "name": "owner",
          "type": "address"
        },
        {
          "indexed": true,
          "internalType": "address",
          "name": "spender",
          "type": "address"
        },
        {
          "indexed": false,
          "internalType": "uint256",
          "name": "value",
          "type": "uint256"
        }
      ],
      "name": "Approval",
      "type": "event"
    },
    {
      "anonymous": false,
      "inputs": [
        {
          "indexed": true,
          "internalType": "address",
          "name": "delegator",
          "type": "address"
        },
        {
          "indexed": true,
          "internalType": "address",
          "name": "fromDelegate",
          "type": "address"
        },
        {
          "indexed": true,
          "internalType": "address",
          "name": "toDelegate",
          "type": "address"
        }
      ],
      "name": "DelegateChanged",
      "type": "event"
    },
    {
      "anonymous": false,
      "inputs": [
        {
          "indexed": true,
          "internalType": "address",
          "name": "delegate",
          "type": "address"
        },
        {
          "indexed": false,
          "internalType": "uint256",
          "name": "previousBalance",
          "type": "uint256"
        },
        {
          "indexed": false,
          "internalType": "uint256",
          "name": "newBalance",
          "type": "uint256"
        }
      ],
      "name": "DelegateVotesChanged",
      "type": "event"
    },
    {
      "anonymous": false,
      "inputs": [
        {
          "indexed": true,
          "internalType": "address",
          "name": "from",
          "type": "address"
        },
        {
          "indexed": true,
          "internalType": "address",
          "name": "to",
          "type": "address"
        },
        {
          "indexed": false,
          "internalType": "uint256",
          "name": "value",
          "type": "uint256"
        }
      ],
      "name": "Transfer",
      "type": "event"
    },
    {
      "inputs": [],
      "name": "DOMAIN_SEPARATOR",
      "outputs": [
        {
          "internalType": "bytes32",
          "name": "",
          "type": "bytes32"
        }
      ],
      "stateMutability": "view",
      "type": "function"
    },
    {
      "inputs": [
        {
          "internalType": "address",
          "name": "owner",
          "type": "address"
        },
        {
          "internalType": "address",
          "name": "spender",
          "type": "address"
        }
      ],
      "name": "allowance",
      "outputs": [
        {
          "internalType": "uint256",
          "name": "",
          "type": "uint256"
        }
      ],
      "stateMutability": "view",
      "type": "function"
    },
    {
      "inputs": [
        {
          "internalType": "address",
          "name": "spender",
          "type": "address"
        },
        {
          "internalType": "uint256",
          "name": "amount",
          "type": "uint256"
        }
      ],
      "name": "approve",
      "outputs": [
        {
          "internalType": "bool",
          "name": "",
          "type": "bool"
        }
      ],
      "stateMutability": "nonpayable",
      "type": "function"
    },
    {
      "inputs": [
        {
          "internalType": "address",
          "name": "account",
          "type": "address"
        }
      ],
      "name": "balanceOf",
      "outputs": [
        {
          "internalType": "uint256",
          "name": "",
          "type": "uint256"
        }
      ],
      "stateMutability": "view",
      "type": "function"
    },
    {
      "inputs": [
        {
          "internalType": "address",
          "name": "account",
          "type": "address"
        },
        {
          "internalType": "uint32",
          "name": "pos",
          "type": "uint32"
        }
      ],
      "name": "checkpoints",
      "outputs": [
        {
          "components": [
            {
              "internalType": "uint32",
              "name": "fromBlock",
              "type": "uint32"
            },
            {
              "internalType": "uint224",
              "name": "votes",
              "type": "uint224"
            }
          ],
          "internalType": "struct ERC20Votes.Checkpoint",
          "name": "",
          "type": "tuple"
        }
      ],
      "stateMutability": "view",
      "type": "function"
    },
    {
      "inputs": [],
      "name": "cliffEndTimestamp",
      "outputs": [
        {
          "internalType": "uint256",
          "name": "",
          "type": "uint256"
        }
      ],
      "stateMutability": "view",
      "type": "function"
    },
    {
      "inputs": [],
      "name": "decimals",
      "outputs": [
        {
          "internalType": "uint8",
          "name": "",
          "type": "uint8"
        }
      ],
      "stateMutability": "view",
      "type": "function"
    },
    {
      "inputs": [
        {
          "internalType": "address",
          "name": "spender",
          "type": "address"
        },
        {
          "internalType": "uint256",
          "name": "subtractedValue",
          "type": "uint256"
        }
      ],
      "name": "decreaseAllowance",
      "outputs": [
        {
          "internalType": "bool",
          "name": "",
          "type": "bool"
        }
      ],
      "stateMutability": "nonpayable",
      "type": "function"
    },
    {
      "inputs": [
        {
          "internalType": "address",
          "name": "delegatee",
          "type": "address"
        }
      ],
      "name": "delegate",
      "outputs": [],
      "stateMutability": "nonpayable",
      "type": "function"
    },
    {
      "inputs": [
        {
          "internalType": "address",
          "name": "delegatee",
          "type": "address"
        },
        {
          "internalType": "uint256",
          "name": "nonce",
          "type": "uint256"
        },
        {
          "internalType": "uint256",
          "name": "expiry",
          "type": "uint256"
        },
        {
          "internalType": "uint8",
          "name": "v",
          "type": "uint8"
        },
        {
          "internalType": "bytes32",
          "name": "r",
          "type": "bytes32"
        },
        {
          "internalType": "bytes32",
          "name": "s",
          "type": "bytes32"
        }
      ],
      "name": "delegateBySig",
      "outputs": [],
      "stateMutability": "nonpayable",
      "type": "function"
    },
    {
      "inputs": [
        {
          "internalType": "address",
          "name": "account",
          "type": "address"
        }
      ],
      "name": "delegates",
      "outputs": [
        {
          "internalType": "address",
          "name": "",
          "type": "address"
        }
      ],
      "stateMutability": "view",
      "type": "function"
    },
    {
      "inputs": [
        {
          "internalType": "uint256",
          "name": "blockNumber",
          "type": "uint256"
        }
      ],
      "name": "getPastTotalSupply",
      "outputs": [
        {
          "internalType": "uint256",
          "name": "",
          "type": "uint256"
        }
      ],
      "stateMutability": "view",
      "type": "function"
    },
    {
      "inputs": [
        {
          "internalType": "address",
          "name": "account",
          "type": "address"
        },
        {
          "internalType": "uint256",
          "name": "blockNumber",
          "type": "uint256"
        }
      ],
      "name": "getPastVotes",
      "outputs": [
        {
          "internalType": "uint256",
          "name": "",
          "type": "uint256"
        }
      ],
      "stateMutability": "view",
      "type": "function"
    },
    {
      "inputs": [
        {
          "internalType": "address",
          "name": "account",
          "type": "address"
        }
      ],
      "name": "getReleaseAmount",
      "outputs": [
        {
          "internalType": "uint256",
          "name": "",
          "type": "uint256"
        }
      ],
      "stateMutability": "view",
      "type": "function"
    },
    {
      "inputs": [
        {
          "internalType": "address",
          "name": "account",
          "type": "address"
        }
      ],
      "name": "getVotes",
      "outputs": [
        {
          "internalType": "uint256",
          "name": "",
          "type": "uint256"
        }
      ],
      "stateMutability": "view",
      "type": "function"
    },
    {
      "inputs": [
        {
          "internalType": "address",
          "name": "spender",
          "type": "address"
        },
        {
          "internalType": "uint256",
          "name": "addedValue",
          "type": "uint256"
        }
      ],
      "name": "increaseAllowance",
      "outputs": [
        {
          "internalType": "bool",
          "name": "",
          "type": "bool"
        }
      ],
      "stateMutability": "nonpayable",
      "type": "function"
    },
    {
      "inputs": [
        {
          "internalType": "address",
          "name": "",
          "type": "address"
        }
      ],
      "name": "lockedAmounts",
      "outputs": [
        {
          "internalType": "uint256",
          "name": "",
          "type": "uint256"
        }
      ],
      "stateMutability": "view",
      "type": "function"
    },
    {
      "inputs": [],
      "name": "name",
      "outputs": [
        {
          "internalType": "string",
          "name": "",
          "type": "string"
        }
      ],
      "stateMutability": "view",
      "type": "function"
    },
    {
      "inputs": [
        {
          "internalType": "address",
          "name": "owner",
          "type": "address"
        }
      ],
      "name": "nonces",
      "outputs": [
        {
          "internalType": "uint256",
          "name": "",
          "type": "uint256"
        }
      ],
      "stateMutability": "view",
      "type": "function"
    },
    {
      "inputs": [
        {
          "internalType": "address",
          "name": "account",
          "type": "address"
        }
      ],
      "name": "numCheckpoints",
      "outputs": [
        {
          "internalType": "uint32",
          "name": "",
          "type": "uint32"
        }
      ],
      "stateMutability": "view",
      "type": "function"
    },
    {
      "inputs": [
        {
          "internalType": "address",
          "name": "owner",
          "type": "address"
        },
        {
          "internalType": "address",
          "name": "spender",
          "type": "address"
        },
        {
          "internalType": "uint256",
          "name": "value",
          "type": "uint256"
        },
        {
          "internalType": "uint256",
          "name": "deadline",
          "type": "uint256"
        },
        {
          "internalType": "uint8",
          "name": "v",
          "type": "uint8"
        },
        {
          "internalType": "bytes32",
          "name": "r",
          "type": "bytes32"
        },
        {
          "internalType": "bytes32",
          "name": "s",
          "type": "bytes32"
        }
      ],
      "name": "permit",
      "outputs": [],
      "stateMutability": "nonpayable",
      "type": "function"
    },
    {
      "inputs": [
        {
          "internalType": "uint256",
          "name": "amount",
          "type": "uint256"
        }
      ],
      "name": "release",
      "outputs": [],
      "stateMutability": "nonpayable",
      "type": "function"
    },
    {
      "inputs": [],
      "name": "startTimestamp",
      "outputs": [
        {
          "internalType": "uint256",
          "name": "",
          "type": "uint256"
        }
      ],
      "stateMutability": "view",
      "type": "function"
    },
    {
      "inputs": [],
      "name": "symbol",
      "outputs": [
        {
          "internalType": "string",
          "name": "",
          "type": "string"
        }
      ],
      "stateMutability": "view",
      "type": "function"
    },
    {
      "inputs": [],
      "name": "token",
      "outputs": [
        {
          "internalType": "contract FluenceToken",
          "name": "",
          "type": "address"
        }
      ],
      "stateMutability": "view",
      "type": "function"
    },
    {
      "inputs": [],
      "name": "totalLockedTime",
      "outputs": [
        {
          "internalType": "uint256",
          "name": "",
          "type": "uint256"
        }
      ],
      "stateMutability": "view",
      "type": "function"
    },
    {
      "inputs": [],
      "name": "totalSupply",
      "outputs": [
        {
          "internalType": "uint256",
          "name": "",
          "type": "uint256"
        }
      ],
      "stateMutability": "view",
      "type": "function"
    },
    {
      "inputs": [
        {
          "internalType": "address",
          "name": "to",
          "type": "address"
        },
        {
          "internalType": "uint256",
          "name": "amount",
          "type": "uint256"
        }
      ],
      "name": "transfer",
      "outputs": [
        {
          "internalType": "bool",
          "name": "",
          "type": "bool"
        }
      ],
      "stateMutability": "nonpayable",
      "type": "function"
    },
    {
      "inputs": [
        {
          "internalType": "address",
          "name": "from",
          "type": "address"
        },
        {
          "internalType": "address",
          "name": "to",
          "type": "address"
        },
        {
          "internalType": "uint256",
          "name": "amount",
          "type": "uint256"
        }
      ],
      "name": "transferFrom",
      "outputs": [
        {
          "internalType": "bool",
          "name": "",
          "type": "bool"
        }
      ],
      "stateMutability": "nonpayable",
      "type": "function"
    }
  ],
  "transactionHash": "0x5ae0ced38942bd72a0c0034a4d30a9e29e0fd4f4b789a2313fb7cc5afdf6fe45",
  "args": [
    "0x04f5aF6de189C63EC010d4D80287cc2bbC8e0b39",
    "Team Vesting",
    "FLTTV",
    1,
    1,
    [
      "0x758da84b0fffc7dc0666a3ceda657c0f22a847c4",
      "0x4639c15528b57635ca7bad4910162cba7b085b31",
      "0xdf458a234aebd7c02b776f601a27b33ecb2eb7d5",
      "0xc76cc948d959c13174cbbdcf5015be74d8c1c141",
      "0x8b08fb46abf4185f8f0f441a6b412deffe1c099c",
      "0x81380fcd5add04c1009dd04904a68a8dab1f8f56",
      "0x96cbbda3d706d908f687fde56b66d4895c046e6e",
      "0x26faebf4c9d46869691e5b4227a4f060344d54dd",
      "0xce3c34390bb967ce5a3b13fe0bf49606824807f5",
      "0x38ed08cd68065a5d0bc7f75b2a1140f2fcd832d4"
    ],
    [
      "1000000000000000000000",
      "1000000000000000000000",
      "1000000000000000000000",
      "1000000000000000000000",
      "1000000000000000000000",
      "1000000000000000000000",
      "1000000000000000000000",
      "1000000000000000000000",
      "1000000000000000000000",
      "1000000000000000000000"
    ]
  ],
  "numDeployments": 1,
  "solcInputHash": "79f6b4c9dbcdc8511342d44763c258c7",
  "bytecode": "0x6101c06040523480156200001257600080fd5b5060405162003ef238038062003ef2833981016040819052620000359162000fc5565b868686868686868580604051806040016040528060018152602001603160f81b815250888881600390816200006b919062001133565b5060046200007a828262001133565b5050825160208085019190912083519184019190912060e08290526101008190524660a0529091507f8b73c3c69bb8fe3d512ecc4cf759cc79239f7b179b0ffacaa9a75d522b39400f620000d08184846200028a565b6080523060c05261012052505083518551149250620001509150505760405162461bcd60e51b815260206004820152602e60248201527f6163636f756e747320616e6420616d6f756e7473206d7573742068617665207460448201526d0d0ca40e6c2daca40d8cadccee8d60931b60648201526084015b60405180910390fd5b42610160526000620001668562278d0062001215565b905062000174814262001237565b6101805280620001888562278d0062001215565b62000194919062001237565b6101a0526001600160a01b0388166101405260005b83518110156200027457828181518110620001c857620001c862001252565b602002602001015160076000868481518110620001e957620001e962001252565b60200260200101516001600160a01b03166001600160a01b03168152602001908152602001600020819055506200025f8482815181106200022e576200022e62001252565b60200260200101518483815181106200024b576200024b62001252565b6020026020010151620002d460201b60201c565b806200026b8162001268565b915050620001a9565b5050505050505050505050505050505062001338565b6040805160208101859052908101839052606081018290524660808201523060a082015260009060c0016040516020818303038152906040528051906020012090505b9392505050565b620002eb8282620002ef60201b62000df91760201c565b5050565b620003068282620003a260201b62000eab1760201c565b6001600160e01b036200031a6200049f8216565b1115620003835760405162461bcd60e51b815260206004820152603060248201527f4552433230566f7465733a20746f74616c20737570706c79207269736b73206f60448201526f766572666c6f77696e6720766f74657360801b606482015260840162000147565b6200039c600a62000fc9620004a560201b1783620004b3565b50505050565b6001600160a01b038216620003fa5760405162461bcd60e51b815260206004820152601f60248201527f45524332303a206d696e7420746f20746865207a65726f206164647265737300604482015260640162000147565b620004086000838362000665565b80600260008282546200041c919062001237565b90915550506001600160a01b038216600090815260208190526040812080548392906200044b90849062001237565b90915550506040518181526001600160a01b038316906000907fddf252ad1be2c89b69c2b068fc378daa952ba7f163c4a11628f55a4df523b3ef9060200160405180910390a3620002eb6000838362000682565b60025490565b6000620002cd828462001237565b825460009081908015620005055785620004cf60018362001284565b81548110620004e257620004e262001252565b60009182526020909120015464010000000090046001600160e01b031662000508565b60005b6001600160e01b031692506200051f83858760201c565b915060008111801562000563575043866200053c60018462001284565b815481106200054f576200054f62001252565b60009182526020909120015463ffffffff16145b15620005d7576200057f826200069a60201b62000fd51760201c565b866200058d60018462001284565b81548110620005a057620005a062001252565b9060005260206000200160000160046101000a8154816001600160e01b0302191690836001600160e01b031602179055506200065c565b856040518060400160405280620005f9436200070960201b6200106d1760201c565b63ffffffff1681526020016200061a856200069a60201b62000fd51760201c565b6001600160e01b0390811690915282546001810184556000938452602093849020835194909301519091166401000000000263ffffffff909316929092179101555b50935093915050565b6200067d8383836200077060201b620010e91760201c565b505050565b6200067d8383836200089b60201b620012361760201c565b60006001600160e01b03821115620007055760405162461bcd60e51b815260206004820152602760248201527f53616665436173743a2076616c756520646f65736e27742066697420696e20326044820152663234206269747360c81b606482015260840162000147565b5090565b600063ffffffff821115620007055760405162461bcd60e51b815260206004820152602660248201527f53616665436173743a2076616c756520646f65736e27742066697420696e203360448201526532206269747360d01b606482015260840162000147565b6001600160a01b03831615806200078e57506001600160a01b038216155b620007dc5760405162461bcd60e51b815260206004820152601760248201527f5472616e73666572206973206e6f7420616c6c6f776564000000000000000000604482015260640162000147565b6001600160a01b03821662000883576000620007f884620008e7565b90508082111580156200080b5750600081115b620008595760405162461bcd60e51b815260206004820152601960248201527f4e6f7420656e6f7567682072656c6561736520616d6f756e7400000000000000604482015260640162000147565b620008818483610140516001600160a01b03166200099e60201b62001275179092919060201c565b505b6200067d8383836200067d60201b620012311760201c565b620008b38383836200067d60201b620012311760201c565b6001600160a01b038381166000908152600860205260408082205485841683529120546200067d92918216911683620009f6565b6000610180514211620008fc57506000919050565b6101a0516001600160a01b0383166000908152600760209081526040808320549183905282205490919062000932908362001284565b90506000610160514262000947919062001284565b9050600084821062000967576200095f838562001284565b905062000994565b60006200097586866200129e565b90508362000984828562001215565b62000990919062001284565b9150505b9695505050505050565b604080516001600160a01b038416602482015260448082018490528251808303909101815260649091019091526020810180516001600160e01b0390811663a9059cbb60e01b179091526200067d91859162000b3116565b816001600160a01b0316836001600160a01b03161415801562000a195750600081115b156200067d576001600160a01b0383161562000aa6576001600160a01b03831660009081526009602090815260408220829162000a63919062000c0f901b620013021785620004b3565b91509150846001600160a01b031660008051602062003ed2833981519152838360405162000a9b929190918252602082015260400190565b60405180910390a250505b6001600160a01b038216156200067d576001600160a01b03821660009081526009602090815260408220829162000aea9190620004a5901b62000fc91785620004b3565b91509150836001600160a01b031660008051602062003ed2833981519152838360405162000b22929190918252602082015260400190565b60405180910390a25050505050565b600062000b8d826040518060400160405280602081526020017f5361666545524332303a206c6f772d6c6576656c2063616c6c206661696c6564815250856001600160a01b031662000c1d60201b6200130e179092919060201c565b8051909150156200067d578080602001905181019062000bae9190620012c1565b6200067d5760405162461bcd60e51b815260206004820152602a60248201527f5361666545524332303a204552433230206f7065726174696f6e20646964206e6044820152691bdd081cdd58d8d9595960b21b606482015260840162000147565b6000620002cd828462001284565b606062000c2e848460008562000c36565b949350505050565b60608247101562000c995760405162461bcd60e51b815260206004820152602660248201527f416464726573733a20696e73756666696369656e742062616c616e636520666f6044820152651c8818d85b1b60d21b606482015260840162000147565b6001600160a01b0385163b62000cf25760405162461bcd60e51b815260206004820152601d60248201527f416464726573733a2063616c6c20746f206e6f6e2d636f6e7472616374000000604482015260640162000147565b600080866001600160a01b0316858760405162000d109190620012e5565b60006040518083038185875af1925050503d806000811462000d4f576040519150601f19603f3d011682016040523d82523d6000602084013e62000d54565b606091505b50909250905062000d6782828662000d72565b979650505050505050565b6060831562000d83575081620002cd565b82511562000d945782518084602001fd5b8160405162461bcd60e51b815260040162000147919062001303565b6001600160a01b038116811462000dc657600080fd5b50565b805162000dd68162000db0565b919050565b634e487b7160e01b600052604160045260246000fd5b604051601f8201601f191681016001600160401b038111828210171562000e1c5762000e1c62000ddb565b604052919050565b60005b8381101562000e4157818101518382015260200162000e27565b838111156200039c5750506000910152565b600082601f83011262000e6557600080fd5b81516001600160401b0381111562000e815762000e8162000ddb565b62000e96601f8201601f191660200162000df1565b81815284602083860101111562000eac57600080fd5b62000c2e82602083016020870162000e24565b60006001600160401b0382111562000edb5762000edb62000ddb565b5060051b60200190565b600082601f83011262000ef757600080fd5b8151602062000f1062000f0a8362000ebf565b62000df1565b82815260059290921b8401810191818101908684111562000f3057600080fd5b8286015b8481101562000f5857805162000f4a8162000db0565b835291830191830162000f34565b509695505050505050565b600082601f83011262000f7557600080fd5b8151602062000f8862000f0a8362000ebf565b82815260059290921b8401810191818101908684111562000fa857600080fd5b8286015b8481101562000f58578051835291830191830162000fac565b600080600080600080600060e0888a03121562000fe157600080fd5b62000fec8862000dc9565b60208901519097506001600160401b03808211156200100a57600080fd5b620010188b838c0162000e53565b975060408a01519150808211156200102f57600080fd5b6200103d8b838c0162000e53565b965060608a0151955060808a0151945060a08a01519150808211156200106257600080fd5b620010708b838c0162000ee5565b935060c08a01519150808211156200108757600080fd5b50620010968a828b0162000f63565b91505092959891949750929550565b600181811c90821680620010ba57607f821691505b602082108103620010db57634e487b7160e01b600052602260045260246000fd5b50919050565b601f8211156200067d57600081815260208120601f850160051c810160208610156200110a5750805b601f850160051c820191505b818110156200112b5782815560010162001116565b505050505050565b81516001600160401b038111156200114f576200114f62000ddb565b6200116781620011608454620010a5565b84620010e1565b602080601f8311600181146200119f5760008415620011865750858301515b600019600386901b1c1916600185901b1785556200112b565b600085815260208120601f198616915b82811015620011d057888601518255948401946001909101908401620011af565b5085821015620011ef5787850151600019600388901b60f8161c191681555b5050505050600190811b01905550565b634e487b7160e01b600052601160045260246000fd5b6000816000190483118215151615620012325762001232620011ff565b500290565b600082198211156200124d576200124d620011ff565b500190565b634e487b7160e01b600052603260045260246000fd5b6000600182016200127d576200127d620011ff565b5060010190565b600082821015620012995762001299620011ff565b500390565b600082620012bc57634e487b7160e01b600052601260045260246000fd5b500490565b600060208284031215620012d457600080fd5b81518015158114620002cd57600080fd5b60008251620012f981846020870162000e24565b9190910192915050565b60208152600082518060208401526200132481604085016020870162000e24565b601f01601f19169190910160400192915050565b60805160a05160c05160e05161010051610120516101405161016051610180516101a051612b02620013d06000396000818161039901526106820152600081816104b4015261062301526000818161048d01526106b601526000818161052d015261120a01526000611868015260006118b701526000611892015260006117eb015260006118150152600061183f0152612b026000f3fe608060405234801561001057600080fd5b50600436106101cf5760003560e01c80637ecebe0011610104578063a9059cbb116100a2578063e6fd48bc11610071578063e6fd48bc14610488578063e8a6fed1146104af578063f1127ed8146104d6578063fc0c546a1461052857600080fd5b8063a9059cbb14610409578063c3cda5201461041c578063d505accf1461042f578063dd62ed3e1461044257600080fd5b806395d89b41116100de57806395d89b41146103bb5780639ab24eb0146103c3578063a457c2d7146103d6578063a8c7a08a146103e957600080fd5b80637ecebe001461036e5780638e539e8c14610381578063916237631461039457600080fd5b806337bdc99b11610171578063587cde1e1161014b578063587cde1e1461029f5780635c19a95c146102fd5780636fcfff451461031057806370a082311461033857600080fd5b806337bdc99b1461026457806339509351146102795780633a46b1a81461028c57600080fd5b806323b872dd116101ad57806323b872dd14610227578063313ce5671461023a57806332ad2982146102495780633644e5151461025c57600080fd5b806306fdde03146101d4578063095ea7b3146101f257806318160ddd14610215575b600080fd5b6101dc61054f565b6040516101e991906126b3565b60405180910390f35b61020561020036600461272d565b6105e1565b60405190151581526020016101e9565b6002545b6040519081526020016101e9565b610205610235366004612757565b6105f9565b604051601281526020016101e9565b610219610257366004612793565b61061f565b610219610728565b6102776102723660046127ae565b610737565b005b61020561028736600461272d565b610744565b61021961029a36600461272d565b610790565b6102d86102ad366004612793565b73ffffffffffffffffffffffffffffffffffffffff9081166000908152600860205260409020541690565b60405173ffffffffffffffffffffffffffffffffffffffff90911681526020016101e9565b61027761030b366004612793565b610815565b61032361031e366004612793565b61081f565b60405163ffffffff90911681526020016101e9565b610219610346366004612793565b73ffffffffffffffffffffffffffffffffffffffff1660009081526020819052604090205490565b61021961037c366004612793565b610854565b61021961038f3660046127ae565b61087f565b6102197f000000000000000000000000000000000000000000000000000000000000000081565b6101dc6108db565b6102196103d1366004612793565b6108ea565b6102056103e436600461272d565b6109b5565b6102196103f7366004612793565b60076020526000908152604090205481565b61020561041736600461272d565b610a77565b61027761042a3660046127d8565b610a85565b61027761043d366004612830565b610bc8565b61021961045036600461289a565b73ffffffffffffffffffffffffffffffffffffffff918216600090815260016020908152604080832093909416825291909152205490565b6102197f000000000000000000000000000000000000000000000000000000000000000081565b6102197f000000000000000000000000000000000000000000000000000000000000000081565b6104e96104e43660046128cd565b610d53565b60408051825163ffffffff1681526020928301517bffffffffffffffffffffffffffffffffffffffffffffffffffffffff1692810192909252016101e9565b6102d87f000000000000000000000000000000000000000000000000000000000000000081565b60606003805461055e9061290d565b80601f016020809104026020016040519081016040528092919081815260200182805461058a9061290d565b80156105d75780601f106105ac576101008083540402835291602001916105d7565b820191906000526020600020905b8154815290600101906020018083116105ba57829003601f168201915b5050505050905090565b6000336105ef818585611325565b5060019392505050565b6000336106078582856114a4565b61061285858561155b565b60019150505b9392505050565b60007f0000000000000000000000000000000000000000000000000000000000000000421161065057506000919050565b73ffffffffffffffffffffffffffffffffffffffff8216600090815260076020908152604080832054918390528220547f000000000000000000000000000000000000000000000000000000000000000092906106ad9083612989565b905060006106db7f000000000000000000000000000000000000000000000000000000000000000042612989565b905060008482106106f7576106f08385612989565b905061071e565b600061070386866129a0565b90508361071082856129db565b61071a9190612989565b9150505b9695505050505050565b60006107326117d1565b905090565b6107413382611905565b50565b33600081815260016020908152604080832073ffffffffffffffffffffffffffffffffffffffff871684529091528120549091906105ef908290869061078b908790612a18565b611325565b60004382106107e65760405162461bcd60e51b815260206004820152601f60248201527f4552433230566f7465733a20626c6f636b206e6f7420796574206d696e65640060448201526064015b60405180910390fd5b73ffffffffffffffffffffffffffffffffffffffff83166000908152600960205260409020610618908361190f565b61074133826119f6565b73ffffffffffffffffffffffffffffffffffffffff811660009081526009602052604081205461084e9061106d565b92915050565b73ffffffffffffffffffffffffffffffffffffffff811660009081526005602052604081205461084e565b60004382106108d05760405162461bcd60e51b815260206004820152601f60248201527f4552433230566f7465733a20626c6f636b206e6f7420796574206d696e65640060448201526064016107dd565b61084e600a8361190f565b60606004805461055e9061290d565b73ffffffffffffffffffffffffffffffffffffffff8116600090815260096020526040812054801561098d5773ffffffffffffffffffffffffffffffffffffffff83166000908152600960205260409020610946600183612989565b8154811061095657610956612a30565b60009182526020909120015464010000000090047bffffffffffffffffffffffffffffffffffffffffffffffffffffffff16610990565b60005b7bffffffffffffffffffffffffffffffffffffffffffffffffffffffff169392505050565b33600081815260016020908152604080832073ffffffffffffffffffffffffffffffffffffffff8716845290915281205490919083811015610a5f5760405162461bcd60e51b815260206004820152602560248201527f45524332303a2064656372656173656420616c6c6f77616e63652062656c6f7760448201527f207a65726f00000000000000000000000000000000000000000000000000000060648201526084016107dd565b610a6c8286868403611325565b506001949350505050565b6000336105ef81858561155b565b83421115610ad55760405162461bcd60e51b815260206004820152601d60248201527f4552433230566f7465733a207369676e6174757265206578706972656400000060448201526064016107dd565b604080517fe48329057bfd03d55e49b547132e39cffd9c1820ad7b9d4c5307691425d15adf602082015273ffffffffffffffffffffffffffffffffffffffff8816918101919091526060810186905260808101859052600090610b5c90610b549060a00160405160208183030381529060405280519060200120611a94565b858585611afd565b9050610b6781611b25565b8614610bb55760405162461bcd60e51b815260206004820152601960248201527f4552433230566f7465733a20696e76616c6964206e6f6e63650000000000000060448201526064016107dd565b610bbf81886119f6565b50505050505050565b83421115610c185760405162461bcd60e51b815260206004820152601d60248201527f45524332305065726d69743a206578706972656420646561646c696e6500000060448201526064016107dd565b60007f6e71edae12b1b97f4d1f60370fef10105fa2faae0126114a169c64845d6126c9888888610c478c611b25565b60408051602081019690965273ffffffffffffffffffffffffffffffffffffffff94851690860152929091166060840152608083015260a082015260c0810186905260e0016040516020818303038152906040528051906020012090506000610caf82611a94565b90506000610cbf82878787611afd565b90508973ffffffffffffffffffffffffffffffffffffffff168173ffffffffffffffffffffffffffffffffffffffff1614610d3c5760405162461bcd60e51b815260206004820152601e60248201527f45524332305065726d69743a20696e76616c6964207369676e6174757265000060448201526064016107dd565b610d478a8a8a611325565b50505050505050505050565b604080518082019091526000808252602082015273ffffffffffffffffffffffffffffffffffffffff83166000908152600960205260409020805463ffffffff8416908110610da457610da4612a30565b60009182526020918290206040805180820190915291015463ffffffff8116825264010000000090047bffffffffffffffffffffffffffffffffffffffffffffffffffffffff16918101919091529392505050565b610e038282610eab565b6002547bffffffffffffffffffffffffffffffffffffffffffffffffffffffff1015610e975760405162461bcd60e51b815260206004820152603060248201527f4552433230566f7465733a20746f74616c20737570706c79207269736b73206f60448201527f766572666c6f77696e6720766f7465730000000000000000000000000000000060648201526084016107dd565b610ea5600a610fc983611b5a565b50505050565b73ffffffffffffffffffffffffffffffffffffffff8216610f0e5760405162461bcd60e51b815260206004820152601f60248201527f45524332303a206d696e7420746f20746865207a65726f20616464726573730060448201526064016107dd565b610f1a60008383611d3c565b8060026000828254610f2c9190612a18565b909155505073ffffffffffffffffffffffffffffffffffffffff821660009081526020819052604081208054839290610f66908490612a18565b909155505060405181815273ffffffffffffffffffffffffffffffffffffffff8316906000907fddf252ad1be2c89b69c2b068fc378daa952ba7f163c4a11628f55a4df523b3ef9060200160405180910390a3610fc560008383611d47565b5050565b60006106188284612a18565b60007bffffffffffffffffffffffffffffffffffffffffffffffffffffffff8211156110695760405162461bcd60e51b815260206004820152602760248201527f53616665436173743a2076616c756520646f65736e27742066697420696e203260448201527f323420626974730000000000000000000000000000000000000000000000000060648201526084016107dd565b5090565b600063ffffffff8211156110695760405162461bcd60e51b815260206004820152602660248201527f53616665436173743a2076616c756520646f65736e27742066697420696e203360448201527f322062697473000000000000000000000000000000000000000000000000000060648201526084016107dd565b73ffffffffffffffffffffffffffffffffffffffff83161580611120575073ffffffffffffffffffffffffffffffffffffffff8216155b61116c5760405162461bcd60e51b815260206004820152601760248201527f5472616e73666572206973206e6f7420616c6c6f77656400000000000000000060448201526064016107dd565b73ffffffffffffffffffffffffffffffffffffffff82166112315760006111928461061f565b90508082111580156111a45750600081115b6111f05760405162461bcd60e51b815260206004820152601960248201527f4e6f7420656e6f7567682072656c6561736520616d6f756e740000000000000060448201526064016107dd565b610ea573ffffffffffffffffffffffffffffffffffffffff7f0000000000000000000000000000000000000000000000000000000000000000168584611275565b505050565b73ffffffffffffffffffffffffffffffffffffffff83811660009081526008602052604080822054858416835291205461123192918216911683611d52565b6040805173ffffffffffffffffffffffffffffffffffffffff8416602482015260448082018490528251808303909101815260649091019091526020810180517bffffffffffffffffffffffffffffffffffffffffffffffffffffffff167fa9059cbb00000000000000000000000000000000000000000000000000000000179052611231908490611ef7565b60006106188284612989565b606061131d8484600085611fe9565b949350505050565b73ffffffffffffffffffffffffffffffffffffffff83166113ad5760405162461bcd60e51b8152602060048201526024808201527f45524332303a20617070726f76652066726f6d20746865207a65726f2061646460448201527f726573730000000000000000000000000000000000000000000000000000000060648201526084016107dd565b73ffffffffffffffffffffffffffffffffffffffff82166114365760405162461bcd60e51b815260206004820152602260248201527f45524332303a20617070726f766520746f20746865207a65726f20616464726560448201527f737300000000000000000000000000000000000000000000000000000000000060648201526084016107dd565b73ffffffffffffffffffffffffffffffffffffffff83811660008181526001602090815260408083209487168084529482529182902085905590518481527f8c5be1e5ebec7d5bd14f71427d1e84f3dd0314c0f7b2291e5b200ac8c7c3b925910160405180910390a3505050565b73ffffffffffffffffffffffffffffffffffffffff8381166000908152600160209081526040808320938616835292905220547fffffffffffffffffffffffffffffffffffffffffffffffffffffffffffffffff8114610ea5578181101561154e5760405162461bcd60e51b815260206004820152601d60248201527f45524332303a20696e73756666696369656e7420616c6c6f77616e636500000060448201526064016107dd565b610ea58484848403611325565b73ffffffffffffffffffffffffffffffffffffffff83166115e45760405162461bcd60e51b815260206004820152602560248201527f45524332303a207472616e736665722066726f6d20746865207a65726f20616460448201527f647265737300000000000000000000000000000000000000000000000000000060648201526084016107dd565b73ffffffffffffffffffffffffffffffffffffffff821661166d5760405162461bcd60e51b815260206004820152602360248201527f45524332303a207472616e7366657220746f20746865207a65726f206164647260448201527f657373000000000000000000000000000000000000000000000000000000000060648201526084016107dd565b611678838383611d3c565b73ffffffffffffffffffffffffffffffffffffffff8316600090815260208190526040902054818110156117145760405162461bcd60e51b815260206004820152602660248201527f45524332303a207472616e7366657220616d6f756e742065786365656473206260448201527f616c616e6365000000000000000000000000000000000000000000000000000060648201526084016107dd565b73ffffffffffffffffffffffffffffffffffffffff808516600090815260208190526040808220858503905591851681529081208054849290611758908490612a18565b925050819055508273ffffffffffffffffffffffffffffffffffffffff168473ffffffffffffffffffffffffffffffffffffffff167fddf252ad1be2c89b69c2b068fc378daa952ba7f163c4a11628f55a4df523b3ef846040516117be91815260200190565b60405180910390a3610ea5848484611d47565b60003073ffffffffffffffffffffffffffffffffffffffff7f00000000000000000000000000000000000000000000000000000000000000001614801561183757507f000000000000000000000000000000000000000000000000000000000000000046145b1561186157507f000000000000000000000000000000000000000000000000000000000000000090565b50604080517f00000000000000000000000000000000000000000000000000000000000000006020808301919091527f0000000000000000000000000000000000000000000000000000000000000000828401527f000000000000000000000000000000000000000000000000000000000000000060608301524660808301523060a0808401919091528351808403909101815260c0909201909252805191012090565b610fc5828261214b565b8154600090815b8181101561197357600061192a8284612163565b90508486828154811061193f5761193f612a30565b60009182526020909120015463ffffffff16111561195f5780925061196d565b61196a816001612a18565b91505b50611916565b81156119cc5784611985600184612989565b8154811061199557611995612a30565b60009182526020909120015464010000000090047bffffffffffffffffffffffffffffffffffffffffffffffffffffffff166119cf565b60005b7bffffffffffffffffffffffffffffffffffffffffffffffffffffffff1695945050505050565b73ffffffffffffffffffffffffffffffffffffffff8281166000818152600860208181526040808420805485845282862054949093528787167fffffffffffffffffffffffff00000000000000000000000000000000000000008416811790915590519190951694919391928592917f3134e8a2e6d97e929a7e54011ea5485d7d196dd5f0ba4d4ef95803e8e3fc257f9190a4610ea5828483611d52565b600061084e611aa16117d1565b836040517f19010000000000000000000000000000000000000000000000000000000000006020820152602281018390526042810182905260009060620160405160208183030381529060405280519060200120905092915050565b6000806000611b0e8787878761217e565b91509150611b1b81612296565b5095945050505050565b73ffffffffffffffffffffffffffffffffffffffff811660009081526005602052604090208054600181018255905b50919050565b825460009081908015611bba5785611b73600183612989565b81548110611b8357611b83612a30565b60009182526020909120015464010000000090047bffffffffffffffffffffffffffffffffffffffffffffffffffffffff16611bbd565b60005b7bffffffffffffffffffffffffffffffffffffffffffffffffffffffff169250611beb83858763ffffffff16565b9150600081118015611c2957504386611c05600184612989565b81548110611c1557611c15612a30565b60009182526020909120015463ffffffff16145b15611cb357611c3782610fd5565b86611c43600184612989565b81548110611c5357611c53612a30565b9060005260206000200160000160046101000a8154817bffffffffffffffffffffffffffffffffffffffffffffffffffffffff02191690837bffffffffffffffffffffffffffffffffffffffffffffffffffffffff160217905550611d33565b856040518060400160405280611cc84361106d565b63ffffffff168152602001611cdc85610fd5565b7bffffffffffffffffffffffffffffffffffffffffffffffffffffffff90811690915282546001810184556000938452602093849020835194909301519091166401000000000263ffffffff909316929092179101555b50935093915050565b6112318383836110e9565b611231838383611236565b8173ffffffffffffffffffffffffffffffffffffffff168373ffffffffffffffffffffffffffffffffffffffff1614158015611d8e5750600081115b156112315773ffffffffffffffffffffffffffffffffffffffff831615611e435773ffffffffffffffffffffffffffffffffffffffff831660009081526009602052604081208190611de39061130285611b5a565b915091508473ffffffffffffffffffffffffffffffffffffffff167fdec2bacdd2f05b59de34da9b523dff8be42e5e38e818c82fdb0bae774387a7248383604051611e38929190918252602082015260400190565b60405180910390a250505b73ffffffffffffffffffffffffffffffffffffffff8216156112315773ffffffffffffffffffffffffffffffffffffffff821660009081526009602052604081208190611e9390610fc985611b5a565b915091508373ffffffffffffffffffffffffffffffffffffffff167fdec2bacdd2f05b59de34da9b523dff8be42e5e38e818c82fdb0bae774387a7248383604051611ee8929190918252602082015260400190565b60405180910390a25050505050565b6000611f59826040518060400160405280602081526020017f5361666545524332303a206c6f772d6c6576656c2063616c6c206661696c65648152508573ffffffffffffffffffffffffffffffffffffffff1661130e9092919063ffffffff16565b8051909150156112315780806020019051810190611f779190612a5f565b6112315760405162461bcd60e51b815260206004820152602a60248201527f5361666545524332303a204552433230206f7065726174696f6e20646964206e60448201527f6f7420737563636565640000000000000000000000000000000000000000000060648201526084016107dd565b6060824710156120615760405162461bcd60e51b815260206004820152602660248201527f416464726573733a20696e73756666696369656e742062616c616e636520666f60448201527f722063616c6c000000000000000000000000000000000000000000000000000060648201526084016107dd565b73ffffffffffffffffffffffffffffffffffffffff85163b6120c55760405162461bcd60e51b815260206004820152601d60248201527f416464726573733a2063616c6c20746f206e6f6e2d636f6e747261637400000060448201526064016107dd565b6000808673ffffffffffffffffffffffffffffffffffffffff1685876040516120ee9190612a81565b60006040518083038185875af1925050503d806000811461212b576040519150601f19603f3d011682016040523d82523d6000602084013e612130565b606091505b5091509150612140828286612482565b979650505050505050565b61215582826124bb565b610ea5600a61130283611b5a565b600061217260028484186129a0565b61061890848416612a18565b6000807f7fffffffffffffffffffffffffffffff5d576e7357a4501ddfe92f46681b20a08311156121b5575060009050600361228d565b8460ff16601b141580156121cd57508460ff16601c14155b156121de575060009050600461228d565b6040805160008082526020820180845289905260ff881692820192909252606081018690526080810185905260019060a0016020604051602081039080840390855afa158015612232573d6000803e3d6000fd5b50506040517fffffffffffffffffffffffffffffffffffffffffffffffffffffffffffffffe0015191505073ffffffffffffffffffffffffffffffffffffffff81166122865760006001925092505061228d565b9150600090505b94509492505050565b60008160048111156122aa576122aa612a9d565b036122b25750565b60018160048111156122c6576122c6612a9d565b036123135760405162461bcd60e51b815260206004820152601860248201527f45434453413a20696e76616c6964207369676e6174757265000000000000000060448201526064016107dd565b600281600481111561232757612327612a9d565b036123745760405162461bcd60e51b815260206004820152601f60248201527f45434453413a20696e76616c6964207369676e6174757265206c656e6774680060448201526064016107dd565b600381600481111561238857612388612a9d565b036123fb5760405162461bcd60e51b815260206004820152602260248201527f45434453413a20696e76616c6964207369676e6174757265202773272076616c60448201527f756500000000000000000000000000000000000000000000000000000000000060648201526084016107dd565b600481600481111561240f5761240f612a9d565b036107415760405162461bcd60e51b815260206004820152602260248201527f45434453413a20696e76616c6964207369676e6174757265202776272076616c60448201527f756500000000000000000000000000000000000000000000000000000000000060648201526084016107dd565b60608315612491575081610618565b8251156124a15782518084602001fd5b8160405162461bcd60e51b81526004016107dd91906126b3565b73ffffffffffffffffffffffffffffffffffffffff82166125445760405162461bcd60e51b815260206004820152602160248201527f45524332303a206275726e2066726f6d20746865207a65726f2061646472657360448201527f730000000000000000000000000000000000000000000000000000000000000060648201526084016107dd565b61255082600083611d3c565b73ffffffffffffffffffffffffffffffffffffffff8216600090815260208190526040902054818110156125ec5760405162461bcd60e51b815260206004820152602260248201527f45524332303a206275726e20616d6f756e7420657863656564732062616c616e60448201527f636500000000000000000000000000000000000000000000000000000000000060648201526084016107dd565b73ffffffffffffffffffffffffffffffffffffffff83166000908152602081905260408120838303905560028054849290612628908490612989565b909155505060405182815260009073ffffffffffffffffffffffffffffffffffffffff8516907fddf252ad1be2c89b69c2b068fc378daa952ba7f163c4a11628f55a4df523b3ef9060200160405180910390a361123183600084611d47565b60005b838110156126a257818101518382015260200161268a565b83811115610ea55750506000910152565b60208152600082518060208401526126d2816040850160208701612687565b601f017fffffffffffffffffffffffffffffffffffffffffffffffffffffffffffffffe0169190910160400192915050565b803573ffffffffffffffffffffffffffffffffffffffff8116811461272857600080fd5b919050565b6000806040838503121561274057600080fd5b61274983612704565b946020939093013593505050565b60008060006060848603121561276c57600080fd5b61277584612704565b925061278360208501612704565b9150604084013590509250925092565b6000602082840312156127a557600080fd5b61061882612704565b6000602082840312156127c057600080fd5b5035919050565b803560ff8116811461272857600080fd5b60008060008060008060c087890312156127f157600080fd5b6127fa87612704565b95506020870135945060408701359350612816606088016127c7565b92506080870135915060a087013590509295509295509295565b600080600080600080600060e0888a03121561284b57600080fd5b61285488612704565b965061286260208901612704565b9550604088013594506060880135935061287e608089016127c7565b925060a0880135915060c0880135905092959891949750929550565b600080604083850312156128ad57600080fd5b6128b683612704565b91506128c460208401612704565b90509250929050565b600080604083850312156128e057600080fd5b6128e983612704565b9150602083013563ffffffff8116811461290257600080fd5b809150509250929050565b600181811c9082168061292157607f821691505b602082108103611b54577f4e487b7100000000000000000000000000000000000000000000000000000000600052602260045260246000fd5b7f4e487b7100000000000000000000000000000000000000000000000000000000600052601160045260246000fd5b60008282101561299b5761299b61295a565b500390565b6000826129d6577f4e487b7100000000000000000000000000000000000000000000000000000000600052601260045260246000fd5b500490565b6000817fffffffffffffffffffffffffffffffffffffffffffffffffffffffffffffffff0483118215151615612a1357612a1361295a565b500290565b60008219821115612a2b57612a2b61295a565b500190565b7f4e487b7100000000000000000000000000000000000000000000000000000000600052603260045260246000fd5b600060208284031215612a7157600080fd5b8151801515811461061857600080fd5b60008251612a93818460208701612687565b9190910192915050565b7f4e487b7100000000000000000000000000000000000000000000000000000000600052602160045260246000fdfea2646970667358221220fa9f2bf278af784bf516df7bc71d075f7784ceecd90b6d52b835c67419c58ec964736f6c634300080f0033dec2bacdd2f05b59de34da9b523dff8be42e5e38e818c82fdb0bae774387a724",
  "devdoc": {
    "kind": "dev",
    "methods": {
      "DOMAIN_SEPARATOR()": {
        "details": "See {IERC20Permit-DOMAIN_SEPARATOR}."
      },
      "allowance(address,address)": {
        "details": "See {IERC20-allowance}."
      },
      "approve(address,uint256)": {
        "details": "See {IERC20-approve}. NOTE: If `amount` is the maximum `uint256`, the allowance is not updated on `transferFrom`. This is semantically equivalent to an infinite approval. Requirements: - `spender` cannot be the zero address."
      },
      "balanceOf(address)": {
        "details": "See {IERC20-balanceOf}."
      },
      "checkpoints(address,uint32)": {
        "details": "Get the `pos`-th checkpoint for `account`."
      },
      "decimals()": {
        "details": "Returns the number of decimals used to get its user representation. For example, if `decimals` equals `2`, a balance of `505` tokens should be displayed to a user as `5.05` (`505 / 10 ** 2`). Tokens usually opt for a value of 18, imitating the relationship between Ether and Wei. This is the value {ERC20} uses, unless this function is overridden; NOTE: This information is only used for _display_ purposes: it in no way affects any of the arithmetic of the contract, including {IERC20-balanceOf} and {IERC20-transfer}."
      },
      "decreaseAllowance(address,uint256)": {
        "details": "Atomically decreases the allowance granted to `spender` by the caller. This is an alternative to {approve} that can be used as a mitigation for problems described in {IERC20-approve}. Emits an {Approval} event indicating the updated allowance. Requirements: - `spender` cannot be the zero address. - `spender` must have allowance for the caller of at least `subtractedValue`."
      },
      "delegate(address)": {
        "details": "Delegate votes from the sender to `delegatee`."
      },
      "delegateBySig(address,uint256,uint256,uint8,bytes32,bytes32)": {
        "details": "Delegates votes from signer to `delegatee`"
      },
      "delegates(address)": {
        "details": "Get the address `account` is currently delegating to."
      },
      "getPastTotalSupply(uint256)": {
        "details": "Retrieve the `totalSupply` at the end of `blockNumber`. Note, this value is the sum of all balances. It is but NOT the sum of all the delegated votes! Requirements: - `blockNumber` must have been already mined"
      },
      "getPastVotes(address,uint256)": {
        "details": "Retrieve the number of votes for `account` at the end of `blockNumber`. Requirements: - `blockNumber` must have been already mined"
      },
      "getVotes(address)": {
        "details": "Gets the current votes balance for `account`"
      },
      "increaseAllowance(address,uint256)": {
        "details": "Atomically increases the allowance granted to `spender` by the caller. This is an alternative to {approve} that can be used as a mitigation for problems described in {IERC20-approve}. Emits an {Approval} event indicating the updated allowance. Requirements: - `spender` cannot be the zero address."
      },
      "name()": {
        "details": "Returns the name of the token."
      },
      "nonces(address)": {
        "details": "See {IERC20Permit-nonces}."
      },
      "numCheckpoints(address)": {
        "details": "Get number of checkpoints for `account`."
      },
      "permit(address,address,uint256,uint256,uint8,bytes32,bytes32)": {
        "details": "See {IERC20Permit-permit}."
      },
      "symbol()": {
        "details": "Returns the symbol of the token, usually a shorter version of the name."
      },
      "totalSupply()": {
        "details": "See {IERC20-totalSupply}."
      },
      "transfer(address,uint256)": {
        "details": "See {IERC20-transfer}. Requirements: - `to` cannot be the zero address. - the caller must have a balance of at least `amount`."
      },
      "transferFrom(address,address,uint256)": {
        "details": "See {IERC20-transferFrom}. Emits an {Approval} event indicating the updated allowance. This is not required by the EIP. See the note at the beginning of {ERC20}. NOTE: Does not update the allowance if the current allowance is the maximum `uint256`. Requirements: - `from` and `to` cannot be the zero address. - `from` must have a balance of at least `amount`. - the caller must have allowance for ``from``'s tokens of at least `amount`."
      }
    },
    "version": 1
  },
  "userdoc": {
    "kind": "user",
    "methods": {},
    "version": 1
  },
  "storageLayout": {
    "storage": [
      {
        "astId": 7757,
        "contract": "contracts/VestingWithVoting.sol:VestingWithVoting",
        "label": "_balances",
        "offset": 0,
        "slot": "0",
        "type": "t_mapping(t_address,t_uint256)"
      },
      {
        "astId": 7763,
        "contract": "contracts/VestingWithVoting.sol:VestingWithVoting",
        "label": "_allowances",
        "offset": 0,
        "slot": "1",
        "type": "t_mapping(t_address,t_mapping(t_address,t_uint256))"
      },
      {
        "astId": 7765,
        "contract": "contracts/VestingWithVoting.sol:VestingWithVoting",
        "label": "_totalSupply",
        "offset": 0,
        "slot": "2",
        "type": "t_uint256"
      },
      {
        "astId": 7767,
        "contract": "contracts/VestingWithVoting.sol:VestingWithVoting",
        "label": "_name",
        "offset": 0,
        "slot": "3",
        "type": "t_string_storage"
      },
      {
        "astId": 7769,
        "contract": "contracts/VestingWithVoting.sol:VestingWithVoting",
        "label": "_symbol",
        "offset": 0,
        "slot": "4",
        "type": "t_string_storage"
      },
      {
        "astId": 9090,
        "contract": "contracts/VestingWithVoting.sol:VestingWithVoting",
        "label": "_nonces",
        "offset": 0,
        "slot": "5",
        "type": "t_mapping(t_address,t_struct(Counter)9822_storage)"
      },
      {
        "astId": 9098,
        "contract": "contracts/VestingWithVoting.sol:VestingWithVoting",
        "label": "_PERMIT_TYPEHASH_DEPRECATED_SLOT",
        "offset": 0,
        "slot": "6",
        "type": "t_bytes32"
      },
      {
        "astId": 13583,
        "contract": "contracts/VestingWithVoting.sol:VestingWithVoting",
        "label": "lockedAmounts",
        "offset": 0,
        "slot": "7",
        "type": "t_mapping(t_address,t_uint256)"
      },
      {
        "astId": 8431,
        "contract": "contracts/VestingWithVoting.sol:VestingWithVoting",
        "label": "_delegates",
        "offset": 0,
        "slot": "8",
        "type": "t_mapping(t_address,t_address)"
      },
      {
        "astId": 8437,
        "contract": "contracts/VestingWithVoting.sol:VestingWithVoting",
        "label": "_checkpoints",
        "offset": 0,
        "slot": "9",
        "type": "t_mapping(t_address,t_array(t_struct(Checkpoint)8422_storage)dyn_storage)"
      },
      {
        "astId": 8441,
        "contract": "contracts/VestingWithVoting.sol:VestingWithVoting",
        "label": "_totalSupplyCheckpoints",
        "offset": 0,
        "slot": "10",
        "type": "t_array(t_struct(Checkpoint)8422_storage)dyn_storage"
      }
    ],
    "types": {
      "t_address": {
        "encoding": "inplace",
        "label": "address",
        "numberOfBytes": "20"
      },
      "t_array(t_struct(Checkpoint)8422_storage)dyn_storage": {
        "base": "t_struct(Checkpoint)8422_storage",
        "encoding": "dynamic_array",
        "label": "struct ERC20Votes.Checkpoint[]",
        "numberOfBytes": "32"
      },
      "t_bytes32": {
        "encoding": "inplace",
        "label": "bytes32",
        "numberOfBytes": "32"
      },
      "t_mapping(t_address,t_address)": {
        "encoding": "mapping",
        "key": "t_address",
        "label": "mapping(address => address)",
        "numberOfBytes": "32",
        "value": "t_address"
      },
      "t_mapping(t_address,t_array(t_struct(Checkpoint)8422_storage)dyn_storage)": {
        "encoding": "mapping",
        "key": "t_address",
        "label": "mapping(address => struct ERC20Votes.Checkpoint[])",
        "numberOfBytes": "32",
        "value": "t_array(t_struct(Checkpoint)8422_storage)dyn_storage"
      },
      "t_mapping(t_address,t_mapping(t_address,t_uint256))": {
        "encoding": "mapping",
        "key": "t_address",
        "label": "mapping(address => mapping(address => uint256))",
        "numberOfBytes": "32",
        "value": "t_mapping(t_address,t_uint256)"
      },
      "t_mapping(t_address,t_struct(Counter)9822_storage)": {
        "encoding": "mapping",
        "key": "t_address",
        "label": "mapping(address => struct Counters.Counter)",
        "numberOfBytes": "32",
        "value": "t_struct(Counter)9822_storage"
      },
      "t_mapping(t_address,t_uint256)": {
        "encoding": "mapping",
        "key": "t_address",
        "label": "mapping(address => uint256)",
        "numberOfBytes": "32",
        "value": "t_uint256"
      },
      "t_string_storage": {
        "encoding": "bytes",
        "label": "string",
        "numberOfBytes": "32"
      },
      "t_struct(Checkpoint)8422_storage": {
        "encoding": "inplace",
        "label": "struct ERC20Votes.Checkpoint",
        "members": [
          {
            "astId": 8419,
            "contract": "contracts/VestingWithVoting.sol:VestingWithVoting",
            "label": "fromBlock",
            "offset": 0,
            "slot": "0",
            "type": "t_uint32"
          },
          {
            "astId": 8421,
            "contract": "contracts/VestingWithVoting.sol:VestingWithVoting",
            "label": "votes",
            "offset": 4,
            "slot": "0",
            "type": "t_uint224"
          }
        ],
        "numberOfBytes": "32"
      },
      "t_struct(Counter)9822_storage": {
        "encoding": "inplace",
        "label": "struct Counters.Counter",
        "members": [
          {
            "astId": 9821,
            "contract": "contracts/VestingWithVoting.sol:VestingWithVoting",
            "label": "_value",
            "offset": 0,
            "slot": "0",
            "type": "t_uint256"
          }
        ],
        "numberOfBytes": "32"
      },
      "t_uint224": {
        "encoding": "inplace",
        "label": "uint224",
        "numberOfBytes": "28"
      },
      "t_uint256": {
        "encoding": "inplace",
        "label": "uint256",
        "numberOfBytes": "32"
      },
      "t_uint32": {
        "encoding": "inplace",
        "label": "uint32",
        "numberOfBytes": "4"
      }
    }
  }
}