{
  "address": "0xe45D7B620ffDb38E26413e7Bc0cd8e4678DcF35F",
  "abi": [
    {
      "inputs": [],
      "stateMutability": "nonpayable",
      "type": "constructor"
    },
    {
      "inputs": [],
      "name": "Empty",
      "type": "error"
    },
    {
      "anonymous": false,
      "inputs": [
        {
          "indexed": false,
          "internalType": "address",
          "name": "previousAdmin",
          "type": "address"
        },
        {
          "indexed": false,
          "internalType": "address",
          "name": "newAdmin",
          "type": "address"
        }
      ],
      "name": "AdminChanged",
      "type": "event"
    },
    {
      "anonymous": false,
      "inputs": [
        {
          "indexed": true,
          "internalType": "address",
          "name": "beacon",
          "type": "address"
        }
      ],
      "name": "BeaconUpgraded",
      "type": "event"
    },
    {
      "anonymous": false,
      "inputs": [
        {
          "indexed": false,
          "internalType": "uint8",
          "name": "version",
          "type": "uint8"
        }
      ],
      "name": "Initialized",
      "type": "event"
    },
    {
      "anonymous": false,
      "inputs": [
        {
          "indexed": true,
          "internalType": "address",
          "name": "previousOwner",
          "type": "address"
        },
        {
          "indexed": true,
          "internalType": "address",
          "name": "newOwner",
          "type": "address"
        }
      ],
      "name": "OwnershipTransferred",
      "type": "event"
    },
    {
      "anonymous": false,
      "inputs": [
        {
          "indexed": false,
          "internalType": "uint256",
          "name": "proposalId",
          "type": "uint256"
        }
      ],
      "name": "ProposalCanceled",
      "type": "event"
    },
    {
      "anonymous": false,
      "inputs": [
        {
          "indexed": false,
          "internalType": "uint256",
          "name": "proposalId",
          "type": "uint256"
        },
        {
          "indexed": false,
          "internalType": "address",
          "name": "proposer",
          "type": "address"
        },
        {
          "indexed": false,
          "internalType": "address[]",
          "name": "targets",
          "type": "address[]"
        },
        {
          "indexed": false,
          "internalType": "uint256[]",
          "name": "values",
          "type": "uint256[]"
        },
        {
          "indexed": false,
          "internalType": "string[]",
          "name": "signatures",
          "type": "string[]"
        },
        {
          "indexed": false,
          "internalType": "bytes[]",
          "name": "calldatas",
          "type": "bytes[]"
        },
        {
          "indexed": false,
          "internalType": "uint256",
          "name": "startBlock",
          "type": "uint256"
        },
        {
          "indexed": false,
          "internalType": "uint256",
          "name": "endBlock",
          "type": "uint256"
        },
        {
          "indexed": false,
          "internalType": "string",
          "name": "description",
          "type": "string"
        }
      ],
      "name": "ProposalCreated",
      "type": "event"
    },
    {
      "anonymous": false,
      "inputs": [
        {
          "indexed": false,
          "internalType": "uint256",
          "name": "proposalId",
          "type": "uint256"
        }
      ],
      "name": "ProposalExecuted",
      "type": "event"
    },
    {
      "anonymous": false,
      "inputs": [
        {
          "indexed": false,
          "internalType": "uint256",
          "name": "proposalId",
          "type": "uint256"
        },
        {
          "indexed": false,
          "internalType": "uint256",
          "name": "eta",
          "type": "uint256"
        }
      ],
      "name": "ProposalQueued",
      "type": "event"
    },
    {
      "anonymous": false,
      "inputs": [
        {
          "indexed": false,
          "internalType": "uint256",
          "name": "oldProposalThreshold",
          "type": "uint256"
        },
        {
          "indexed": false,
          "internalType": "uint256",
          "name": "newProposalThreshold",
          "type": "uint256"
        }
      ],
      "name": "ProposalThresholdSet",
      "type": "event"
    },
    {
      "anonymous": false,
      "inputs": [
        {
          "indexed": false,
          "internalType": "uint256",
          "name": "oldQuorumNumerator",
          "type": "uint256"
        },
        {
          "indexed": false,
          "internalType": "uint256",
          "name": "newQuorumNumerator",
          "type": "uint256"
        }
      ],
      "name": "QuorumNumeratorUpdated",
      "type": "event"
    },
    {
      "anonymous": false,
      "inputs": [
        {
          "indexed": false,
          "internalType": "address",
          "name": "oldTimelock",
          "type": "address"
        },
        {
          "indexed": false,
          "internalType": "address",
          "name": "newTimelock",
          "type": "address"
        }
      ],
      "name": "TimelockChange",
      "type": "event"
    },
    {
      "anonymous": false,
      "inputs": [
        {
          "indexed": true,
          "internalType": "address",
          "name": "implementation",
          "type": "address"
        }
      ],
      "name": "Upgraded",
      "type": "event"
    },
    {
      "anonymous": false,
      "inputs": [
        {
          "indexed": true,
          "internalType": "address",
          "name": "voter",
          "type": "address"
        },
        {
          "indexed": false,
          "internalType": "uint256",
          "name": "proposalId",
          "type": "uint256"
        },
        {
          "indexed": false,
          "internalType": "uint8",
          "name": "support",
          "type": "uint8"
        },
        {
          "indexed": false,
          "internalType": "uint256",
          "name": "weight",
          "type": "uint256"
        },
        {
          "indexed": false,
          "internalType": "string",
          "name": "reason",
          "type": "string"
        }
      ],
      "name": "VoteCast",
      "type": "event"
    },
    {
      "anonymous": false,
      "inputs": [
        {
          "indexed": true,
          "internalType": "address",
          "name": "voter",
          "type": "address"
        },
        {
          "indexed": false,
          "internalType": "uint256",
          "name": "proposalId",
          "type": "uint256"
        },
        {
          "indexed": false,
          "internalType": "uint8",
          "name": "support",
          "type": "uint8"
        },
        {
          "indexed": false,
          "internalType": "uint256",
          "name": "weight",
          "type": "uint256"
        },
        {
          "indexed": false,
          "internalType": "string",
          "name": "reason",
          "type": "string"
        },
        {
          "indexed": false,
          "internalType": "bytes",
          "name": "params",
          "type": "bytes"
        }
      ],
      "name": "VoteCastWithParams",
      "type": "event"
    },
    {
      "anonymous": false,
      "inputs": [
        {
          "indexed": false,
          "internalType": "uint256",
          "name": "oldVotingDelay",
          "type": "uint256"
        },
        {
          "indexed": false,
          "internalType": "uint256",
          "name": "newVotingDelay",
          "type": "uint256"
        }
      ],
      "name": "VotingDelaySet",
      "type": "event"
    },
    {
      "anonymous": false,
      "inputs": [
        {
          "indexed": false,
          "internalType": "uint256",
          "name": "oldVotingPeriod",
          "type": "uint256"
        },
        {
          "indexed": false,
          "internalType": "uint256",
          "name": "newVotingPeriod",
          "type": "uint256"
        }
      ],
      "name": "VotingPeriodSet",
      "type": "event"
    },
    {
      "inputs": [],
      "name": "BALLOT_TYPEHASH",
      "outputs": [
        {
          "internalType": "bytes32",
          "name": "",
          "type": "bytes32"
        }
      ],
      "stateMutability": "view",
      "type": "function"
    },
    {
      "inputs": [],
      "name": "COUNTING_MODE",
      "outputs": [
        {
          "internalType": "string",
          "name": "",
          "type": "string"
        }
      ],
      "stateMutability": "pure",
      "type": "function"
    },
    {
      "inputs": [],
      "name": "EXTENDED_BALLOT_TYPEHASH",
      "outputs": [
        {
          "internalType": "bytes32",
          "name": "",
          "type": "bytes32"
        }
      ],
      "stateMutability": "view",
      "type": "function"
    },
    {
      "inputs": [
        {
          "internalType": "uint256",
          "name": "proposalId",
          "type": "uint256"
        },
        {
          "internalType": "uint8",
          "name": "support",
          "type": "uint8"
        }
      ],
      "name": "castVote",
      "outputs": [
        {
          "internalType": "uint256",
          "name": "",
          "type": "uint256"
        }
      ],
      "stateMutability": "nonpayable",
      "type": "function"
    },
    {
      "inputs": [
        {
          "internalType": "uint256",
          "name": "proposalId",
          "type": "uint256"
        },
        {
          "internalType": "uint8",
          "name": "support",
          "type": "uint8"
        },
        {
          "internalType": "uint8",
          "name": "v",
          "type": "uint8"
        },
        {
          "internalType": "bytes32",
          "name": "r",
          "type": "bytes32"
        },
        {
          "internalType": "bytes32",
          "name": "s",
          "type": "bytes32"
        }
      ],
      "name": "castVoteBySig",
      "outputs": [
        {
          "internalType": "uint256",
          "name": "",
          "type": "uint256"
        }
      ],
      "stateMutability": "nonpayable",
      "type": "function"
    },
    {
      "inputs": [
        {
          "internalType": "uint256",
          "name": "proposalId",
          "type": "uint256"
        },
        {
          "internalType": "uint8",
          "name": "support",
          "type": "uint8"
        },
        {
          "internalType": "string",
          "name": "reason",
          "type": "string"
        }
      ],
      "name": "castVoteWithReason",
      "outputs": [
        {
          "internalType": "uint256",
          "name": "",
          "type": "uint256"
        }
      ],
      "stateMutability": "nonpayable",
      "type": "function"
    },
    {
      "inputs": [
        {
          "internalType": "uint256",
          "name": "proposalId",
          "type": "uint256"
        },
        {
          "internalType": "uint8",
          "name": "support",
          "type": "uint8"
        },
        {
          "internalType": "string",
          "name": "reason",
          "type": "string"
        },
        {
          "internalType": "bytes",
          "name": "params",
          "type": "bytes"
        }
      ],
      "name": "castVoteWithReasonAndParams",
      "outputs": [
        {
          "internalType": "uint256",
          "name": "",
          "type": "uint256"
        }
      ],
      "stateMutability": "nonpayable",
      "type": "function"
    },
    {
      "inputs": [
        {
          "internalType": "uint256",
          "name": "proposalId",
          "type": "uint256"
        },
        {
          "internalType": "uint8",
          "name": "support",
          "type": "uint8"
        },
        {
          "internalType": "string",
          "name": "reason",
          "type": "string"
        },
        {
          "internalType": "bytes",
          "name": "params",
          "type": "bytes"
        },
        {
          "internalType": "uint8",
          "name": "v",
          "type": "uint8"
        },
        {
          "internalType": "bytes32",
          "name": "r",
          "type": "bytes32"
        },
        {
          "internalType": "bytes32",
          "name": "s",
          "type": "bytes32"
        }
      ],
      "name": "castVoteWithReasonAndParamsBySig",
      "outputs": [
        {
          "internalType": "uint256",
          "name": "",
          "type": "uint256"
        }
      ],
      "stateMutability": "nonpayable",
      "type": "function"
    },
    {
      "inputs": [
        {
          "internalType": "address[]",
          "name": "targets",
          "type": "address[]"
        },
        {
          "internalType": "uint256[]",
          "name": "values",
          "type": "uint256[]"
        },
        {
          "internalType": "bytes[]",
          "name": "calldatas",
          "type": "bytes[]"
        },
        {
          "internalType": "bytes32",
          "name": "descriptionHash",
          "type": "bytes32"
        }
      ],
      "name": "execute",
      "outputs": [
        {
          "internalType": "uint256",
          "name": "",
          "type": "uint256"
        }
      ],
      "stateMutability": "payable",
      "type": "function"
    },
    {
      "inputs": [
        {
          "internalType": "address",
          "name": "account",
          "type": "address"
        },
        {
          "internalType": "uint256",
          "name": "blockNumber",
          "type": "uint256"
        }
      ],
      "name": "getVotes",
      "outputs": [
        {
          "internalType": "uint256",
          "name": "",
          "type": "uint256"
        }
      ],
      "stateMutability": "view",
      "type": "function"
    },
    {
      "inputs": [
        {
          "internalType": "address",
          "name": "account",
          "type": "address"
        },
        {
          "internalType": "uint256",
          "name": "blockNumber",
          "type": "uint256"
        },
        {
          "internalType": "bytes",
          "name": "params",
          "type": "bytes"
        }
      ],
      "name": "getVotesWithParams",
      "outputs": [
        {
          "internalType": "uint256",
          "name": "",
          "type": "uint256"
        }
      ],
      "stateMutability": "view",
      "type": "function"
    },
    {
      "inputs": [
        {
          "internalType": "uint256",
          "name": "proposalId",
          "type": "uint256"
        },
        {
          "internalType": "address",
          "name": "account",
          "type": "address"
        }
      ],
      "name": "hasVoted",
      "outputs": [
        {
          "internalType": "bool",
          "name": "",
          "type": "bool"
        }
      ],
      "stateMutability": "view",
      "type": "function"
    },
    {
      "inputs": [
        {
          "internalType": "address[]",
          "name": "targets",
          "type": "address[]"
        },
        {
          "internalType": "uint256[]",
          "name": "values",
          "type": "uint256[]"
        },
        {
          "internalType": "bytes[]",
          "name": "calldatas",
          "type": "bytes[]"
        },
        {
          "internalType": "bytes32",
          "name": "descriptionHash",
          "type": "bytes32"
        }
      ],
      "name": "hashProposal",
      "outputs": [
        {
          "internalType": "uint256",
          "name": "",
          "type": "uint256"
        }
      ],
      "stateMutability": "pure",
      "type": "function"
    },
    {
      "inputs": [
        {
          "internalType": "contract IVotesUpgradeable",
          "name": "_token",
          "type": "address"
        },
        {
          "internalType": "contract VestingWithVoting",
          "name": "_vesting",
          "type": "address"
        },
        {
          "internalType": "contract Executor",
          "name": "executor_",
          "type": "address"
        },
        {
          "internalType": "uint256",
          "name": "initialVotingDelay",
          "type": "uint256"
        },
        {
          "internalType": "uint256",
          "name": "initialVotingPeriod",
          "type": "uint256"
        },
        {
          "internalType": "uint256",
          "name": "initialProposalThreshold",
          "type": "uint256"
        }
      ],
      "name": "initialize",
      "outputs": [],
      "stateMutability": "nonpayable",
      "type": "function"
    },
    {
      "inputs": [],
      "name": "name",
      "outputs": [
        {
          "internalType": "string",
          "name": "",
          "type": "string"
        }
      ],
      "stateMutability": "view",
      "type": "function"
    },
    {
      "inputs": [
        {
          "internalType": "address",
          "name": "",
          "type": "address"
        },
        {
          "internalType": "address",
          "name": "",
          "type": "address"
        },
        {
          "internalType": "uint256[]",
          "name": "",
          "type": "uint256[]"
        },
        {
          "internalType": "uint256[]",
          "name": "",
          "type": "uint256[]"
        },
        {
          "internalType": "bytes",
          "name": "",
          "type": "bytes"
        }
      ],
      "name": "onERC1155BatchReceived",
      "outputs": [
        {
          "internalType": "bytes4",
          "name": "",
          "type": "bytes4"
        }
      ],
      "stateMutability": "nonpayable",
      "type": "function"
    },
    {
      "inputs": [
        {
          "internalType": "address",
          "name": "",
          "type": "address"
        },
        {
          "internalType": "address",
          "name": "",
          "type": "address"
        },
        {
          "internalType": "uint256",
          "name": "",
          "type": "uint256"
        },
        {
          "internalType": "uint256",
          "name": "",
          "type": "uint256"
        },
        {
          "internalType": "bytes",
          "name": "",
          "type": "bytes"
        }
      ],
      "name": "onERC1155Received",
      "outputs": [
        {
          "internalType": "bytes4",
          "name": "",
          "type": "bytes4"
        }
      ],
      "stateMutability": "nonpayable",
      "type": "function"
    },
    {
      "inputs": [
        {
          "internalType": "address",
          "name": "",
          "type": "address"
        },
        {
          "internalType": "address",
          "name": "",
          "type": "address"
        },
        {
          "internalType": "uint256",
          "name": "",
          "type": "uint256"
        },
        {
          "internalType": "bytes",
          "name": "",
          "type": "bytes"
        }
      ],
      "name": "onERC721Received",
      "outputs": [
        {
          "internalType": "bytes4",
          "name": "",
          "type": "bytes4"
        }
      ],
      "stateMutability": "nonpayable",
      "type": "function"
    },
    {
      "inputs": [],
      "name": "owner",
      "outputs": [
        {
          "internalType": "address",
          "name": "",
          "type": "address"
        }
      ],
      "stateMutability": "view",
      "type": "function"
    },
    {
      "inputs": [
        {
          "internalType": "uint256",
          "name": "proposalId",
          "type": "uint256"
        }
      ],
      "name": "proposalDeadline",
      "outputs": [
        {
          "internalType": "uint256",
          "name": "",
          "type": "uint256"
        }
      ],
      "stateMutability": "view",
      "type": "function"
    },
    {
      "inputs": [
        {
          "internalType": "uint256",
          "name": "proposalId",
          "type": "uint256"
        }
      ],
      "name": "proposalEta",
      "outputs": [
        {
          "internalType": "uint256",
          "name": "",
          "type": "uint256"
        }
      ],
      "stateMutability": "view",
      "type": "function"
    },
    {
      "inputs": [
        {
          "internalType": "uint256",
          "name": "proposalId",
          "type": "uint256"
        }
      ],
      "name": "proposalSnapshot",
      "outputs": [
        {
          "internalType": "uint256",
          "name": "",
          "type": "uint256"
        }
      ],
      "stateMutability": "view",
      "type": "function"
    },
    {
      "inputs": [],
      "name": "proposalThreshold",
      "outputs": [
        {
          "internalType": "uint256",
          "name": "",
          "type": "uint256"
        }
      ],
      "stateMutability": "view",
      "type": "function"
    },
    {
      "inputs": [
        {
          "internalType": "uint256",
          "name": "proposalId",
          "type": "uint256"
        }
      ],
      "name": "proposalVotes",
      "outputs": [
        {
          "internalType": "uint256",
          "name": "againstVotes",
          "type": "uint256"
        },
        {
          "internalType": "uint256",
          "name": "forVotes",
          "type": "uint256"
        },
        {
          "internalType": "uint256",
          "name": "abstainVotes",
          "type": "uint256"
        }
      ],
      "stateMutability": "view",
      "type": "function"
    },
    {
      "inputs": [
        {
          "internalType": "address[]",
          "name": "targets",
          "type": "address[]"
        },
        {
          "internalType": "uint256[]",
          "name": "values",
          "type": "uint256[]"
        },
        {
          "internalType": "bytes[]",
          "name": "calldatas",
          "type": "bytes[]"
        },
        {
          "internalType": "string",
          "name": "description",
          "type": "string"
        }
      ],
      "name": "propose",
      "outputs": [
        {
          "internalType": "uint256",
          "name": "",
          "type": "uint256"
        }
      ],
      "stateMutability": "nonpayable",
      "type": "function"
    },
    {
      "inputs": [],
      "name": "proxiableUUID",
      "outputs": [
        {
          "internalType": "bytes32",
          "name": "",
          "type": "bytes32"
        }
      ],
      "stateMutability": "view",
      "type": "function"
    },
    {
      "inputs": [
        {
          "internalType": "address[]",
          "name": "targets",
          "type": "address[]"
        },
        {
          "internalType": "uint256[]",
          "name": "values",
          "type": "uint256[]"
        },
        {
          "internalType": "bytes[]",
          "name": "calldatas",
          "type": "bytes[]"
        },
        {
          "internalType": "bytes32",
          "name": "descriptionHash",
          "type": "bytes32"
        }
      ],
      "name": "queue",
      "outputs": [
        {
          "internalType": "uint256",
          "name": "",
          "type": "uint256"
        }
      ],
      "stateMutability": "nonpayable",
      "type": "function"
    },
    {
      "inputs": [
        {
          "internalType": "uint256",
          "name": "blockNumber",
          "type": "uint256"
        }
      ],
      "name": "quorum",
      "outputs": [
        {
          "internalType": "uint256",
          "name": "",
          "type": "uint256"
        }
      ],
      "stateMutability": "view",
      "type": "function"
    },
    {
      "inputs": [],
      "name": "quorumDenominator",
      "outputs": [
        {
          "internalType": "uint256",
          "name": "",
          "type": "uint256"
        }
      ],
      "stateMutability": "view",
      "type": "function"
    },
    {
      "inputs": [],
      "name": "quorumNumerator",
      "outputs": [
        {
          "internalType": "uint256",
          "name": "",
          "type": "uint256"
        }
      ],
      "stateMutability": "view",
      "type": "function"
    },
    {
      "inputs": [
        {
          "internalType": "address",
          "name": "target",
          "type": "address"
        },
        {
          "internalType": "uint256",
          "name": "value",
          "type": "uint256"
        },
        {
          "internalType": "bytes",
          "name": "data",
          "type": "bytes"
        }
      ],
      "name": "relay",
      "outputs": [],
      "stateMutability": "nonpayable",
      "type": "function"
    },
    {
      "inputs": [],
      "name": "renounceOwnership",
      "outputs": [],
      "stateMutability": "nonpayable",
      "type": "function"
    },
    {
      "inputs": [
        {
          "internalType": "uint256",
          "name": "newProposalThreshold",
          "type": "uint256"
        }
      ],
      "name": "setProposalThreshold",
      "outputs": [],
      "stateMutability": "nonpayable",
      "type": "function"
    },
    {
      "inputs": [
        {
          "internalType": "uint256",
          "name": "newVotingDelay",
          "type": "uint256"
        }
      ],
      "name": "setVotingDelay",
      "outputs": [],
      "stateMutability": "nonpayable",
      "type": "function"
    },
    {
      "inputs": [
        {
          "internalType": "uint256",
          "name": "newVotingPeriod",
          "type": "uint256"
        }
      ],
      "name": "setVotingPeriod",
      "outputs": [],
      "stateMutability": "nonpayable",
      "type": "function"
    },
    {
      "inputs": [
        {
          "internalType": "uint256",
          "name": "proposalId",
          "type": "uint256"
        }
      ],
      "name": "state",
      "outputs": [
        {
          "internalType": "enum IGovernorUpgradeable.ProposalState",
          "name": "",
          "type": "uint8"
        }
      ],
      "stateMutability": "view",
      "type": "function"
    },
    {
      "inputs": [
        {
          "internalType": "bytes4",
          "name": "interfaceId",
          "type": "bytes4"
        }
      ],
      "name": "supportsInterface",
      "outputs": [
        {
          "internalType": "bool",
          "name": "",
          "type": "bool"
        }
      ],
      "stateMutability": "view",
      "type": "function"
    },
    {
      "inputs": [],
      "name": "timelock",
      "outputs": [
        {
          "internalType": "address",
          "name": "",
          "type": "address"
        }
      ],
      "stateMutability": "view",
      "type": "function"
    },
    {
      "inputs": [],
      "name": "token",
      "outputs": [
        {
          "internalType": "contract IVotesUpgradeable",
          "name": "",
          "type": "address"
        }
      ],
      "stateMutability": "view",
      "type": "function"
    },
    {
      "inputs": [
        {
          "internalType": "address",
          "name": "newOwner",
          "type": "address"
        }
      ],
      "name": "transferOwnership",
      "outputs": [],
      "stateMutability": "nonpayable",
      "type": "function"
    },
    {
      "inputs": [
        {
          "internalType": "uint256",
          "name": "newQuorumNumerator",
          "type": "uint256"
        }
      ],
      "name": "updateQuorumNumerator",
      "outputs": [],
      "stateMutability": "nonpayable",
      "type": "function"
    },
    {
      "inputs": [
        {
          "internalType": "contract TimelockControllerUpgradeable",
          "name": "newTimelock",
          "type": "address"
        }
      ],
      "name": "updateTimelock",
      "outputs": [],
      "stateMutability": "nonpayable",
      "type": "function"
    },
    {
      "inputs": [
        {
          "internalType": "address",
          "name": "newImplementation",
          "type": "address"
        }
      ],
      "name": "upgradeTo",
      "outputs": [],
      "stateMutability": "nonpayable",
      "type": "function"
    },
    {
      "inputs": [
        {
          "internalType": "address",
          "name": "newImplementation",
          "type": "address"
        },
        {
          "internalType": "bytes",
          "name": "data",
          "type": "bytes"
        }
      ],
      "name": "upgradeToAndCall",
      "outputs": [],
      "stateMutability": "payable",
      "type": "function"
    },
    {
      "inputs": [],
      "name": "version",
      "outputs": [
        {
          "internalType": "string",
          "name": "",
          "type": "string"
        }
      ],
      "stateMutability": "view",
      "type": "function"
    },
    {
      "inputs": [],
      "name": "vesting",
      "outputs": [
        {
          "internalType": "contract VestingWithVoting",
          "name": "",
          "type": "address"
        }
      ],
      "stateMutability": "view",
      "type": "function"
    },
    {
      "inputs": [],
      "name": "votingDelay",
      "outputs": [
        {
          "internalType": "uint256",
          "name": "",
          "type": "uint256"
        }
      ],
      "stateMutability": "view",
      "type": "function"
    },
    {
      "inputs": [],
      "name": "votingPeriod",
      "outputs": [
        {
          "internalType": "uint256",
          "name": "",
          "type": "uint256"
        }
      ],
      "stateMutability": "view",
      "type": "function"
    },
    {
      "stateMutability": "payable",
      "type": "receive"
    }
  ],
  "transactionHash": "0xa7f7074e905e32ec17bd0c953873a9fdf8167aef645169ae94146f4bb56a4807",
  "args": [],
  "numDeployments": 1,
  "solcInputHash": "6dc70b042d052a203846c8f9f92c29e4",
  "bytecode": "0x60a0604052306080523480156200001557600080fd5b506200002062000026565b62000156565b6200003260ff62000035565b50565b60008054610100900460ff1615620000ce578160ff1660011480156200006e57506200006c306200014760201b620020ec1760201c565b155b620000c65760405162461bcd60e51b815260206004820152602e602482015260008051602062005cf383398151915260448201526d191e481a5b9a5d1a585b1a5e995960921b60648201526084015b60405180910390fd5b506000919050565b60005460ff8084169116106200012d5760405162461bcd60e51b815260206004820152602e602482015260008051602062005cf383398151915260448201526d191e481a5b9a5d1a585b1a5e995960921b6064820152608401620000bd565b506000805460ff191660ff92909216919091179055600190565b6001600160a01b03163b151590565b608051615b656200018e60003960008181611227015281816112bd015281816114820152818161151801526116470152615b656000f3fe6080604052600436106103175760003560e01c8063728cdbca1161019a578063c28bc2fa116100e1578063eb9019d41161008a578063f2fde38b11610064578063f2fde38b14610a83578063f8ce560a14610aa3578063fc0c546a14610ac357600080fd5b8063eb9019d4146109fe578063ece40cc114610a1e578063f23a6e6114610a3e57600080fd5b8063dd4e2ba5116100bb578063dd4e2ba514610964578063deaaa7cc146109aa578063ea0217cf146109de57600080fd5b8063c28bc2fa146108f8578063c59057e414610918578063d33219b41461093857600080fd5b8063a7713a7011610143578063b58131b01161011d578063b58131b01461087e578063bc197c8114610893578063c01f9e37146108d857600080fd5b8063a7713a7014610828578063a890c9101461083e578063ab58fb8e1461085e57600080fd5b80638da5cb5b116101745780638da5cb5b146107c857806397c3d334146107f45780639a802a6d1461080857600080fd5b8063728cdbca146107685780637b3c71d3146107885780637d5e81e2146107a857600080fd5b80633bccf4fd1161025e578063544ffc9c116102075780635f398a14116101e15780635f398a141461071357806370b0f66014610733578063715018a61461075357600080fd5b8063544ffc9c1461065757806354fd4d50146106ad57806356781388146106f357600080fd5b806344c63eec1161023857806344c63eec146105dc5780634f1ef2861461062f57806352d1902d1461064257600080fd5b80633bccf4fd146105375780633e4f49e614610557578063438596321461058457600080fd5b8063160cbed7116102c05780632fe3e2611161029a5780632fe3e261146104ce5780633659cfe6146105025780633932abb11461052257600080fd5b8063160cbed71461047b5780632656227d1461049b5780632d63f693146104ae57600080fd5b806306f3f9e6116102f157806306f3f9e6146103c457806306fdde03146103e4578063150b7a021461040657600080fd5b806301ffc9a71461034c57806302a251a31461038157806303420181146103a457600080fd5b366103475730610325610af1565b73ffffffffffffffffffffffffffffffffffffffff161461034557600080fd5b005b600080fd5b34801561035857600080fd5b5061036c61036736600461493b565b610b18565b60405190151581526020015b60405180910390f35b34801561038d57600080fd5b50610396610b29565b604051908152602001610378565b3480156103b057600080fd5b506103966103bf366004614aeb565b610b35565b3480156103d057600080fd5b506103456103df366004614b92565b610c2d565b3480156103f057600080fd5b506103f9610d13565b6040516103789190614c21565b34801561041257600080fd5b5061044a610421366004614c56565b7f150b7a0200000000000000000000000000000000000000000000000000000000949350505050565b6040517fffffffff000000000000000000000000000000000000000000000000000000009091168152602001610378565b34801561048757600080fd5b50610396610496366004614e35565b610da5565b6103966104a9366004614e35565b611071565b3480156104ba57600080fd5b506103966104c9366004614b92565b6111d7565b3480156104da57600080fd5b506103967fb3b3f3b703cd84ce352197dcff232b1b5d3cfb2025ce47cf04742d0651f1af8881565b34801561050e57600080fd5b5061034561051d366004614ec5565b611210565b34801561052e57600080fd5b506103966113de565b34801561054357600080fd5b50610396610552366004614ee2565b6113ea565b34801561056357600080fd5b50610577610572366004614b92565b611460565b6040516103789190614f5f565b34801561059057600080fd5b5061036c61059f366004614fa0565b60008281526101616020908152604080832073ffffffffffffffffffffffffffffffffffffffff8516845260030190915290205460ff1692915050565b3480156105e857600080fd5b506102c05461060a9073ffffffffffffffffffffffffffffffffffffffff1681565b60405173ffffffffffffffffffffffffffffffffffffffff9091168152602001610378565b61034561063d366004614fd0565b61146b565b34801561064e57600080fd5b5061039661162d565b34801561066357600080fd5b50610692610672366004614b92565b600090815261016160205260409020805460018201546002909201549092565b60408051938452602084019290925290820152606001610378565b3480156106b957600080fd5b5060408051808201909152600181527f310000000000000000000000000000000000000000000000000000000000000060208201526103f9565b3480156106ff57600080fd5b5061039661070e366004615020565b6116ff565b34801561071f57600080fd5b5061039661072e36600461504c565b611728565b34801561073f57600080fd5b5061034561074e366004614b92565b611772565b34801561075f57600080fd5b50610345611850565b34801561077457600080fd5b506103456107833660046150d0565b6118c4565b34801561079457600080fd5b506103966107a3366004615135565b611a38565b3480156107b457600080fd5b506103966107c336600461518f565b611a8a565b3480156107d457600080fd5b5061022a5473ffffffffffffffffffffffffffffffffffffffff1661060a565b34801561080057600080fd5b506064610396565b34801561081457600080fd5b50610396610823366004615244565b611aa1565b34801561083457600080fd5b506101c654610396565b34801561084a57600080fd5b50610345610859366004614ec5565b611ab8565b34801561086a57600080fd5b50610396610879366004614b92565b611b96565b34801561088a57600080fd5b50610396611c58565b34801561089f57600080fd5b5061044a6108ae36600461529d565b7fbc197c810000000000000000000000000000000000000000000000000000000095945050505050565b3480156108e457600080fd5b506103966108f3366004614b92565b611c64565b34801561090457600080fd5b50610345610913366004615331565b611c94565b34801561092457600080fd5b50610396610933366004614e35565b611db2565b34801561094457600080fd5b506101f85473ffffffffffffffffffffffffffffffffffffffff1661060a565b34801561097057600080fd5b506040805180820190915260208082527f737570706f72743d627261766f2671756f72756d3d666f722c6162737461696e908201526103f9565b3480156109b657600080fd5b506103967f150214d74d59b7d1e90c73fc22ef3d991dd0a76b046543d4d80ab92d2a50328f81565b3480156109ea57600080fd5b506103456109f9366004614b92565b611e0a565b348015610a0a57600080fd5b50610396610a19366004615375565b611ee8565b348015610a2a57600080fd5b50610345610a39366004614b92565b611f09565b348015610a4a57600080fd5b5061044a610a593660046153a1565b7ff23a6e610000000000000000000000000000000000000000000000000000000095945050505050565b348015610a8f57600080fd5b50610345610a9e366004614ec5565b611fe7565b348015610aaf57600080fd5b50610396610abe366004614b92565b6120e1565b348015610acf57600080fd5b506101935461060a9073ffffffffffffffffffffffffffffffffffffffff1681565b6000610b136101f85473ffffffffffffffffffffffffffffffffffffffff1690565b905090565b6000610b2382612108565b92915050565b6000610b136101305490565b600080610bd9610bd17fb3b3f3b703cd84ce352197dcff232b1b5d3cfb2025ce47cf04742d0651f1af888c8c8c8c604051610b7192919061540a565b60405180910390208b80519060200120604051602001610bb6959493929190948552602085019390935260ff9190911660408401526060830152608082015260a00190565b6040516020818303038152906040528051906020012061215e565b8686866121c7565b9050610c1f8a828b8b8b8080601f0160208091040260200160405190810160405280939291908181526020018383808284376000920191909152508d92506121e5915050565b9a9950505050505050505050565b610c35610af1565b73ffffffffffffffffffffffffffffffffffffffff163373ffffffffffffffffffffffffffffffffffffffff1614610cb45760405162461bcd60e51b815260206004820152601860248201527f476f7665726e6f723a206f6e6c79476f7665726e616e6365000000000000000060448201526064015b60405180910390fd5b30610cbd610af1565b73ffffffffffffffffffffffffffffffffffffffff1614610d075760008036604051610cea92919061540a565b604051809103902090505b80610d0060ff61237e565b03610cf557505b610d108161243b565b50565b606060fd8054610d229061541a565b80601f0160208091040260200160405190810160405280929190818152602001828054610d4e9061541a565b8015610d9b5780601f10610d7057610100808354040283529160200191610d9b565b820191906000526020600020905b815481529060010190602001808311610d7e57829003601f168201915b5050505050905090565b600080610db486868686611db2565b90506004610dc182611460565b6007811115610dd257610dd2614f30565b14610e455760405162461bcd60e51b815260206004820152602160248201527f476f7665726e6f723a2070726f706f73616c206e6f742073756363657373667560448201527f6c000000000000000000000000000000000000000000000000000000000000006064820152608401610cab565b6101f854604080517ff27a0c92000000000000000000000000000000000000000000000000000000008152905160009273ffffffffffffffffffffffffffffffffffffffff169163f27a0c929160048083019260209291908290030181865afa158015610eb6573d6000803e3d6000fd5b505050506040513d601f19601f82011682018060405250810190610eda919061546d565b6101f8546040517fb1c5f42700000000000000000000000000000000000000000000000000000000815291925073ffffffffffffffffffffffffffffffffffffffff169063b1c5f42790610f3b908a908a908a906000908b9060040161555c565b602060405180830381865afa158015610f58573d6000803e3d6000fd5b505050506040513d601f19601f82011682018060405250810190610f7c919061546d565b60008381526101f96020526040808220929092556101f85491517f8f2a0bb000000000000000000000000000000000000000000000000000000000815273ffffffffffffffffffffffffffffffffffffffff90921691638f2a0bb091610fef918b918b918b91908b9089906004016155aa565b600060405180830381600087803b15801561100957600080fd5b505af115801561101d573d6000803e3d6000fd5b505050507f9a2e42fd6722813d69113e7d0079d3d940171428df7373df9c7f7617cfda289282824261104f9190615631565b6040805192835260208301919091520160405180910390a15095945050505050565b60008061108086868686611db2565b9050600061108d82611460565b905060048160078111156110a3576110a3614f30565b14806110c0575060058160078111156110be576110be614f30565b145b6111325760405162461bcd60e51b815260206004820152602160248201527f476f7665726e6f723a2070726f706f73616c206e6f742073756363657373667560448201527f6c000000000000000000000000000000000000000000000000000000000000006064820152608401610cab565b600082815260fe60205260409081902060020180547fffffffffffffffffffffffffffffffffffffffffffffffffffffffffffffff00166001179055517f712ae1383f79ac853f8d882153778e0260ef8f03b504e2866e0593e04d2b291f9061119e9084815260200190565b60405180910390a16111b3828888888861251e565b6111c082888888886125e6565b6111cd82888888886125f3565b5095945050505050565b600081815260fe6020908152604080832081519283019091525467ffffffffffffffff16908190525b67ffffffffffffffff1692915050565b73ffffffffffffffffffffffffffffffffffffffff7f00000000000000000000000000000000000000000000000000000000000000001630036112bb5760405162461bcd60e51b815260206004820152602c60248201527f46756e6374696f6e206d7573742062652063616c6c6564207468726f7567682060448201527f64656c656761746563616c6c00000000000000000000000000000000000000006064820152608401610cab565b7f000000000000000000000000000000000000000000000000000000000000000073ffffffffffffffffffffffffffffffffffffffff166113307f360894a13ba1a3210667c828492db98dca3e2076cc3735a920a3ca505d382bbc5473ffffffffffffffffffffffffffffffffffffffff1690565b73ffffffffffffffffffffffffffffffffffffffff16146113b95760405162461bcd60e51b815260206004820152602c60248201527f46756e6374696f6e206d7573742062652063616c6c6564207468726f7567682060448201527f6163746976652070726f787900000000000000000000000000000000000000006064820152608401610cab565b6113c281612646565b60408051600080825260208201909252610d10918391906126ae565b6000610b1361012f5490565b604080517f150214d74d59b7d1e90c73fc22ef3d991dd0a76b046543d4d80ab92d2a50328f602082015290810186905260ff85166060820152600090819061143890610bd190608001610bb6565b90506114558782886040518060200160405280600081525061287e565b979650505050505050565b6000610b23826128a1565b73ffffffffffffffffffffffffffffffffffffffff7f00000000000000000000000000000000000000000000000000000000000000001630036115165760405162461bcd60e51b815260206004820152602c60248201527f46756e6374696f6e206d7573742062652063616c6c6564207468726f7567682060448201527f64656c656761746563616c6c00000000000000000000000000000000000000006064820152608401610cab565b7f000000000000000000000000000000000000000000000000000000000000000073ffffffffffffffffffffffffffffffffffffffff1661158b7f360894a13ba1a3210667c828492db98dca3e2076cc3735a920a3ca505d382bbc5473ffffffffffffffffffffffffffffffffffffffff1690565b73ffffffffffffffffffffffffffffffffffffffff16146116145760405162461bcd60e51b815260206004820152602c60248201527f46756e6374696f6e206d7573742062652063616c6c6564207468726f7567682060448201527f6163746976652070726f787900000000000000000000000000000000000000006064820152608401610cab565b61161d82612646565b611629828260016126ae565b5050565b60003073ffffffffffffffffffffffffffffffffffffffff7f000000000000000000000000000000000000000000000000000000000000000016146116da5760405162461bcd60e51b815260206004820152603860248201527f555550535570677261646561626c653a206d757374206e6f742062652063616c60448201527f6c6564207468726f7567682064656c656761746563616c6c00000000000000006064820152608401610cab565b507f360894a13ba1a3210667c828492db98dca3e2076cc3735a920a3ca505d382bbc90565b6000803390506117208482856040518060200160405280600081525061287e565b949350505050565b60008033905061145587828888888080601f0160208091040260200160405190810160405280939291908181526020018383808284376000920191909152508a92506121e5915050565b61177a610af1565b73ffffffffffffffffffffffffffffffffffffffff163373ffffffffffffffffffffffffffffffffffffffff16146117f45760405162461bcd60e51b815260206004820152601860248201527f476f7665726e6f723a206f6e6c79476f7665726e616e636500000000000000006044820152606401610cab565b306117fd610af1565b73ffffffffffffffffffffffffffffffffffffffff1614611847576000803660405161182a92919061540a565b604051809103902090505b8061184060ff61237e565b0361183557505b610d1081612a3a565b61022a5473ffffffffffffffffffffffffffffffffffffffff1633146118b85760405162461bcd60e51b815260206004820181905260248201527f4f776e61626c653a2063616c6c6572206973206e6f7420746865206f776e65726044820152606401610cab565b6118c26000612a7d565b565b60006118d06001612af5565b9050801561190557600080547fffffffffffffffffffffffffffffffffffffffffffffffffffffffffffff00ff166101001790555b61190d612c4c565b61194b6040518060400160405280600f81526020017f466c75656e6365476f7665726e6f720000000000000000000000000000000000815250612cc9565b611956848484612d92565b61195e612c4c565b61196787612e1a565b6119716004612ea0565b61197a85612f26565b611982612fac565b61198b85612a7d565b6102c080547fffffffffffffffffffffffff00000000000000000000000000000000000000001673ffffffffffffffffffffffffffffffffffffffff88161790558015611a2f57600080547fffffffffffffffffffffffffffffffffffffffffffffffffffffffffffff00ff169055604051600181527f7f26b83ff96e1f2b6a682f133852f6798a09c465da95921460cefb38474024989060200160405180910390a15b50505050505050565b600080339050611a8086828787878080601f01602080910402602001604051908101604052809392919081815260200183838082843760009201919091525061287e92505050565b9695505050505050565b6000611a9885858585613031565b95945050505050565b6000611aae8484846133fa565b90505b9392505050565b611ac0610af1565b73ffffffffffffffffffffffffffffffffffffffff163373ffffffffffffffffffffffffffffffffffffffff1614611b3a5760405162461bcd60e51b815260206004820152601860248201527f476f7665726e6f723a206f6e6c79476f7665726e616e636500000000000000006044820152606401610cab565b30611b43610af1565b73ffffffffffffffffffffffffffffffffffffffff1614611b8d5760008036604051611b7092919061540a565b604051809103902090505b80611b8660ff61237e565b03611b7b57505b610d10816134aa565b6101f85460008281526101f960205260408082205490517fd45c443500000000000000000000000000000000000000000000000000000000815260048101919091529091829173ffffffffffffffffffffffffffffffffffffffff9091169063d45c443590602401602060405180830381865afa158015611c1b573d6000803e3d6000fd5b505050506040513d601f19601f82011682018060405250810190611c3f919061546d565b905080600114611c4f5780611ab1565b60009392505050565b6000610b136101315490565b600081815260fe6020908152604080832081519283019091526001015467ffffffffffffffff1690819052611200565b611c9c610af1565b73ffffffffffffffffffffffffffffffffffffffff163373ffffffffffffffffffffffffffffffffffffffff1614611d165760405162461bcd60e51b815260206004820152601860248201527f476f7665726e6f723a206f6e6c79476f7665726e616e636500000000000000006044820152606401610cab565b30611d1f610af1565b73ffffffffffffffffffffffffffffffffffffffff1614611d695760008036604051611d4c92919061540a565b604051809103902090505b80611d6260ff61237e565b03611d5757505b611dab8483838080601f016020809104026020016040519081016040528093929190818152602001838380828437600092019190915250889250613547915050565b5050505050565b600084848484604051602001611dcb9493929190615649565b604080517fffffffffffffffffffffffffffffffffffffffffffffffffffffffffffffffe0818403018152919052805160209091012095945050505050565b611e12610af1565b73ffffffffffffffffffffffffffffffffffffffff163373ffffffffffffffffffffffffffffffffffffffff1614611e8c5760405162461bcd60e51b815260206004820152601860248201527f476f7665726e6f723a206f6e6c79476f7665726e616e636500000000000000006044820152606401610cab565b30611e95610af1565b73ffffffffffffffffffffffffffffffffffffffff1614611edf5760008036604051611ec292919061540a565b604051809103902090505b80611ed860ff61237e565b03611ecd57505b610d108161356d565b6000611ab18383611f0460408051602081019091526000815290565b6133fa565b611f11610af1565b73ffffffffffffffffffffffffffffffffffffffff163373ffffffffffffffffffffffffffffffffffffffff1614611f8b5760405162461bcd60e51b815260206004820152601860248201527f476f7665726e6f723a206f6e6c79476f7665726e616e636500000000000000006044820152606401610cab565b30611f94610af1565b73ffffffffffffffffffffffffffffffffffffffff1614611fde5760008036604051611fc192919061540a565b604051809103902090505b80611fd760ff61237e565b03611fcc57505b610d1081613626565b61022a5473ffffffffffffffffffffffffffffffffffffffff16331461204f5760405162461bcd60e51b815260206004820181905260248201527f4f776e61626c653a2063616c6c6572206973206e6f7420746865206f776e65726044820152606401610cab565b73ffffffffffffffffffffffffffffffffffffffff81166120d85760405162461bcd60e51b815260206004820152602660248201527f4f776e61626c653a206e6577206f776e657220697320746865207a65726f206160448201527f64647265737300000000000000000000000000000000000000000000000000006064820152608401610cab565b610d1081612a7d565b6000610b2382613669565b73ffffffffffffffffffffffffffffffffffffffff163b151590565b60007fffffffff0000000000000000000000000000000000000000000000000000000082167f6e665ced000000000000000000000000000000000000000000000000000000001480610b235750610b2382613719565b6000610b2361216b613848565b836040517f19010000000000000000000000000000000000000000000000000000000000006020820152602281018390526042810182905260009060620160405160208183030381529060405280519060200120905092915050565b60008060006121d8878787876138c3565b915091506111cd816139db565b600085815260fe6020526040812060016121fe88611460565b600781111561220f5761220f614f30565b146122825760405162461bcd60e51b815260206004820152602360248201527f476f7665726e6f723a20766f7465206e6f742063757272656e746c792061637460448201527f69766500000000000000000000000000000000000000000000000000000000006064820152608401610cab565b6040805160208101909152815467ffffffffffffffff16908190526000906122ac908890866133fa565b90506122bb8888888488613bc7565b835160000361231d578673ffffffffffffffffffffffffffffffffffffffff167fb8e138887d0aa13bab447e82de9d5c1777041ecd21ca36ba824ff1e6c07ddda4898884896040516123109493929190615694565b60405180910390a2611455565b8673ffffffffffffffffffffffffffffffffffffffff167fe2babfbac5889a709b63bb7f598b324e08bc5a4fb9ec647fb3cbc9ec07eb8712898884898960405161236b9594939291906156bc565b60405180910390a2979650505050505050565b60006123a68254600f81810b700100000000000000000000000000000000909204900b131590565b156123dd576040517f3db2a12a00000000000000000000000000000000000000000000000000000000815260040160405180910390fd5b508054600f0b6000818152600180840160205260408220805492905583547fffffffffffffffffffffffffffffffff000000000000000000000000000000001692016fffffffffffffffffffffffffffffffff169190911790915590565b60648111156124d85760405162461bcd60e51b815260206004820152604360248201527f476f7665726e6f72566f74657351756f72756d4672616374696f6e3a2071756f60448201527f72756d4e756d657261746f72206f7665722071756f72756d44656e6f6d696e6160648201527f746f720000000000000000000000000000000000000000000000000000000000608482015260a401610cab565b6101c680549082905560408051828152602081018490527f0553476bf02ef2726e8ce5ced78d63e26e602e4a2257b1f559418e24b4633997910160405180910390a15050565b30612527610af1565b73ffffffffffffffffffffffffffffffffffffffff1614611dab5760005b84518110156125de573073ffffffffffffffffffffffffffffffffffffffff1685828151811061257757612577615702565b602002602001015173ffffffffffffffffffffffffffffffffffffffff16036125ce576125ce8382815181106125af576125af615702565b60200260200101518051906020012060ff613dd490919063ffffffff16565b6125d781615731565b9050612545565b505050505050565b611dab8585858585613e26565b306125fc610af1565b73ffffffffffffffffffffffffffffffffffffffff1614611dab5760ff54600f81810b700100000000000000000000000000000000909204900b1315611dab57600060ff55611dab565b61022a5473ffffffffffffffffffffffffffffffffffffffff163314610d105760405162461bcd60e51b815260206004820181905260248201527f4f776e61626c653a2063616c6c6572206973206e6f7420746865206f776e65726044820152606401610cab565b7f4910fdfa16fed3260ed0e7147f7cc6da11a60208b5b9406d12a635614ffd91435460ff16156126e6576126e183613ec1565b505050565b8273ffffffffffffffffffffffffffffffffffffffff166352d1902d6040518163ffffffff1660e01b8152600401602060405180830381865afa92505050801561276b575060408051601f3d9081017fffffffffffffffffffffffffffffffffffffffffffffffffffffffffffffffe01682019092526127689181019061546d565b60015b6127dd5760405162461bcd60e51b815260206004820152602e60248201527f45524331393637557067726164653a206e657720696d706c656d656e7461746960448201527f6f6e206973206e6f7420555550530000000000000000000000000000000000006064820152608401610cab565b7f360894a13ba1a3210667c828492db98dca3e2076cc3735a920a3ca505d382bbc81146128725760405162461bcd60e51b815260206004820152602960248201527f45524331393637557067726164653a20756e737570706f727465642070726f7860448201527f6961626c655555494400000000000000000000000000000000000000000000006064820152608401610cab565b506126e1838383613fb1565b6000611a988585858561289c60408051602081019091526000815290565b6121e5565b6000806128ad83613fdc565b905060048160078111156128c3576128c3614f30565b146128ce5792915050565b60008381526101f96020526040902054806128ea575092915050565b6101f8546040517f2ab0f5290000000000000000000000000000000000000000000000000000000081526004810183905273ffffffffffffffffffffffffffffffffffffffff90911690632ab0f52990602401602060405180830381865afa15801561295a573d6000803e3d6000fd5b505050506040513d601f19601f8201168201806040525081019061297e9190615769565b1561298d575060079392505050565b6101f8546040517f584b153e0000000000000000000000000000000000000000000000000000000081526004810183905273ffffffffffffffffffffffffffffffffffffffff9091169063584b153e90602401602060405180830381865afa1580156129fd573d6000803e3d6000fd5b505050506040513d601f19601f82011682018060405250810190612a219190615769565b15612a30575060059392505050565b5060029392505050565b61012f5460408051918252602082018390527fc565b045403dc03c2eea82b81a0465edad9e2e7fc4d97e11421c209da93d7a93910160405180910390a161012f55565b61022a805473ffffffffffffffffffffffffffffffffffffffff8381167fffffffffffffffffffffffff0000000000000000000000000000000000000000831681179093556040519116919082907f8be0079c531659141344cd1fd0a4f28419497f9722a3daafe3b4186f6b6457e090600090a35050565b60008054610100900460ff1615612b92578160ff166001148015612b185750303b155b612b8a5760405162461bcd60e51b815260206004820152602e60248201527f496e697469616c697a61626c653a20636f6e747261637420697320616c72656160448201527f647920696e697469616c697a65640000000000000000000000000000000000006064820152608401610cab565b506000919050565b60005460ff808416911610612c0f5760405162461bcd60e51b815260206004820152602e60248201527f496e697469616c697a61626c653a20636f6e747261637420697320616c72656160448201527f647920696e697469616c697a65640000000000000000000000000000000000006064820152608401610cab565b50600080547fffffffffffffffffffffffffffffffffffffffffffffffffffffffffffffff001660ff92909216919091179055600190565b919050565b600054610100900460ff166118c25760405162461bcd60e51b815260206004820152602b60248201527f496e697469616c697a61626c653a20636f6e7472616374206973206e6f74206960448201527f6e697469616c697a696e670000000000000000000000000000000000000000006064820152608401610cab565b600054610100900460ff16612d465760405162461bcd60e51b815260206004820152602b60248201527f496e697469616c697a61626c653a20636f6e7472616374206973206e6f74206960448201527f6e697469616c697a696e670000000000000000000000000000000000000000006064820152608401610cab565b612d8981612d8460408051808201909152600181527f3100000000000000000000000000000000000000000000000000000000000000602082015290565b6140ec565b610d1081614183565b600054610100900460ff16612e0f5760405162461bcd60e51b815260206004820152602b60248201527f496e697469616c697a61626c653a20636f6e7472616374206973206e6f74206960448201527f6e697469616c697a696e670000000000000000000000000000000000000000006064820152608401610cab565b6126e183838361420c565b600054610100900460ff16612e975760405162461bcd60e51b815260206004820152602b60248201527f496e697469616c697a61626c653a20636f6e7472616374206973206e6f74206960448201527f6e697469616c697a696e670000000000000000000000000000000000000000006064820152608401610cab565b610d10816142a4565b600054610100900460ff16612f1d5760405162461bcd60e51b815260206004820152602b60248201527f496e697469616c697a61626c653a20636f6e7472616374206973206e6f74206960448201527f6e697469616c697a696e670000000000000000000000000000000000000000006064820152608401610cab565b610d1081614369565b600054610100900460ff16612fa35760405162461bcd60e51b815260206004820152602b60248201527f496e697469616c697a61626c653a20636f6e7472616374206973206e6f74206960448201527f6e697469616c697a696e670000000000000000000000000000000000000000006064820152608401610cab565b610d10816143e6565b600054610100900460ff166130295760405162461bcd60e51b815260206004820152602b60248201527f496e697469616c697a61626c653a20636f6e7472616374206973206e6f74206960448201527f6e697469616c697a696e670000000000000000000000000000000000000000006064820152608401610cab565b6118c2614463565b600061303b611c58565b61304a33610a1960014361578b565b10156130be5760405162461bcd60e51b815260206004820152603160248201527f476f7665726e6f723a2070726f706f73657220766f7465732062656c6f77207060448201527f726f706f73616c207468726573686f6c640000000000000000000000000000006064820152608401610cab565b60006130d38686868680519060200120611db2565b9050845186511461314c5760405162461bcd60e51b815260206004820152602160248201527f476f7665726e6f723a20696e76616c69642070726f706f73616c206c656e677460448201527f68000000000000000000000000000000000000000000000000000000000000006064820152608401610cab565b83518651146131c35760405162461bcd60e51b815260206004820152602160248201527f476f7665726e6f723a20696e76616c69642070726f706f73616c206c656e677460448201527f68000000000000000000000000000000000000000000000000000000000000006064820152608401610cab565b60008651116132145760405162461bcd60e51b815260206004820152601860248201527f476f7665726e6f723a20656d7074792070726f706f73616c00000000000000006044820152606401610cab565b600081815260fe60209081526040918290208251918201909252815467ffffffffffffffff1690819052156132b15760405162461bcd60e51b815260206004820152602160248201527f476f7665726e6f723a2070726f706f73616c20616c726561647920657869737460448201527f73000000000000000000000000000000000000000000000000000000000000006064820152608401610cab565b60006132c36132be6113de565b6144e9565b6132cc436144e9565b6132d691906157a2565b905060006132e56132be610b29565b6132ef90836157a2565b83547fffffffffffffffffffffffffffffffffffffffffffffffff00000000000000001667ffffffffffffffff841617845590506001830180547fffffffffffffffffffffffffffffffffffffffffffffffff00000000000000001667ffffffffffffffff83161790557f7d84a6263ae0d98d3329bd7b46bb4e8d6f98cd35a7adb45c274c8b7fd5ebd5e084338b8b8d5167ffffffffffffffff811115613398576133986149d7565b6040519080825280602002602001820160405280156133cb57816020015b60608152602001906001900390816133b65790505b508c88888e6040516133e5999897969594939291906157ce565b60405180910390a15091979650505050505050565b6102c0546040517f9ab24eb000000000000000000000000000000000000000000000000000000000815273ffffffffffffffffffffffffffffffffffffffff85811660048301526000928392911690639ab24eb090602401602060405180830381865afa15801561346f573d6000803e3d6000fd5b505050506040513d601f19601f82011682018060405250810190613493919061546d565b90506134a085858561456d565b611a989082615631565b6101f8546040805173ffffffffffffffffffffffffffffffffffffffff928316815291831660208301527f08f74ea46ef7894f65eabfb5e6e695de773a000b47c529ab559178069b226401910160405180910390a16101f880547fffffffffffffffffffffffff00000000000000000000000000000000000000001673ffffffffffffffffffffffffffffffffffffffff92909216919091179055565b6060611aae848484604051806060016040528060298152602001615ae06029913961460a565b600081116135e35760405162461bcd60e51b815260206004820152602760248201527f476f7665726e6f7253657474696e67733a20766f74696e6720706572696f642060448201527f746f6f206c6f77000000000000000000000000000000000000000000000000006064820152608401610cab565b6101305460408051918252602082018390527f7e3f7f0708a84de9203036abaa450dccc85ad5ff52f78c170f3edb55cf5e8828910160405180910390a161013055565b6101315460408051918252602082018390527fccb45da8d5717e6c4544694297c4ba5cf151d455c9bb0ed4fc7a38411bc05461910160405180910390a161013155565b600060646101c654610193546040517f8e539e8c0000000000000000000000000000000000000000000000000000000081526004810186905273ffffffffffffffffffffffffffffffffffffffff90911690638e539e8c90602401602060405180830381865afa1580156136e1573d6000803e3d6000fd5b505050506040513d601f19601f82011682018060405250810190613705919061546d565b61370f91906158eb565b610b239190615928565b60007fffffffff0000000000000000000000000000000000000000000000000000000082167fbf26d8970000000000000000000000000000000000000000000000000000000014806137ac57507fffffffff0000000000000000000000000000000000000000000000000000000082167f79dd796f00000000000000000000000000000000000000000000000000000000145b806137f857507fffffffff0000000000000000000000000000000000000000000000000000000082167f4e2312e000000000000000000000000000000000000000000000000000000000145b80610b2357507f01ffc9a7000000000000000000000000000000000000000000000000000000007fffffffff00000000000000000000000000000000000000000000000000000000831614610b23565b6000610b137f8b73c3c69bb8fe3d512ecc4cf759cc79239f7b179b0ffacaa9a75d522b39400f61387760655490565b6066546040805160208101859052908101839052606081018290524660808201523060a082015260009060c0016040516020818303038152906040528051906020012090509392505050565b6000807f7fffffffffffffffffffffffffffffff5d576e7357a4501ddfe92f46681b20a08311156138fa57506000905060036139d2565b8460ff16601b1415801561391257508460ff16601c14155b1561392357506000905060046139d2565b6040805160008082526020820180845289905260ff881692820192909252606081018690526080810185905260019060a0016020604051602081039080840390855afa158015613977573d6000803e3d6000fd5b50506040517fffffffffffffffffffffffffffffffffffffffffffffffffffffffffffffffe0015191505073ffffffffffffffffffffffffffffffffffffffff81166139cb576000600192509250506139d2565b9150600090505b94509492505050565b60008160048111156139ef576139ef614f30565b036139f75750565b6001816004811115613a0b57613a0b614f30565b03613a585760405162461bcd60e51b815260206004820152601860248201527f45434453413a20696e76616c6964207369676e617475726500000000000000006044820152606401610cab565b6002816004811115613a6c57613a6c614f30565b03613ab95760405162461bcd60e51b815260206004820152601f60248201527f45434453413a20696e76616c6964207369676e6174757265206c656e677468006044820152606401610cab565b6003816004811115613acd57613acd614f30565b03613b405760405162461bcd60e51b815260206004820152602260248201527f45434453413a20696e76616c6964207369676e6174757265202773272076616c60448201527f75650000000000000000000000000000000000000000000000000000000000006064820152608401610cab565b6004816004811115613b5457613b54614f30565b03610d105760405162461bcd60e51b815260206004820152602260248201527f45434453413a20696e76616c6964207369676e6174757265202776272076616c60448201527f75650000000000000000000000000000000000000000000000000000000000006064820152608401610cab565b60008581526101616020908152604080832073ffffffffffffffffffffffffffffffffffffffff88168452600381019092529091205460ff1615613c735760405162461bcd60e51b815260206004820152602760248201527f476f7665726e6f72566f74696e6753696d706c653a20766f746520616c72656160448201527f64792063617374000000000000000000000000000000000000000000000000006064820152608401610cab565b73ffffffffffffffffffffffffffffffffffffffff85166000908152600382016020526040902080547fffffffffffffffffffffffffffffffffffffffffffffffffffffffffffffff0016600117905560ff8416613cea5782816000016000828254613cdf9190615631565b909155506125de9050565b7fffffffffffffffffffffffffffffffffffffffffffffffffffffffffffffffff60ff851601613d285782816001016000828254613cdf9190615631565b7ffffffffffffffffffffffffffffffffffffffffffffffffffffffffffffffffe60ff851601613d665782816002016000828254613cdf9190615631565b60405162461bcd60e51b815260206004820152603560248201527f476f7665726e6f72566f74696e6753696d706c653a20696e76616c696420766160448201527f6c756520666f7220656e756d20566f74655479706500000000000000000000006064820152608401610cab565b815470010000000000000000000000000000000090819004600f0b6000818152600180860160205260409091209390935583546fffffffffffffffffffffffffffffffff908116939091011602179055565b6101f8546040517fe38335e500000000000000000000000000000000000000000000000000000000815273ffffffffffffffffffffffffffffffffffffffff9091169063e38335e5903490613e8890889088908890600090899060040161555c565b6000604051808303818588803b158015613ea157600080fd5b505af1158015613eb5573d6000803e3d6000fd5b50505050505050505050565b73ffffffffffffffffffffffffffffffffffffffff81163b613f4b5760405162461bcd60e51b815260206004820152602d60248201527f455243313936373a206e657720696d706c656d656e746174696f6e206973206e60448201527f6f74206120636f6e7472616374000000000000000000000000000000000000006064820152608401610cab565b7f360894a13ba1a3210667c828492db98dca3e2076cc3735a920a3ca505d382bbc80547fffffffffffffffffffffffff00000000000000000000000000000000000000001673ffffffffffffffffffffffffffffffffffffffff92909216919091179055565b613fba83614761565b600082511180613fc75750805b156126e157613fd683836147ae565b50505050565b600081815260fe60205260408120600281015460ff16156140005750600792915050565b6002810154610100900460ff161561401b5750600292915050565b6000614026846111d7565b9050806000036140785760405162461bcd60e51b815260206004820152601d60248201527f476f7665726e6f723a20756e6b6e6f776e2070726f706f73616c2069640000006044820152606401610cab565b438110614089575060009392505050565b600061409485611c64565b90504381106140a857506001949350505050565b6140b1856148ca565b80156140d157506000858152610161602052604090208054600190910154115b156140e157506004949350505050565b506003949350505050565b600054610100900460ff166141695760405162461bcd60e51b815260206004820152602b60248201527f496e697469616c697a61626c653a20636f6e7472616374206973206e6f74206960448201527f6e697469616c697a696e670000000000000000000000000000000000000000006064820152608401610cab565b815160209283012081519190920120606591909155606655565b600054610100900460ff166142005760405162461bcd60e51b815260206004820152602b60248201527f496e697469616c697a61626c653a20636f6e7472616374206973206e6f74206960448201527f6e697469616c697a696e670000000000000000000000000000000000000000006064820152608401610cab565b60fd61162982826159a9565b600054610100900460ff166142895760405162461bcd60e51b815260206004820152602b60248201527f496e697469616c697a61626c653a20636f6e7472616374206973206e6f74206960448201527f6e697469616c697a696e670000000000000000000000000000000000000000006064820152608401610cab565b61429283612a3a565b61429b8261356d565b6126e181613626565b600054610100900460ff166143215760405162461bcd60e51b815260206004820152602b60248201527f496e697469616c697a61626c653a20636f6e7472616374206973206e6f74206960448201527f6e697469616c697a696e670000000000000000000000000000000000000000006064820152608401610cab565b61019380547fffffffffffffffffffffffff00000000000000000000000000000000000000001673ffffffffffffffffffffffffffffffffffffffff92909216919091179055565b600054610100900460ff16610d075760405162461bcd60e51b815260206004820152602b60248201527f496e697469616c697a61626c653a20636f6e7472616374206973206e6f74206960448201527f6e697469616c697a696e670000000000000000000000000000000000000000006064820152608401610cab565b600054610100900460ff16611b8d5760405162461bcd60e51b815260206004820152602b60248201527f496e697469616c697a61626c653a20636f6e7472616374206973206e6f74206960448201527f6e697469616c697a696e670000000000000000000000000000000000000000006064820152608401610cab565b600054610100900460ff166144e05760405162461bcd60e51b815260206004820152602b60248201527f496e697469616c697a61626c653a20636f6e7472616374206973206e6f74206960448201527f6e697469616c697a696e670000000000000000000000000000000000000000006064820152608401610cab565b6118c233612a7d565b600067ffffffffffffffff8211156145695760405162461bcd60e51b815260206004820152602660248201527f53616665436173743a2076616c756520646f65736e27742066697420696e203660448201527f34206269747300000000000000000000000000000000000000000000000000006064820152608401610cab565b5090565b610193546040517f3a46b1a800000000000000000000000000000000000000000000000000000000815273ffffffffffffffffffffffffffffffffffffffff8581166004830152602482018590526000921690633a46b1a890604401602060405180830381865afa1580156145e6573d6000803e3d6000fd5b505050506040513d601f19601f82011682018060405250810190611aae919061546d565b6060824710156146825760405162461bcd60e51b815260206004820152602660248201527f416464726573733a20696e73756666696369656e742062616c616e636520666f60448201527f722063616c6c00000000000000000000000000000000000000000000000000006064820152608401610cab565b73ffffffffffffffffffffffffffffffffffffffff85163b6146e65760405162461bcd60e51b815260206004820152601d60248201527f416464726573733a2063616c6c20746f206e6f6e2d636f6e74726163740000006044820152606401610cab565b6000808673ffffffffffffffffffffffffffffffffffffffff16858760405161470f9190615ac3565b60006040518083038185875af1925050503d806000811461474c576040519150601f19603f3d011682016040523d82523d6000602084013e614751565b606091505b5091509150611455828286614902565b61476a81613ec1565b60405173ffffffffffffffffffffffffffffffffffffffff8216907fbc7cd75a20ee27fd9adebab32041f755214dbc6bffa90cc0225b39da2e5c2d3b90600090a250565b606073ffffffffffffffffffffffffffffffffffffffff83163b61483a5760405162461bcd60e51b815260206004820152602660248201527f416464726573733a2064656c65676174652063616c6c20746f206e6f6e2d636f60448201527f6e747261637400000000000000000000000000000000000000000000000000006064820152608401610cab565b6000808473ffffffffffffffffffffffffffffffffffffffff16846040516148629190615ac3565b600060405180830381855af49150503d806000811461489d576040519150601f19603f3d011682016040523d82523d6000602084013e6148a2565b606091505b5091509150611a988282604051806060016040528060278152602001615b0960279139614902565b600081815261016160205260408120600281015460018201546148ed9190615631565b6148f9610abe856111d7565b11159392505050565b60608315614911575081611ab1565b8251156149215782518084602001fd5b8160405162461bcd60e51b8152600401610cab9190614c21565b60006020828403121561494d57600080fd5b81357fffffffff0000000000000000000000000000000000000000000000000000000081168114611ab157600080fd5b803560ff81168114612c4757600080fd5b60008083601f8401126149a057600080fd5b50813567ffffffffffffffff8111156149b857600080fd5b6020830191508360208285010111156149d057600080fd5b9250929050565b7f4e487b7100000000000000000000000000000000000000000000000000000000600052604160045260246000fd5b604051601f82017fffffffffffffffffffffffffffffffffffffffffffffffffffffffffffffffe016810167ffffffffffffffff81118282101715614a4d57614a4d6149d7565b604052919050565b600067ffffffffffffffff831115614a6f57614a6f6149d7565b614aa060207fffffffffffffffffffffffffffffffffffffffffffffffffffffffffffffffe0601f86011601614a06565b9050828152838383011115614ab457600080fd5b828260208301376000602084830101529392505050565b600082601f830112614adc57600080fd5b611ab183833560208501614a55565b60008060008060008060008060e0898b031215614b0757600080fd5b88359750614b1760208a0161497d565b9650604089013567ffffffffffffffff80821115614b3457600080fd5b614b408c838d0161498e565b909850965060608b0135915080821115614b5957600080fd5b50614b668b828c01614acb565b945050614b7560808a0161497d565b925060a0890135915060c089013590509295985092959890939650565b600060208284031215614ba457600080fd5b5035919050565b60005b83811015614bc6578181015183820152602001614bae565b83811115613fd65750506000910152565b60008151808452614bef816020860160208601614bab565b601f017fffffffffffffffffffffffffffffffffffffffffffffffffffffffffffffffe0169290920160200192915050565b602081526000611ab16020830184614bd7565b73ffffffffffffffffffffffffffffffffffffffff81168114610d1057600080fd5b60008060008060808587031215614c6c57600080fd5b8435614c7781614c34565b93506020850135614c8781614c34565b925060408501359150606085013567ffffffffffffffff811115614caa57600080fd5b614cb687828801614acb565b91505092959194509250565b600067ffffffffffffffff821115614cdc57614cdc6149d7565b5060051b60200190565b600082601f830112614cf757600080fd5b81356020614d0c614d0783614cc2565b614a06565b82815260059290921b84018101918181019086841115614d2b57600080fd5b8286015b84811015614d4f578035614d4281614c34565b8352918301918301614d2f565b509695505050505050565b600082601f830112614d6b57600080fd5b81356020614d7b614d0783614cc2565b82815260059290921b84018101918181019086841115614d9a57600080fd5b8286015b84811015614d4f5780358352918301918301614d9e565b600082601f830112614dc657600080fd5b81356020614dd6614d0783614cc2565b82815260059290921b84018101918181019086841115614df557600080fd5b8286015b84811015614d4f57803567ffffffffffffffff811115614e195760008081fd5b614e278986838b0101614acb565b845250918301918301614df9565b60008060008060808587031215614e4b57600080fd5b843567ffffffffffffffff80821115614e6357600080fd5b614e6f88838901614ce6565b95506020870135915080821115614e8557600080fd5b614e9188838901614d5a565b94506040870135915080821115614ea757600080fd5b50614eb487828801614db5565b949793965093946060013593505050565b600060208284031215614ed757600080fd5b8135611ab181614c34565b600080600080600060a08688031215614efa57600080fd5b85359450614f0a6020870161497d565b9350614f186040870161497d565b94979396509394606081013594506080013592915050565b7f4e487b7100000000000000000000000000000000000000000000000000000000600052602160045260246000fd5b6020810160088310614f9a577f4e487b7100000000000000000000000000000000000000000000000000000000600052602160045260246000fd5b91905290565b60008060408385031215614fb357600080fd5b823591506020830135614fc581614c34565b809150509250929050565b60008060408385031215614fe357600080fd5b8235614fee81614c34565b9150602083013567ffffffffffffffff81111561500a57600080fd5b61501685828601614acb565b9150509250929050565b6000806040838503121561503357600080fd5b823591506150436020840161497d565b90509250929050565b60008060008060006080868803121561506457600080fd5b853594506150746020870161497d565b9350604086013567ffffffffffffffff8082111561509157600080fd5b61509d89838a0161498e565b909550935060608801359150808211156150b657600080fd5b506150c388828901614acb565b9150509295509295909350565b60008060008060008060c087890312156150e957600080fd5b86356150f481614c34565b9550602087013561510481614c34565b9450604087013561511481614c34565b959894975094956060810135955060808101359460a0909101359350915050565b6000806000806060858703121561514b57600080fd5b8435935061515b6020860161497d565b9250604085013567ffffffffffffffff81111561517757600080fd5b6151838782880161498e565b95989497509550505050565b600080600080608085870312156151a557600080fd5b843567ffffffffffffffff808211156151bd57600080fd5b6151c988838901614ce6565b955060208701359150808211156151df57600080fd5b6151eb88838901614d5a565b9450604087013591508082111561520157600080fd5b61520d88838901614db5565b9350606087013591508082111561522357600080fd5b508501601f8101871361523557600080fd5b614cb687823560208401614a55565b60008060006060848603121561525957600080fd5b833561526481614c34565b925060208401359150604084013567ffffffffffffffff81111561528757600080fd5b61529386828701614acb565b9150509250925092565b600080600080600060a086880312156152b557600080fd5b85356152c081614c34565b945060208601356152d081614c34565b9350604086013567ffffffffffffffff808211156152ed57600080fd5b6152f989838a01614d5a565b9450606088013591508082111561530f57600080fd5b61531b89838a01614d5a565b935060808801359150808211156150b657600080fd5b6000806000806060858703121561534757600080fd5b843561535281614c34565b935060208501359250604085013567ffffffffffffffff81111561517757600080fd5b6000806040838503121561538857600080fd5b823561539381614c34565b946020939093013593505050565b600080600080600060a086880312156153b957600080fd5b85356153c481614c34565b945060208601356153d481614c34565b93506040860135925060608601359150608086013567ffffffffffffffff8111156153fe57600080fd5b6150c388828901614acb565b8183823760009101908152919050565b600181811c9082168061542e57607f821691505b602082108103615467577f4e487b7100000000000000000000000000000000000000000000000000000000600052602260045260246000fd5b50919050565b60006020828403121561547f57600080fd5b5051919050565b600081518084526020808501945080840160005b838110156154cc57815173ffffffffffffffffffffffffffffffffffffffff168752958201959082019060010161549a565b509495945050505050565b600081518084526020808501945080840160005b838110156154cc578151875295820195908201906001016154eb565b600081518084526020808501808196508360051b8101915082860160005b8581101561554f57828403895261553d848351614bd7565b98850198935090840190600101615525565b5091979650505050505050565b60a08152600061556f60a0830188615486565b828103602084015261558181886154d7565b905082810360408401526155958187615507565b60608401959095525050608001529392505050565b60c0815260006155bd60c0830189615486565b82810360208401526155cf81896154d7565b905082810360408401526155e38188615507565b60608401969096525050608081019290925260a0909101529392505050565b7f4e487b7100000000000000000000000000000000000000000000000000000000600052601160045260246000fd5b6000821982111561564457615644615602565b500190565b60808152600061565c6080830187615486565b828103602084015261566e81876154d7565b905082810360408401526156828186615507565b91505082606083015295945050505050565b84815260ff84166020820152826040820152608060608201526000611a806080830184614bd7565b85815260ff8516602082015283604082015260a0606082015260006156e460a0830185614bd7565b82810360808401526156f68185614bd7565b98975050505050505050565b7f4e487b7100000000000000000000000000000000000000000000000000000000600052603260045260246000fd5b60007fffffffffffffffffffffffffffffffffffffffffffffffffffffffffffffffff820361576257615762615602565b5060010190565b60006020828403121561577b57600080fd5b81518015158114611ab157600080fd5b60008282101561579d5761579d615602565b500390565b600067ffffffffffffffff8083168185168083038211156157c5576157c5615602565b01949350505050565b60006101208b8352602073ffffffffffffffffffffffffffffffffffffffff8c16818501528160408501526158058285018c615486565b91508382036060850152615819828b6154d7565b915083820360808501528189518084528284019150828160051b850101838c0160005b83811015615888577fffffffffffffffffffffffffffffffffffffffffffffffffffffffffffffffe0878403018552615876838351614bd7565b9486019492509085019060010161583c565b505086810360a088015261589c818c615507565b9450505050506158b860c084018767ffffffffffffffff169052565b67ffffffffffffffff851660e08401528281036101008401526158db8185614bd7565b9c9b505050505050505050505050565b6000817fffffffffffffffffffffffffffffffffffffffffffffffffffffffffffffffff048311821515161561592357615923615602565b500290565b60008261595e577f4e487b7100000000000000000000000000000000000000000000000000000000600052601260045260246000fd5b500490565b601f8211156126e157600081815260208120601f850160051c8101602086101561598a5750805b601f850160051c820191505b818110156125de57828155600101615996565b815167ffffffffffffffff8111156159c3576159c36149d7565b6159d7816159d1845461541a565b84615963565b602080601f831160018114615a2a57600084156159f45750858301515b7fffffffffffffffffffffffffffffffffffffffffffffffffffffffffffffffff600386901b1c1916600185901b1785556125de565b6000858152602081207fffffffffffffffffffffffffffffffffffffffffffffffffffffffffffffffe08616915b82811015615a7757888601518255948401946001909101908401615a58565b5085821015615ab357878501517fffffffffffffffffffffffffffffffffffffffffffffffffffffffffffffffff600388901b60f8161c191681555b5050505050600190811b01905550565b60008251615ad5818460208701614bab565b919091019291505056fe416464726573733a206c6f772d6c6576656c2063616c6c20776974682076616c7565206661696c6564416464726573733a206c6f772d6c6576656c2064656c65676174652063616c6c206661696c6564a264697066735822122026e60b802edd5e6c1bae73ecf63449279e418240d2bcc68e2d7badc9706824c364736f6c634300080f0033496e697469616c697a61626c653a20636f6e747261637420697320616c726561",
  "devdoc": {
    "errors": {
      "Empty()": [
        {
          "details": "An operation (e.g. {front}) couldn't be completed due to the queue being empty."
        }
      ]
    },
    "kind": "dev",
    "methods": {
      "COUNTING_MODE()": {
        "details": "See {IGovernor-COUNTING_MODE}."
      },
      "castVote(uint256,uint8)": {
        "details": "See {IGovernor-castVote}."
      },
      "castVoteBySig(uint256,uint8,uint8,bytes32,bytes32)": {
        "details": "See {IGovernor-castVoteBySig}."
      },
      "castVoteWithReason(uint256,uint8,string)": {
        "details": "See {IGovernor-castVoteWithReason}."
      },
      "castVoteWithReasonAndParams(uint256,uint8,string,bytes)": {
        "details": "See {IGovernor-castVoteWithReasonAndParams}."
      },
      "castVoteWithReasonAndParamsBySig(uint256,uint8,string,bytes,uint8,bytes32,bytes32)": {
        "details": "See {IGovernor-castVoteWithReasonAndParamsBySig}."
      },
      "constructor": {
        "custom:oz-upgrades-unsafe-allow": "constructor"
      },
      "execute(address[],uint256[],bytes[],bytes32)": {
        "details": "See {IGovernor-execute}."
      },
      "getVotes(address,uint256)": {
        "details": "See {IGovernor-getVotes}."
      },
      "getVotesWithParams(address,uint256,bytes)": {
        "details": "See {IGovernor-getVotesWithParams}."
      },
      "hasVoted(uint256,address)": {
        "details": "See {IGovernor-hasVoted}."
      },
      "hashProposal(address[],uint256[],bytes[],bytes32)": {
        "details": "See {IGovernor-hashProposal}. The proposal id is produced by hashing the RLC encoded `targets` array, the `values` array, the `calldatas` array and the descriptionHash (bytes32 which itself is the keccak256 hash of the description string). This proposal id can be produced from the proposal data which is part of the {ProposalCreated} event. It can even be computed in advance, before the proposal is submitted. Note that the chainId and the governor address are not part of the proposal id computation. Consequently, the same proposal (with same operation and same description) will have the same id if submitted on multiple governors across multiple networks. This also means that in order to execute the same operation twice (on the same governor) the proposer will have to change the description in order to avoid proposal id conflicts."
      },
      "name()": {
        "details": "See {IGovernor-name}."
      },
      "onERC1155BatchReceived(address,address,uint256[],uint256[],bytes)": {
        "details": "See {IERC1155Receiver-onERC1155BatchReceived}."
      },
      "onERC1155Received(address,address,uint256,uint256,bytes)": {
        "details": "See {IERC1155Receiver-onERC1155Received}."
      },
      "onERC721Received(address,address,uint256,bytes)": {
        "details": "See {IERC721Receiver-onERC721Received}."
      },
      "owner()": {
        "details": "Returns the address of the current owner."
      },
      "proposalDeadline(uint256)": {
        "details": "See {IGovernor-proposalDeadline}."
      },
      "proposalEta(uint256)": {
        "details": "Public accessor to check the eta of a queued proposal"
      },
      "proposalSnapshot(uint256)": {
        "details": "See {IGovernor-proposalSnapshot}."
      },
      "proposalVotes(uint256)": {
        "details": "Accessor to the internal vote counts."
      },
      "proxiableUUID()": {
        "details": "Implementation of the ERC1822 {proxiableUUID} function. This returns the storage slot used by the implementation. It is used to validate that the this implementation remains valid after an upgrade. IMPORTANT: A proxy pointing at a proxiable contract should not be considered proxiable itself, because this risks bricking a proxy that upgrades to it, by delegating to itself until out of gas. Thus it is critical that this function revert if invoked through a proxy. This is guaranteed by the `notDelegated` modifier."
      },
      "queue(address[],uint256[],bytes[],bytes32)": {
        "details": "Function to queue a proposal to the timelock."
      },
      "quorumDenominator()": {
        "details": "Returns the quorum denominator. Defaults to 100, but may be overridden."
      },
      "quorumNumerator()": {
        "details": "Returns the current quorum numerator. See {quorumDenominator}."
      },
      "relay(address,uint256,bytes)": {
        "details": "Relays a transaction or function call to an arbitrary target. In cases where the governance executor is some contract other than the governor itself, like when using a timelock, this function can be invoked in a governance proposal to recover tokens or Ether that was sent to the governor contract by mistake. Note that if the executor is simply the governor itself, use of `relay` is redundant."
      },
      "renounceOwnership()": {
        "details": "Leaves the contract without owner. It will not be possible to call `onlyOwner` functions anymore. Can only be called by the current owner. NOTE: Renouncing ownership will leave the contract without an owner, thereby removing any functionality that is only available to the owner."
      },
      "setProposalThreshold(uint256)": {
        "details": "Update the proposal threshold. This operation can only be performed through a governance proposal. Emits a {ProposalThresholdSet} event."
      },
      "setVotingDelay(uint256)": {
        "details": "Update the voting delay. This operation can only be performed through a governance proposal. Emits a {VotingDelaySet} event."
      },
      "setVotingPeriod(uint256)": {
        "details": "Update the voting period. This operation can only be performed through a governance proposal. Emits a {VotingPeriodSet} event."
      },
      "timelock()": {
        "details": "Public accessor to check the address of the timelock"
      },
      "transferOwnership(address)": {
        "details": "Transfers ownership of the contract to a new account (`newOwner`). Can only be called by the current owner."
      },
      "updateQuorumNumerator(uint256)": {
        "details": "Changes the quorum numerator. Emits a {QuorumNumeratorUpdated} event. Requirements: - Must be called through a governance proposal. - New numerator must be smaller or equal to the denominator."
      },
      "updateTimelock(address)": {
        "details": "Public endpoint to update the underlying timelock instance. Restricted to the timelock itself, so updates must be proposed, scheduled, and executed through governance proposals. CAUTION: It is not recommended to change the timelock while there are other queued governance proposals."
      },
      "upgradeTo(address)": {
        "details": "Upgrade the implementation of the proxy to `newImplementation`. Calls {_authorizeUpgrade}. Emits an {Upgraded} event."
      },
      "upgradeToAndCall(address,bytes)": {
        "details": "Upgrade the implementation of the proxy to `newImplementation`, and subsequently execute the function call encoded in `data`. Calls {_authorizeUpgrade}. Emits an {Upgraded} event."
      },
      "version()": {
        "details": "See {IGovernor-version}."
      }
    },
    "version": 1
  },
  "userdoc": {
    "kind": "user",
    "methods": {},
    "version": 1
  },
  "storageLayout": {
    "storage": [
      {
        "astId": 4676,
        "contract": "contracts/Governor.sol:Governor",
        "label": "_initialized",
        "offset": 0,
        "slot": "0",
        "type": "t_uint8"
      },
      {
        "astId": 4679,
        "contract": "contracts/Governor.sol:Governor",
        "label": "_initializing",
        "offset": 1,
        "slot": "0",
        "type": "t_bool"
      },
      {
        "astId": 5290,
        "contract": "contracts/Governor.sol:Governor",
        "label": "__gap",
        "offset": 0,
        "slot": "1",
        "type": "t_array(t_uint256)50_storage"
      },
      {
        "astId": 6368,
        "contract": "contracts/Governor.sol:Governor",
        "label": "__gap",
        "offset": 0,
        "slot": "51",
        "type": "t_array(t_uint256)50_storage"
      },
      {
        "astId": 6184,
        "contract": "contracts/Governor.sol:Governor",
        "label": "_HASHED_NAME",
        "offset": 0,
        "slot": "101",
        "type": "t_bytes32"
      },
      {
        "astId": 6186,
        "contract": "contracts/Governor.sol:Governor",
        "label": "_HASHED_VERSION",
        "offset": 0,
        "slot": "102",
        "type": "t_bytes32"
      },
      {
        "astId": 6324,
        "contract": "contracts/Governor.sol:Governor",
        "label": "__gap",
        "offset": 0,
        "slot": "103",
        "type": "t_array(t_uint256)50_storage"
      },
      {
        "astId": 2172,
        "contract": "contracts/Governor.sol:Governor",
        "label": "__gap",
        "offset": 0,
        "slot": "153",
        "type": "t_array(t_uint256)50_storage"
      },
      {
        "astId": 4201,
        "contract": "contracts/Governor.sol:Governor",
        "label": "__gap",
        "offset": 0,
        "slot": "203",
        "type": "t_array(t_uint256)50_storage"
      },
      {
        "astId": 599,
        "contract": "contracts/Governor.sol:Governor",
        "label": "_name",
        "offset": 0,
        "slot": "253",
        "type": "t_string_storage"
      },
      {
        "astId": 604,
        "contract": "contracts/Governor.sol:Governor",
        "label": "_proposals",
        "offset": 0,
        "slot": "254",
        "type": "t_mapping(t_uint256,t_struct(ProposalCore)597_storage)"
      },
      {
        "astId": 607,
        "contract": "contracts/Governor.sol:Governor",
        "label": "_governanceCall",
        "offset": 0,
        "slot": "255",
        "type": "t_struct(Bytes32Deque)6793_storage"
      },
      {
        "astId": 1855,
        "contract": "contracts/Governor.sol:Governor",
        "label": "__gap",
        "offset": 0,
        "slot": "257",
        "type": "t_array(t_uint256)46_storage"
      },
      {
        "astId": 3352,
        "contract": "contracts/Governor.sol:Governor",
        "label": "_votingDelay",
        "offset": 0,
        "slot": "303",
        "type": "t_uint256"
      },
      {
        "astId": 3354,
        "contract": "contracts/Governor.sol:Governor",
        "label": "_votingPeriod",
        "offset": 0,
        "slot": "304",
        "type": "t_uint256"
      },
      {
        "astId": 3356,
        "contract": "contracts/Governor.sol:Governor",
        "label": "_proposalThreshold",
        "offset": 0,
        "slot": "305",
        "type": "t_uint256"
      },
      {
        "astId": 3546,
        "contract": "contracts/Governor.sol:Governor",
        "label": "__gap",
        "offset": 0,
        "slot": "306",
        "type": "t_array(t_uint256)47_storage"
      },
      {
        "astId": 3136,
        "contract": "contracts/Governor.sol:Governor",
        "label": "_proposalVotes",
        "offset": 0,
        "slot": "353",
        "type": "t_mapping(t_uint256,t_struct(ProposalVote)3131_storage)"
      },
      {
        "astId": 3340,
        "contract": "contracts/Governor.sol:Governor",
        "label": "__gap",
        "offset": 0,
        "slot": "354",
        "type": "t_array(t_uint256)49_storage"
      },
      {
        "astId": 4089,
        "contract": "contracts/Governor.sol:Governor",
        "label": "token",
        "offset": 0,
        "slot": "403",
        "type": "t_contract(IVotesUpgradeable)4280"
      },
      {
        "astId": 4140,
        "contract": "contracts/Governor.sol:Governor",
        "label": "__gap",
        "offset": 0,
        "slot": "404",
        "type": "t_array(t_uint256)50_storage"
      },
      {
        "astId": 3958,
        "contract": "contracts/Governor.sol:Governor",
        "label": "_quorumNumerator",
        "offset": 0,
        "slot": "454",
        "type": "t_uint256"
      },
      {
        "astId": 4075,
        "contract": "contracts/Governor.sol:Governor",
        "label": "__gap",
        "offset": 0,
        "slot": "455",
        "type": "t_array(t_uint256)49_storage"
      },
      {
        "astId": 3563,
        "contract": "contracts/Governor.sol:Governor",
        "label": "_timelock",
        "offset": 0,
        "slot": "504",
        "type": "t_contract(TimelockControllerUpgradeable)3095"
      },
      {
        "astId": 3567,
        "contract": "contracts/Governor.sol:Governor",
        "label": "_timelockIds",
        "offset": 0,
        "slot": "505",
        "type": "t_mapping(t_uint256,t_bytes32)"
      },
      {
        "astId": 3946,
        "contract": "contracts/Governor.sol:Governor",
        "label": "__gap",
        "offset": 0,
        "slot": "506",
        "type": "t_array(t_uint256)48_storage"
      },
      {
        "astId": 423,
        "contract": "contracts/Governor.sol:Governor",
        "label": "_owner",
        "offset": 0,
        "slot": "554",
        "type": "t_address"
      },
      {
        "astId": 535,
        "contract": "contracts/Governor.sol:Governor",
        "label": "__gap",
        "offset": 0,
        "slot": "555",
        "type": "t_array(t_uint256)49_storage"
      },
      {
        "astId": 4658,
        "contract": "contracts/Governor.sol:Governor",
        "label": "__gap",
        "offset": 0,
        "slot": "604",
        "type": "t_array(t_uint256)50_storage"
      },
      {
        "astId": 4946,
        "contract": "contracts/Governor.sol:Governor",
        "label": "__gap",
        "offset": 0,
        "slot": "654",
        "type": "t_array(t_uint256)50_storage"
      },
      {
        "astId": 12475,
        "contract": "contracts/Governor.sol:Governor",
        "label": "vesting",
        "offset": 0,
        "slot": "704",
        "type": "t_contract(VestingWithVoting)13663"
      }
    ],
    "types": {
      "t_address": {
        "encoding": "inplace",
        "label": "address",
        "numberOfBytes": "20"
      },
      "t_array(t_uint256)46_storage": {
        "base": "t_uint256",
        "encoding": "inplace",
        "label": "uint256[46]",
        "numberOfBytes": "1472"
      },
      "t_array(t_uint256)47_storage": {
        "base": "t_uint256",
        "encoding": "inplace",
        "label": "uint256[47]",
        "numberOfBytes": "1504"
      },
      "t_array(t_uint256)48_storage": {
        "base": "t_uint256",
        "encoding": "inplace",
        "label": "uint256[48]",
        "numberOfBytes": "1536"
      },
      "t_array(t_uint256)49_storage": {
        "base": "t_uint256",
        "encoding": "inplace",
        "label": "uint256[49]",
        "numberOfBytes": "1568"
      },
      "t_array(t_uint256)50_storage": {
        "base": "t_uint256",
        "encoding": "inplace",
        "label": "uint256[50]",
        "numberOfBytes": "1600"
      },
      "t_bool": {
        "encoding": "inplace",
        "label": "bool",
        "numberOfBytes": "1"
      },
      "t_bytes32": {
        "encoding": "inplace",
        "label": "bytes32",
        "numberOfBytes": "32"
      },
      "t_contract(IVotesUpgradeable)4280": {
        "encoding": "inplace",
        "label": "contract IVotesUpgradeable",
        "numberOfBytes": "20"
      },
      "t_contract(TimelockControllerUpgradeable)3095": {
        "encoding": "inplace",
        "label": "contract TimelockControllerUpgradeable",
        "numberOfBytes": "20"
      },
      "t_contract(VestingWithVoting)13663": {
        "encoding": "inplace",
        "label": "contract VestingWithVoting",
        "numberOfBytes": "20"
      },
      "t_int128": {
        "encoding": "inplace",
        "label": "int128",
        "numberOfBytes": "16"
      },
      "t_mapping(t_address,t_bool)": {
        "encoding": "mapping",
        "key": "t_address",
        "label": "mapping(address => bool)",
        "numberOfBytes": "32",
        "value": "t_bool"
      },
      "t_mapping(t_int128,t_bytes32)": {
        "encoding": "mapping",
        "key": "t_int128",
        "label": "mapping(int128 => bytes32)",
        "numberOfBytes": "32",
        "value": "t_bytes32"
      },
      "t_mapping(t_uint256,t_bytes32)": {
        "encoding": "mapping",
        "key": "t_uint256",
        "label": "mapping(uint256 => bytes32)",
        "numberOfBytes": "32",
        "value": "t_bytes32"
      },
      "t_mapping(t_uint256,t_struct(ProposalCore)597_storage)": {
        "encoding": "mapping",
        "key": "t_uint256",
        "label": "mapping(uint256 => struct GovernorUpgradeable.ProposalCore)",
        "numberOfBytes": "32",
        "value": "t_struct(ProposalCore)597_storage"
      },
      "t_mapping(t_uint256,t_struct(ProposalVote)3131_storage)": {
        "encoding": "mapping",
        "key": "t_uint256",
        "label": "mapping(uint256 => struct GovernorCountingSimpleUpgradeable.ProposalVote)",
        "numberOfBytes": "32",
        "value": "t_struct(ProposalVote)3131_storage"
      },
      "t_string_storage": {
        "encoding": "bytes",
        "label": "string",
        "numberOfBytes": "32"
      },
      "t_struct(BlockNumber)5665_storage": {
        "encoding": "inplace",
        "label": "struct TimersUpgradeable.BlockNumber",
        "members": [
          {
            "astId": 5664,
            "contract": "contracts/Governor.sol:Governor",
            "label": "_deadline",
            "offset": 0,
            "slot": "0",
            "type": "t_uint64"
          }
        ],
        "numberOfBytes": "32"
      },
      "t_struct(Bytes32Deque)6793_storage": {
        "encoding": "inplace",
        "label": "struct DoubleEndedQueueUpgradeable.Bytes32Deque",
        "members": [
          {
            "astId": 6786,
            "contract": "contracts/Governor.sol:Governor",
            "label": "_begin",
            "offset": 0,
            "slot": "0",
            "type": "t_int128"
          },
          {
            "astId": 6788,
            "contract": "contracts/Governor.sol:Governor",
            "label": "_end",
            "offset": 16,
            "slot": "0",
            "type": "t_int128"
          },
          {
            "astId": 6792,
            "contract": "contracts/Governor.sol:Governor",
            "label": "_data",
            "offset": 0,
            "slot": "1",
            "type": "t_mapping(t_int128,t_bytes32)"
          }
        ],
        "numberOfBytes": "64"
      },
      "t_struct(ProposalCore)597_storage": {
        "encoding": "inplace",
        "label": "struct GovernorUpgradeable.ProposalCore",
        "members": [
          {
            "astId": 589,
            "contract": "contracts/Governor.sol:Governor",
            "label": "voteStart",
            "offset": 0,
            "slot": "0",
            "type": "t_struct(BlockNumber)5665_storage"
          },
          {
            "astId": 592,
            "contract": "contracts/Governor.sol:Governor",
            "label": "voteEnd",
            "offset": 0,
            "slot": "1",
            "type": "t_struct(BlockNumber)5665_storage"
          },
          {
            "astId": 594,
            "contract": "contracts/Governor.sol:Governor",
            "label": "executed",
            "offset": 0,
            "slot": "2",
            "type": "t_bool"
          },
          {
            "astId": 596,
            "contract": "contracts/Governor.sol:Governor",
            "label": "canceled",
            "offset": 1,
            "slot": "2",
            "type": "t_bool"
          }
        ],
        "numberOfBytes": "96"
      },
      "t_struct(ProposalVote)3131_storage": {
        "encoding": "inplace",
        "label": "struct GovernorCountingSimpleUpgradeable.ProposalVote",
        "members": [
          {
            "astId": 3122,
            "contract": "contracts/Governor.sol:Governor",
            "label": "againstVotes",
            "offset": 0,
            "slot": "0",
            "type": "t_uint256"
          },
          {
            "astId": 3124,
            "contract": "contracts/Governor.sol:Governor",
            "label": "forVotes",
            "offset": 0,
            "slot": "1",
            "type": "t_uint256"
          },
          {
            "astId": 3126,
            "contract": "contracts/Governor.sol:Governor",
            "label": "abstainVotes",
            "offset": 0,
            "slot": "2",
            "type": "t_uint256"
          },
          {
            "astId": 3130,
            "contract": "contracts/Governor.sol:Governor",
            "label": "hasVoted",
            "offset": 0,
            "slot": "3",
            "type": "t_mapping(t_address,t_bool)"
          }
        ],
        "numberOfBytes": "128"
      },
      "t_uint256": {
        "encoding": "inplace",
        "label": "uint256",
        "numberOfBytes": "32"
      },
      "t_uint64": {
        "encoding": "inplace",
        "label": "uint64",
        "numberOfBytes": "8"
      },
      "t_uint8": {
        "encoding": "inplace",
        "label": "uint8",
        "numberOfBytes": "1"
      }
    }
  }
}