{
  "address": "0xe18C5ff3f246BF535c42D145dDa5f1DeBBe1B0aF",
  "abi": [
    {
      "inputs": [
        {
          "internalType": "contract ILiquidityBootstrappingPoolFactory",
          "name": "_balancerLBPFactory",
          "type": "address"
        },
        {
          "internalType": "contract IUniswapV3Factory",
          "name": "_uniswapFactory",
          "type": "address"
        },
        {
          "internalType": "contract IBalancerVault",
          "name": "_balancerVault",
          "type": "address"
        },
        {
          "internalType": "address",
          "name": "_executor",
          "type": "address"
        },
        {
          "internalType": "contract IERC20",
          "name": "token0",
          "type": "address"
        },
        {
          "internalType": "contract IERC20",
          "name": "token1",
          "type": "address"
        }
      ],
      "stateMutability": "nonpayable",
      "type": "constructor"
    },
    {
      "anonymous": false,
      "inputs": [
        {
          "indexed": true,
          "internalType": "address",
          "name": "previousOwner",
          "type": "address"
        },
        {
          "indexed": true,
          "internalType": "address",
          "name": "newOwner",
          "type": "address"
        }
      ],
      "name": "OwnershipTransferred",
      "type": "event"
    },
    {
      "inputs": [],
      "name": "UNISWAP_FEE",
      "outputs": [
        {
          "internalType": "uint24",
          "name": "",
          "type": "uint24"
        }
      ],
      "stateMutability": "view",
      "type": "function"
    },
    {
      "inputs": [],
      "name": "balancerLBPFactory",
      "outputs": [
        {
          "internalType": "contract ILiquidityBootstrappingPoolFactory",
          "name": "",
          "type": "address"
        }
      ],
      "stateMutability": "view",
      "type": "function"
    },
    {
      "inputs": [],
      "name": "balancerVault",
      "outputs": [
        {
          "internalType": "contract IBalancerVault",
          "name": "",
          "type": "address"
        }
      ],
      "stateMutability": "view",
      "type": "function"
    },
    {
      "inputs": [
        {
          "components": [
            {
              "internalType": "uint256",
              "name": "weight",
              "type": "uint256"
            },
            {
              "internalType": "uint256",
              "name": "endWeight",
              "type": "uint256"
            },
            {
              "internalType": "uint256",
              "name": "initialAmount",
              "type": "uint256"
            }
          ],
          "internalType": "struct LPController.LBPTokenConfig[]",
          "name": "lbpTokensConfigs",
          "type": "tuple[]"
        },
        {
          "internalType": "uint256",
          "name": "lbpPoolDuration",
          "type": "uint256"
        },
        {
          "internalType": "uint256",
          "name": "swapFeePercentage",
          "type": "uint256"
        }
      ],
      "name": "createBalancerLBP",
      "outputs": [],
      "stateMutability": "nonpayable",
      "type": "function"
    },
    {
      "inputs": [],
      "name": "createUniswap",
      "outputs": [],
      "stateMutability": "nonpayable",
      "type": "function"
    },
    {
      "inputs": [],
      "name": "executor",
      "outputs": [
        {
          "internalType": "address",
          "name": "",
          "type": "address"
        }
      ],
      "stateMutability": "view",
      "type": "function"
    },
    {
      "inputs": [],
      "name": "exitBalancer",
      "outputs": [],
      "stateMutability": "nonpayable",
      "type": "function"
    },
    {
      "inputs": [],
      "name": "lbpPoolId",
      "outputs": [
        {
          "internalType": "bytes32",
          "name": "",
          "type": "bytes32"
        }
      ],
      "stateMutability": "view",
      "type": "function"
    },
    {
      "inputs": [],
      "name": "liquidityBootstrappingPool",
      "outputs": [
        {
          "internalType": "contract ILiquidityBootstrappingPool",
          "name": "",
          "type": "address"
        }
      ],
      "stateMutability": "view",
      "type": "function"
    },
    {
      "inputs": [],
      "name": "owner",
      "outputs": [
        {
          "internalType": "address",
          "name": "",
          "type": "address"
        }
      ],
      "stateMutability": "view",
      "type": "function"
    },
    {
      "inputs": [],
      "name": "renounceOwnership",
      "outputs": [],
      "stateMutability": "nonpayable",
      "type": "function"
    },
    {
      "inputs": [
        {
          "internalType": "bool",
          "name": "swapEnabled",
          "type": "bool"
        }
      ],
      "name": "setSwapEnabled",
      "outputs": [],
      "stateMutability": "nonpayable",
      "type": "function"
    },
    {
      "inputs": [
        {
          "internalType": "uint256",
          "name": "",
          "type": "uint256"
        }
      ],
      "name": "tokens",
      "outputs": [
        {
          "internalType": "contract IERC20",
          "name": "",
          "type": "address"
        }
      ],
      "stateMutability": "view",
      "type": "function"
    },
    {
      "inputs": [
        {
          "internalType": "int24",
          "name": "tickLower",
          "type": "int24"
        },
        {
          "internalType": "int24",
          "name": "tickUpper",
          "type": "int24"
        },
        {
          "internalType": "uint128",
          "name": "amount",
          "type": "uint128"
        }
      ],
      "name": "transferLiquidityToUniswap",
      "outputs": [],
      "stateMutability": "nonpayable",
      "type": "function"
    },
    {
      "inputs": [
        {
          "internalType": "address",
          "name": "newOwner",
          "type": "address"
        }
      ],
      "name": "transferOwnership",
      "outputs": [],
      "stateMutability": "nonpayable",
      "type": "function"
    },
    {
      "inputs": [],
      "name": "uniswapFactory",
      "outputs": [
        {
          "internalType": "contract IUniswapV3Factory",
          "name": "",
          "type": "address"
        }
      ],
      "stateMutability": "view",
      "type": "function"
    },
    {
      "inputs": [],
      "name": "uniswapPool",
      "outputs": [
        {
          "internalType": "contract IUniswapV3Pool",
          "name": "",
          "type": "address"
        }
      ],
      "stateMutability": "view",
      "type": "function"
    },
    {
      "inputs": [
        {
          "internalType": "uint256",
          "name": "amount0Owed",
          "type": "uint256"
        },
        {
          "internalType": "uint256",
          "name": "amount1Owed",
          "type": "uint256"
        },
        {
          "internalType": "bytes",
          "name": "",
          "type": "bytes"
        }
      ],
      "name": "uniswapV3MintCallback",
      "outputs": [],
      "stateMutability": "nonpayable",
      "type": "function"
    },
    {
      "inputs": [
        {
          "internalType": "contract IERC20",
          "name": "token",
          "type": "address"
        },
        {
          "internalType": "uint256",
          "name": "amount",
          "type": "uint256"
        }
      ],
      "name": "withdraw",
      "outputs": [],
      "stateMutability": "nonpayable",
      "type": "function"
    }
  ],
  "transactionHash": "0x639fef8e515f24194655bd07b6f4703008ec6f504deb3040c7776b206716e002",
  "args": [
    "0x41B953164995c11C81DA73D212ED8Af25741b7Ac",
    "0x1F98431c8aD98523631AE4a59f267346ea31F984",
    "0xBA12222222228d8Ba445958a75a0704d566BF2C8",
    "0xbc15DeAebc4b458829ab8d62Bb08Eaa5361D0FC1",
    "0x1ab2857e7f7671bff0715056f3f02cd1535f0b09",
    "0x492603E8501670524284FC98Ce3B8E253c142Fd8"
  ],
  "numDeployments": 1,
  "solcInputHash": "6dc70b042d052a203846c8f9f92c29e4",
  "bytecode": "0x6101006040523480156200001257600080fd5b5060405162002c0a38038062002c0a833981016040819052620000359162000190565b620000403362000127565b6001600160a01b0380871660805285811660a05284811660c05283811660e05281811690831610620000b85760405162461bcd60e51b815260206004820152601f60248201527f546f6b656e30206d757374206265206c657373207468616e20746f6b656e3100604482015260640160405180910390fd5b60018054808201825560008290527fb10e2d527612073b26eecdfd717e6a320cf44b4afac2b0732d9fcbe2b7fa0cf690810180546001600160a01b039586166001600160a01b031991821617909155825480840190935591018054929093169116179055506200022492505050565b600080546001600160a01b038381166001600160a01b0319831681178455604051919092169283917f8be0079c531659141344cd1fd0a4f28419497f9722a3daafe3b4186f6b6457e09190a35050565b6001600160a01b03811681146200018d57600080fd5b50565b60008060008060008060c08789031215620001aa57600080fd5b8651620001b78162000177565b6020880151909650620001ca8162000177565b6040880151909550620001dd8162000177565b6060880151909450620001f08162000177565b6080880151909350620002038162000177565b60a0880151909250620002168162000177565b809150509295509295509295565b60805160a05160c05160e05161297462000296600039600081816102df015281816112ce0152611b6b01526000818161015b015281816108a0015281816109d501528181610d2f0152610eb301526000818161022e0152611516015260008181610298015261063701526129746000f3fe608060405234801561001057600080fd5b50600436106101515760003560e01c80638da5cb5b116100cd578063c34c08e511610081578063e01af92c11610066578063e01af92c14610314578063f2fde38b14610327578063f3fef3a31461033a57600080fd5b8063c34c08e5146102da578063d34879971461030157600080fd5b8063ab6ac11a116100b2578063ab6ac11a1461028b578063ad63cacc14610293578063bdd3d825146102ba57600080fd5b80638da5cb5b14610250578063a16772281461026e57600080fd5b80632c2cee341161012457806352c998161161010957806352c998161461020e578063715018a6146102215780638bdb2afa1461022957600080fd5b80632c2cee34146101f35780634f64b2be146101fb57600080fd5b8063158274a51461015657806319cde9c9146101a75780631e743668146101be5780632050f445146101de575b600080fd5b61017d7f000000000000000000000000000000000000000000000000000000000000000081565b60405173ffffffffffffffffffffffffffffffffffffffff90911681526020015b60405180910390f35b6101b060035481565b60405190815260200161019e565b60025461017d9073ffffffffffffffffffffffffffffffffffffffff1681565b6101f16101ec366004612219565b61034d565b005b6101f1610b6f565b61017d6102093660046122fc565b610f48565b6101f161021c36600461232c565b610f7f565b6101f1611386565b61017d7f000000000000000000000000000000000000000000000000000000000000000081565b60005473ffffffffffffffffffffffffffffffffffffffff1661017d565b610277610bb881565b60405162ffffff909116815260200161019e565b6101f1611413565b61017d7f000000000000000000000000000000000000000000000000000000000000000081565b60045461017d9073ffffffffffffffffffffffffffffffffffffffff1681565b61017d7f000000000000000000000000000000000000000000000000000000000000000081565b6101f161030f366004612388565b61168e565b6101f1610322366004612416565b6117a5565b6101f1610335366004612455565b6118a7565b6101f1610348366004612472565b6119d7565b60005473ffffffffffffffffffffffffffffffffffffffff1633146103d3576040517f08c379a000000000000000000000000000000000000000000000000000000000815260206004820181905260248201527f4f776e61626c653a2063616c6c6572206973206e6f7420746865206f776e657260448201526064015b60405180910390fd5b60025473ffffffffffffffffffffffffffffffffffffffff1615610453576040517f08c379a000000000000000000000000000000000000000000000000000000000815260206004820152601260248201527f4c425020616c726561647920657869737473000000000000000000000000000060448201526064016103ca565b6002835110156104bf576040517f08c379a000000000000000000000000000000000000000000000000000000000815260206004820152601560248201527f4c425020636f6e66696773206d7573742062652032000000000000000000000060448201526064016103ca565b60408051600280825260608201835260009260208301908036833750506040805160028082526060820183529394506000939092509060208301908036833750506040805160028082526060820183529394506000939092509060208301908036833701905050905060005b60028110156105f9578681815181106105465761054661249e565b6020026020010151600001518482815181106105645761056461249e565b6020026020010181815250508681815181106105825761058261249e565b6020026020010151602001518382815181106105a0576105a061249e565b6020026020010181815250508681815181106105be576105be61249e565b6020026020010151604001518282815181106105dc576105dc61249e565b6020908102919091010152806105f1816124fc565b91505061052b565b506040517f2367971900000000000000000000000000000000000000000000000000000000815273ffffffffffffffffffffffffffffffffffffffff7f000000000000000000000000000000000000000000000000000000000000000016906323679719906106769060019087908990309060009060040161256f565b6020604051808303816000875af1158015610695573d6000803e3d6000fd5b505050506040513d601f19601f820116820180604052508101906106b9919061268a565b600280547fffffffffffffffffffffffff00000000000000000000000000000000000000001673ffffffffffffffffffffffffffffffffffffffff929092169182179055604080517f38fff2d000000000000000000000000000000000000000000000000000000000815290516338fff2d0916004808201926020929091908290030181865afa158015610751573d6000803e3d6000fd5b505050506040513d601f19601f8201168201806040525081019061077591906126a7565b60035560005b60015481101561092757600181815481106107985761079861249e565b9060005260206000200160009054906101000a900473ffffffffffffffffffffffffffffffffffffffff1673ffffffffffffffffffffffffffffffffffffffff166323b872dd33308585815181106107f2576107f261249e565b60209081029190910101516040517fffffffff0000000000000000000000000000000000000000000000000000000060e086901b16815273ffffffffffffffffffffffffffffffffffffffff938416600482015292909116602483015260448201526064016020604051808303816000875af1158015610876573d6000803e3d6000fd5b505050506040513d601f19601f8201168201806040525081019061089a91906126c0565b506109157f00000000000000000000000000000000000000000000000000000000000000008383815181106108d1576108d161249e565b6020026020010151600184815481106108ec576108ec61249e565b60009182526020909120015473ffffffffffffffffffffffffffffffffffffffff169190611b94565b8061091f816124fc565b91505061077b565b50604080516001805460a0602082028401810190945260808301818152600094849391929084018282801561099257602002820191906000526020600020905b815473ffffffffffffffffffffffffffffffffffffffff168152600190910190602001808311610967575b505050505081526020018381526020016000846040516020016109b69291906126dd565b60405160208183030381529060405281526020016000151581525090507f000000000000000000000000000000000000000000000000000000000000000073ffffffffffffffffffffffffffffffffffffffff1663b95cac286003543030856040518563ffffffff1660e01b8152600401610a349493929190612813565b600060405180830381600087803b158015610a4e57600080fd5b505af1158015610a62573d6000803e3d6000fd5b505060025473ffffffffffffffffffffffffffffffffffffffff169150633e569205905042610a918982612852565b866040518463ffffffff1660e01b8152600401610ab09392919061286a565b600060405180830381600087803b158015610aca57600080fd5b505af1158015610ade573d6000803e3d6000fd5b50506002546040517fe01af92c0000000000000000000000000000000000000000000000000000000081526001600482015273ffffffffffffffffffffffffffffffffffffffff909116925063e01af92c9150602401600060405180830381600087803b158015610b4e57600080fd5b505af1158015610b62573d6000803e3d6000fd5b5050505050505050505050565b60005473ffffffffffffffffffffffffffffffffffffffff163314610bf0576040517f08c379a000000000000000000000000000000000000000000000000000000000815260206004820181905260248201527f4f776e61626c653a2063616c6c6572206973206e6f7420746865206f776e657260448201526064016103ca565b6002546040517f70a0823100000000000000000000000000000000000000000000000000000000815230600482015260009173ffffffffffffffffffffffffffffffffffffffff16906370a0823190602401602060405180830381865afa158015610c5f573d6000803e3d6000fd5b505050506040513d601f19601f82011682018060405250810190610c8391906126a7565b905060008111610cef576040517f08c379a000000000000000000000000000000000000000000000000000000000815260206004820152600e60248201527f4e6f204250542062616c616e636500000000000000000000000000000000000060448201526064016103ca565b6002546040517f095ea7b300000000000000000000000000000000000000000000000000000000815273ffffffffffffffffffffffffffffffffffffffff7f000000000000000000000000000000000000000000000000000000000000000081166004830152602482018490529091169063095ea7b3906044016020604051808303816000875af1158015610d88573d6000803e3d6000fd5b505050506040513d601f19601f82011682018060405250810190610dac91906126c0565b50604080516001805460a06020820284018101909452608083018181526000948493919290840182828015610e1757602002820191906000526020600020905b815473ffffffffffffffffffffffffffffffffffffffff168152600190910190602001808311610dec575b5050505050815260200160018054905067ffffffffffffffff811115610e3f57610e3f612172565b604051908082528060200260200182016040528015610e68578160200160208202803683370190505b508152604080516000602082810182905260029383019390935260608201526080810186905291019060a00160405160208183030381529060405281526020016000151581525090507f000000000000000000000000000000000000000000000000000000000000000073ffffffffffffffffffffffffffffffffffffffff16638bdb39136003543030856040518563ffffffff1660e01b8152600401610f129493929190612813565b600060405180830381600087803b158015610f2c57600080fd5b505af1158015610f40573d6000803e3d6000fd5b505050505050565b60018181548110610f5857600080fd5b60009182526020909120015473ffffffffffffffffffffffffffffffffffffffff16905081565b60005473ffffffffffffffffffffffffffffffffffffffff163314611000576040517f08c379a000000000000000000000000000000000000000000000000000000000815260206004820181905260248201527f4f776e61626c653a2063616c6c6572206973206e6f7420746865206f776e657260448201526064016103ca565b60045473ffffffffffffffffffffffffffffffffffffffff1661107f576040517f08c379a000000000000000000000000000000000000000000000000000000000815260206004820152601b60248201527f556e697377617020706f6f6c20616c726561647920657869737473000000000060448201526064016103ca565b60016000815481106110935761109361249e565b6000918252602090912001546040517f70a0823100000000000000000000000000000000000000000000000000000000815230600482015273ffffffffffffffffffffffffffffffffffffffff909116906370a0823190602401602060405180830381865afa15801561110a573d6000803e3d6000fd5b505050506040513d601f19601f8201168201806040525081019061112e91906126a7565b600003611197576040517f08c379a000000000000000000000000000000000000000000000000000000000815260206004820152601960248201527f496e76616c69642062616c616e6365206f6620746f6b656e300000000000000060448201526064016103ca565b600180815481106111aa576111aa61249e565b6000918252602090912001546040517f70a0823100000000000000000000000000000000000000000000000000000000815230600482015273ffffffffffffffffffffffffffffffffffffffff909116906370a0823190602401602060405180830381865afa158015611221573d6000803e3d6000fd5b505050506040513d601f19601f8201168201806040525081019061124591906126a7565b6000036112ae576040517f08c379a000000000000000000000000000000000000000000000000000000000815260206004820152601960248201527f496e76616c69642062616c616e6365206f6620746f6b656e310000000000000060448201526064016103ca565b60045473ffffffffffffffffffffffffffffffffffffffff16633c8a7d8d7f000000000000000000000000000000000000000000000000000000000000000085858560006040519080825280601f01601f19166020018201604052801561131c576020820181803683370190505b506040518663ffffffff1660e01b815260040161133d959493929190612892565b60408051808303816000875af115801561135b573d6000803e3d6000fd5b505050506040513d601f19601f8201168201806040525081019061137f91906128eb565b5050505050565b60005473ffffffffffffffffffffffffffffffffffffffff163314611407576040517f08c379a000000000000000000000000000000000000000000000000000000000815260206004820181905260248201527f4f776e61626c653a2063616c6c6572206973206e6f7420746865206f776e657260448201526064016103ca565b6114116000611d99565b565b60005473ffffffffffffffffffffffffffffffffffffffff163314611494576040517f08c379a000000000000000000000000000000000000000000000000000000000815260206004820181905260248201527f4f776e61626c653a2063616c6c6572206973206e6f7420746865206f776e657260448201526064016103ca565b60045473ffffffffffffffffffffffffffffffffffffffff1615611514576040517f08c379a000000000000000000000000000000000000000000000000000000000815260206004820152601b60248201527f556e697377617020706f6f6c20616c726561647920657869737473000000000060448201526064016103ca565b7f000000000000000000000000000000000000000000000000000000000000000073ffffffffffffffffffffffffffffffffffffffff1663a167129560016000815481106115645761156461249e565b6000918252602090912001546001805473ffffffffffffffffffffffffffffffffffffffff909216918190811061159d5761159d61249e565b60009182526020909120015460405160e084901b7fffffffff0000000000000000000000000000000000000000000000000000000016815273ffffffffffffffffffffffffffffffffffffffff928316600482015291166024820152610bb860448201526064016020604051808303816000875af1158015611623573d6000803e3d6000fd5b505050506040513d601f19601f82011682018060405250810190611647919061268a565b600480547fffffffffffffffffffffffff00000000000000000000000000000000000000001673ffffffffffffffffffffffffffffffffffffffff92909216919091179055565b60045473ffffffffffffffffffffffffffffffffffffffff16331461170f576040517f08c379a000000000000000000000000000000000000000000000000000000000815260206004820152601160248201527f4f6e6c7920666f722074686520706f6f6c00000000000000000000000000000060448201526064016103ca565b6004546001805461176b9273ffffffffffffffffffffffffffffffffffffffff169187916000906117425761174261249e565b60009182526020909120015473ffffffffffffffffffffffffffffffffffffffff169190611e0e565b6004546001805461179f9273ffffffffffffffffffffffffffffffffffffffff16918691819081106117425761174261249e565b50505050565b60005473ffffffffffffffffffffffffffffffffffffffff163314611826576040517f08c379a000000000000000000000000000000000000000000000000000000000815260206004820181905260248201527f4f776e61626c653a2063616c6c6572206973206e6f7420746865206f776e657260448201526064016103ca565b6002546040517fe01af92c000000000000000000000000000000000000000000000000000000008152821515600482015273ffffffffffffffffffffffffffffffffffffffff9091169063e01af92c90602401600060405180830381600087803b15801561189357600080fd5b505af115801561137f573d6000803e3d6000fd5b60005473ffffffffffffffffffffffffffffffffffffffff163314611928576040517f08c379a000000000000000000000000000000000000000000000000000000000815260206004820181905260248201527f4f776e61626c653a2063616c6c6572206973206e6f7420746865206f776e657260448201526064016103ca565b73ffffffffffffffffffffffffffffffffffffffff81166119cb576040517f08c379a000000000000000000000000000000000000000000000000000000000815260206004820152602660248201527f4f776e61626c653a206e6577206f776e657220697320746865207a65726f206160448201527f646472657373000000000000000000000000000000000000000000000000000060648201526084016103ca565b6119d481611d99565b50565b60005473ffffffffffffffffffffffffffffffffffffffff163314611a58576040517f08c379a000000000000000000000000000000000000000000000000000000000815260206004820181905260248201527f4f776e61626c653a2063616c6c6572206973206e6f7420746865206f776e657260448201526064016103ca565b6040517f70a0823100000000000000000000000000000000000000000000000000000000815230600482015273ffffffffffffffffffffffffffffffffffffffff8316906370a0823190602401602060405180830381865afa158015611ac2573d6000803e3d6000fd5b505050506040513d601f19601f82011682018060405250810190611ae691906126a7565b600003611b4f576040517f08c379a000000000000000000000000000000000000000000000000000000000815260206004820152600f60248201527f496e76616c69642062616c616e6365000000000000000000000000000000000060448201526064016103ca565b611b9073ffffffffffffffffffffffffffffffffffffffff83167f000000000000000000000000000000000000000000000000000000000000000083611e0e565b5050565b801580611c3457506040517fdd62ed3e00000000000000000000000000000000000000000000000000000000815230600482015273ffffffffffffffffffffffffffffffffffffffff838116602483015284169063dd62ed3e90604401602060405180830381865afa158015611c0e573d6000803e3d6000fd5b505050506040513d601f19601f82011682018060405250810190611c3291906126a7565b155b611cc0576040517f08c379a000000000000000000000000000000000000000000000000000000000815260206004820152603660248201527f5361666545524332303a20617070726f76652066726f6d206e6f6e2d7a65726f60448201527f20746f206e6f6e2d7a65726f20616c6c6f77616e63650000000000000000000060648201526084016103ca565b60405173ffffffffffffffffffffffffffffffffffffffff8316602482015260448101829052611d949084907f095ea7b300000000000000000000000000000000000000000000000000000000906064015b604080517fffffffffffffffffffffffffffffffffffffffffffffffffffffffffffffffe08184030181529190526020810180517bffffffffffffffffffffffffffffffffffffffffffffffffffffffff167fffffffff0000000000000000000000000000000000000000000000000000000090931692909217909152611e64565b505050565b6000805473ffffffffffffffffffffffffffffffffffffffff8381167fffffffffffffffffffffffff0000000000000000000000000000000000000000831681178455604051919092169283917f8be0079c531659141344cd1fd0a4f28419497f9722a3daafe3b4186f6b6457e09190a35050565b60405173ffffffffffffffffffffffffffffffffffffffff8316602482015260448101829052611d949084907fa9059cbb0000000000000000000000000000000000000000000000000000000090606401611d12565b6000611ec6826040518060400160405280602081526020017f5361666545524332303a206c6f772d6c6576656c2063616c6c206661696c65648152508573ffffffffffffffffffffffffffffffffffffffff16611f709092919063ffffffff16565b805190915015611d945780806020019051810190611ee491906126c0565b611d94576040517f08c379a000000000000000000000000000000000000000000000000000000000815260206004820152602a60248201527f5361666545524332303a204552433230206f7065726174696f6e20646964206e60448201527f6f7420737563636565640000000000000000000000000000000000000000000060648201526084016103ca565b6060611f7f8484600085611f89565b90505b9392505050565b60608247101561201b576040517f08c379a000000000000000000000000000000000000000000000000000000000815260206004820152602660248201527f416464726573733a20696e73756666696369656e742062616c616e636520666f60448201527f722063616c6c000000000000000000000000000000000000000000000000000060648201526084016103ca565b73ffffffffffffffffffffffffffffffffffffffff85163b612099576040517f08c379a000000000000000000000000000000000000000000000000000000000815260206004820152601d60248201527f416464726573733a2063616c6c20746f206e6f6e2d636f6e747261637400000060448201526064016103ca565b6000808673ffffffffffffffffffffffffffffffffffffffff1685876040516120c2919061290f565b60006040518083038185875af1925050503d80600081146120ff576040519150601f19603f3d011682016040523d82523d6000602084013e612104565b606091505b509150915061211482828661211f565b979650505050505050565b6060831561212e575081611f82565b82511561213e5782518084602001fd5b816040517f08c379a00000000000000000000000000000000000000000000000000000000081526004016103ca919061292b565b7f4e487b7100000000000000000000000000000000000000000000000000000000600052604160045260246000fd5b6040516060810167ffffffffffffffff811182821017156121c4576121c4612172565b60405290565b604051601f82017fffffffffffffffffffffffffffffffffffffffffffffffffffffffffffffffe016810167ffffffffffffffff8111828210171561221157612211612172565b604052919050565b6000806000606080858703121561222f57600080fd5b843567ffffffffffffffff8082111561224757600080fd5b818701915087601f83011261225b57600080fd5b813560208282111561226f5761226f612172565b61227d818360051b016121ca565b828152818101935091850284018101918a83111561229a57600080fd5b938101935b828510156122e45785858c0312156122b75760008081fd5b6122bf6121a1565b853581528286013583820152604080870135908201528452938501939281019261229f565b9a908901359950604090980135979650505050505050565b60006020828403121561230e57600080fd5b5035919050565b8035600281900b811461232757600080fd5b919050565b60008060006060848603121561234157600080fd5b61234a84612315565b925061235860208501612315565b915060408401356fffffffffffffffffffffffffffffffff8116811461237d57600080fd5b809150509250925092565b6000806000806060858703121561239e57600080fd5b8435935060208501359250604085013567ffffffffffffffff808211156123c457600080fd5b818701915087601f8301126123d857600080fd5b8135818111156123e757600080fd5b8860208285010111156123f957600080fd5b95989497505060200194505050565b80151581146119d457600080fd5b60006020828403121561242857600080fd5b8135611f8281612408565b73ffffffffffffffffffffffffffffffffffffffff811681146119d457600080fd5b60006020828403121561246757600080fd5b8135611f8281612433565b6000806040838503121561248557600080fd5b823561249081612433565b946020939093013593505050565b7f4e487b7100000000000000000000000000000000000000000000000000000000600052603260045260246000fd5b7f4e487b7100000000000000000000000000000000000000000000000000000000600052601160045260246000fd5b60007fffffffffffffffffffffffffffffffffffffffffffffffffffffffffffffffff820361252d5761252d6124cd565b5060010190565b600081518084526020808501945080840160005b8381101561256457815187529582019590820190600101612548565b509495945050505050565b60e08152600b60e08201527f466c75656e6365204c42500000000000000000000000000000000000000000006101008201526000610120602081818501526006828501527f464c544c4250000000000000000000000000000000000000000000000000000061014085015261016091508184018260408601528092508954808252610180860193508a60005282600020915060005b8181101561263657825473ffffffffffffffffffffffffffffffffffffffff1685529383019360019283019201612604565b50505050828103606084015261264c8188612534565b91505084608083015261267760a083018573ffffffffffffffffffffffffffffffffffffffff169052565b82151560c08301525b9695505050505050565b60006020828403121561269c57600080fd5b8151611f8281612433565b6000602082840312156126b957600080fd5b5051919050565b6000602082840312156126d257600080fd5b8151611f8281612408565b60ff83168152604060208201526000611f7f6040830184612534565b60005b838110156127145781810151838201526020016126fc565b8381111561179f5750506000910152565b6000815180845261273d8160208601602086016126f9565b601f017fffffffffffffffffffffffffffffffffffffffffffffffffffffffffffffffe0169290920160200192915050565b8051608080845281519084018190526000916020919082019060a0860190845b818110156127c157835173ffffffffffffffffffffffffffffffffffffffff168352928401929184019160010161278f565b5050828501519150858103838701526127da8183612534565b92505050604083015184820360408601526127f58282612725565b915050606083015161280b606086018215159052565b509392505050565b848152600073ffffffffffffffffffffffffffffffffffffffff808616602084015280851660408401525060806060830152612680608083018461276f565b60008219821115612865576128656124cd565b500190565b8381528260208201526060604082015260006128896060830184612534565b95945050505050565b73ffffffffffffffffffffffffffffffffffffffff861681528460020b60208201528360020b60408201526fffffffffffffffffffffffffffffffff8316606082015260a06080820152600061211460a0830184612725565b600080604083850312156128fe57600080fd5b505080516020909101519092909150565b600082516129218184602087016126f9565b9190910192915050565b602081526000611f82602083018461272556fea264697066735822122005969f7adde651c724bb12ed3b1f9cda05cd7c4caf4f48286d6766dbcf7e943864736f6c634300080f0033",
  "devdoc": {
    "kind": "dev",
    "methods": {
      "owner()": {
        "details": "Returns the address of the current owner."
      },
      "renounceOwnership()": {
        "details": "Leaves the contract without owner. It will not be possible to call `onlyOwner` functions anymore. Can only be called by the current owner. NOTE: Renouncing ownership will leave the contract without an owner, thereby removing any functionality that is only available to the owner."
      },
      "transferOwnership(address)": {
        "details": "Transfers ownership of the contract to a new account (`newOwner`). Can only be called by the current owner."
      }
    },
    "version": 1
  },
  "userdoc": {
    "kind": "user",
    "methods": {},
    "version": 1
  },
  "storageLayout": {
    "storage": [
      {
        "astId": 7123,
        "contract": "contracts/LPController.sol:LPController",
        "label": "_owner",
        "offset": 0,
        "slot": "0",
        "type": "t_address"
      },
      {
        "astId": 12818,
        "contract": "contracts/LPController.sol:LPController",
        "label": "tokens",
        "offset": 0,
        "slot": "1",
        "type": "t_array(t_contract(IERC20)8405)dyn_storage"
      },
      {
        "astId": 12823,
        "contract": "contracts/LPController.sol:LPController",
        "label": "liquidityBootstrappingPool",
        "offset": 0,
        "slot": "2",
        "type": "t_contract(ILiquidityBootstrappingPool)11924"
      },
      {
        "astId": 12825,
        "contract": "contracts/LPController.sol:LPController",
        "label": "lbpPoolId",
        "offset": 0,
        "slot": "3",
        "type": "t_bytes32"
      },
      {
        "astId": 12828,
        "contract": "contracts/LPController.sol:LPController",
        "label": "uniswapPool",
        "offset": 0,
        "slot": "4",
        "type": "t_contract(IUniswapV3Pool)11393"
      }
    ],
    "types": {
      "t_address": {
        "encoding": "inplace",
        "label": "address",
        "numberOfBytes": "20"
      },
      "t_array(t_contract(IERC20)8405)dyn_storage": {
        "base": "t_contract(IERC20)8405",
        "encoding": "dynamic_array",
        "label": "contract IERC20[]",
        "numberOfBytes": "32"
      },
      "t_bytes32": {
        "encoding": "inplace",
        "label": "bytes32",
        "numberOfBytes": "32"
      },
      "t_contract(IERC20)8405": {
        "encoding": "inplace",
        "label": "contract IERC20",
        "numberOfBytes": "20"
      },
      "t_contract(ILiquidityBootstrappingPool)11924": {
        "encoding": "inplace",
        "label": "contract ILiquidityBootstrappingPool",
        "numberOfBytes": "20"
      },
      "t_contract(IUniswapV3Pool)11393": {
        "encoding": "inplace",
        "label": "contract IUniswapV3Pool",
        "numberOfBytes": "20"
      }
    }
  }
}